:020000040000FA
:0600000002010A0229C3FF
:03002B000225E6C5
:03005300022A3648
:03006B000225C0AB
:10008300022877E5C754F84401F5C7790122000037
:100093000080FB120086B900030200F4E4792178A2
:1000A30008B800028004F709D8FCE479297802B87B
:1000B30000028004F709D8FCE4900281782F7908C4
:1000C3008002F0A3D8FCD9FA9009AFAA82AB83903F
:1000D300013A782279058015E493A3AC82AD838A33
:1000E300828B83F0A3AA82AB838C828D83D8E9D9D8
:1000F300E77582B77583B1740412011C758291751B
:100103008300740012011C75D00075813F7518813E
:10011300751902759F00020096C09FF59FE473D086
:100123009F22D083D082C09FE493C0E0740193C028
:10013300E0740293F59F22FFFF0A416363656C201D
:10014300456E61626C650000021400416363656C77
:100153002052616E67650000024D505536303530D0
:10016300204F757420506172616D65746572000073
:10017300101010416363656C20582D436F6F7264D8
:10018300696E6174650000416363656C20592D439A
:100193006F6F7264696E6174650000416363656CBF
:1001A300205A2D436F6F7264696E6174650000029B
:1001B300BD900100008A9002BB90010000B10902CA
:1001C300FD90030000A00202C390010000B20902E7
:1001D300BB90010000C00902FB90010000C10902AD
:1001E300C390010000C30902BB90010000E80902AB
:1001F300F990000000B50202C990030000B80202A2
:10020300C390010000EB0902BB90010000E9090261
:10021300F790000000B60202C990030000BE02027C
:10022300C390010000FF0902BB90010000EA09022C
:10023300F590000000B70202C990030000C4020257
:10024300C390010000130A02BB90010000D0090211
:10025300F390010000A10202C390010000D109FF45
:10026300000000FF00000001CE8C3A8F0000000068
:10027300000000000000000000000000000000007B
:10028300000000000000000000268C110199010FFE
:100293001264040102BD90010000969002BB90011C
:1002A3000000080B02E390010000090B02C9900350
:1002B3000000DD0202E1900100000A0B02020202CB
:1002C3000202020202010D000000100102BD9001B2
:1002D30000009F9002BB90010000340B02DF9001ED
:1002E3000000E30202BB90010000350B02DD900128
:1002F3000000218F02BB90010000360B02DB90014E
:100303000000E98E02BB90010000370B02D9900177
:1003130000004A8E02BB90010000380B02D7900107
:100323000000388E02BB90010000390B02D590010A
:100333000000268E02BB900100003A0B02D390010D
:1003430000005C8E02BB900100003B0B02CF9001CA
:100353000000F78E02BB900100003C0B02CD900120
:1003630000003D0B01E803053F100B094B6579665F
:100373006F6264656D6F02010507020318021804BA
:1003830018544920424C45204B6579666F62000042
:10039300000000000000E7090000ED09F309050A69
:1003A300FF00013075030201060000000000000099
:1003B300000000000000000000000000000000003A
:1003C3000000000000FFFF0600800CE8030A04128F
:1003D30002BD90010000AB9002BB90010000450CF0
:1003E30002B390030000C50402BD90010000A89071
:1003F30002BB90010000460C02B390020000C60449
:1004030002BD90010000A59002BB90010000470CC3
:1004130002B590010000C70402C990030000C8049C
:10042300104B657920507265737320537461746542
:100433000002BD90010000A29002BB900100009851
:100443000C02C190000000CE0402C990030000CF4B
:100453000402C390010000990CFF0000B4000028BF
:10046300002800283075A000A000A000A00000080C
:100473000008E001F0001000100010001000100050
:10048300100050005000500010001000D007000072
:10049300000000000F000100050030750700100088
:1004A300010081FF0000FF2F0D4D0D350DFF0202EE
:1004B3000208025000A0000000E80302BD90010002
:1004C300009C9002BB90010000260D02CB9001001E
:1004D30000060502BB90010000270D02D190010028
:1004E300001C0502BB90010000280D02F1900100E1
:1004F300001E0502BB90010000290D02EB900800CD
:10050300001F0502BB900100002A0D02E9900100C3
:10051300002B0DFF0100FF2002BD90010000999008
:1005230002BB900100008F0D02E790000000000065
:1005330002C9900300006C051D131D131D131D1329
:100543001D131D131D131D131D131D131D131D1328
:100553001D139915B115931512012598C3031201A3
:1005630025ADC30312012505C4031201256CC40381
:10057300120125B4C4031201252AC503120125590A
:10058300C50312012567C503120125CBC50312015B
:100593002509C60312012524C603120125BCC6037F
:1005A30012012563C703120125E4C7031201251BAA
:1005B300C803120125A4C803120125F9C8031201B7
:1005C3002556C90312012568C9031201258EC903E3
:1005D30012012597C903120125EBCA03120125B2A3
:1005E300A80412012591A904120125ACAE0412013D
:1005F3002594A004120125D9A0041201251DA104EC
:10060300120125AEA20412012562B0041201257D58
:10061300B0041201258DB00412012529D80312015B
:100623002540D8031201253AD90312012586D9039F
:10063300120125A6D903120125F7D9031201256258
:10064300DA03120125A6DA0312012504DB031201E2
:1006530025ACDD031201259CFE03120125CCFE030C
:10066300120125FCFE031201251CFF03120125764E
:10067300FF031201252ED20312012597D203120183
:1006830025B4D20312012536D403120125C9D4039C
:1006930012012589D603120125D6D7031201259FFE
:1006A3005B00120125CA5B00120125885E0012015E
:1006B300251562001201255B6500120125446600C1
:1006C300120125916900120125FE690012012551CD
:1006D3006A00120125BD6A00120125296B0012016F
:1006E30025FD6B001201256A6C00120125D76C00F1
:1006F30012012503700012012591700012012510CB
:1007030071001201258F710012012522720012015E
:1007130025E42D00120125E72D00120125EA2D0005
:10072300120125C62E00120125952F001201257FE7
:10073300300012012519310012012509320012017E
:10074300253D3500120125C535001201251037005E
:10075300120125FF37001201250C3A001201253B37
:100763003B00120125F83B001201255B3C001201FE
:1007730025BB3C001201253F3D001201256F3D00C2
:100783001201258B3D00120125EA4600120125C303
:100793004800120125284900120125A3490012012E
:1007A30025944B00120125E84D00120125D24F007C
:1007B3001201255551001201255852001201255BE3
:1007C3005300120125C5540012012554560012018D
:1007D30025EB5600120125525700120125385A0005
:1007E300120125B99B04120125FD9B041201251D4D
:1007F3009C04120125299C04120125359C04120135
:1008030025419C041201257B9C04120125B29C0402
:10081300120125E99C04120125309D04120125775C
:100823009D04120125C79D041201250588041201A8
:10083300253A88041201255D88041201254C890498
:10084300120125308A04120125BC8A04120125C62F
:100853008B04120125F27F00120125F77F0012019C
:1008630025ECE70312012511E8031201254CE803E7
:100873001201254FAF0412012504910112012577BE
:100883009301120125379501120125E29501120109
:10089300258696011201251F97011201254E970106
:1008A300120125AF9C011201255A9D01120125CA8F
:1008B3009E01120125329F01120125E69F011201BB
:1008C3002566A101120125A5A10112012519A20185
:1008D30012012578A201120125D7A2011201254692
:1008E300A30112012539A4011201257FA4011201DC
:1008F30025C4A401120125E7A40112012537A6018D
:100903001201254AA601120125BCA601120125F3F5
:10091300A6011201251FA70112012572A7011201C9
:100923002593A701120125D7A70112012529AA01A1
:100933001201256AAA0112012515AB0112012580B6
:10094300AB011201250CAC041201251DAC041201EC
:1009530025F8AC04120125FA7F00120125DEFF03FE
:10096300120125DFAD04120125EFAD0412012509A3
:10097300AE04120125A9AE04120125DF9804120169
:10098300258299041201259E9B0412012502AB04C2
:1009930012012529AB0412012587AB04120125DAC4
:1009A300AB041201258AF103120125A9F1031201F7
:1009B300253EF2031201252EF3031201259BF503B5
:1009C30012012526C40212012583C6021201259FA6
:1009D300C802120125CAC802120125DAC90212018E
:1009E3002506CB0212012528CB02120125CDCC020C
:1009F30012012516CD021201255ACD02120125CF6F
:100A0300CE021201255CD002120125E2FD02120181
:100A13002541FE02120125EFFE021201256EFF029F
:100A2300120125A98F04120125DB8F04120125E38E
:100A3300900412012508920412012582A6031201D3
:100A43002574A703120125B7A703120125F1A703F4
:100A530012012566A803120125C7A8031201254424
:100A6300A90312012520AA031201252BAB031201AE
:100A730025ACAB0312012553AD03120125E9AD03E8
:100A83001201255CAE03120125D8AE03120125EF36
:100A9300AE0312012526B00312012580B003120113
:100AA30025B19302120125209802120125E59A022D
:100AB3001201250E9B02120125359B02120125DD31
:100AC3009B02120125B09D02120125EB9E02120129
:100AD3002582A302120125BBA302120125FFA30253
:100AE30012012511A502120125008004120125AB74
:100AF3008004120125C880041201256B81041201B0
:100B030025A78104120125798204120125DC8304BF
:100B13001201252D9E04120125809E04120125E554
:100B23009E04120125AD9F0412012557A004120152
:100B330025FFA60412012516A70412012545A704C3
:100B43001201257EA704120125A6A704120125D4AC
:100B5300A704120125EBA70412012502A804120120
:100B63002518A8041201253FA80412012552A80440
:100B730012012568A8041201257BA804120125A0EF
:100B8300A804120125ECB003120125EBB1031201F5
:100B93002520B20312012541B20312012551B203EC
:100BA30012012572B2031201257EB3031201254BF4
:100BB300B403120125BEB40312012544B503120187
:100BC3002587B503120125BEB50312012544B603DB
:100BD30012012516B70312012574B7031201258CE0
:100BE300B70312012506B80312012509B803120140
:100BF300250CB803120125B3B803120125CBB803A2
:100C0300120125FBB8031201251BB90312012509A3
:100C1300BA03120125BFBA03120125E2EC03120144
:100C2300250AED0312012538ED031201256FED03AB
:100C3300120125D7ED0312012520EE031201256BC6
:100C4300EE03120125A9EE03120125E6EE031201BC
:100C53002514EF03120125BBEF03120125C5EF0392
:100C6300120125D2EF0312012505F003120125C756
:100C7300F003120125D3F003120125EBF003120157
:100C830025F5F00312012508AD0412012516AD0464
:100C93001201252EAD0412012546AD04120125ECE7
:100CA300D2021201258AD30212012502D4021201B3
:100CB3002517D50212012551D502120125FAD502B5
:100CC300120125CFD60212012533D8021201258A3B
:100CD300D80212012511D902120125F8D9021201F5
:100CE3002545DA02120125D3DA02120125F7DA02C9
:100CF300120125CCDC021201250DDD021201252F84
:100D0300DD02120125B0DD021201259ADE02120175
:100D13002560DF0212012522CB03120125F4CB0348
:100D23001201259DCC03120125E0CC031201256D90
:100D3300CD03120125F9CD03120125DACE031201E9
:100D43002509CF0312012505D0031201254DD00338
:100D53001201254FD10312012593D103120125B9A5
:100D6300D103120125D9AF04120125D88B04120136
:100D730025EE8B04120125148C041201253C8D04ED
:100D8300120125468D041201259F8E041201259F11
:100D93008F04120125BDDD03120125F2DE031201CA
:100DA3002525DF031201256FDF031201252DE10342
:100DB300120125D1A50212012534A60212012579BB
:100DC300A70212012589A702120125ACA70212016D
:100DD30025F7A7021201259CA80212012592A90258
:100DE3001201255CAA02120125D4AB0212012516B9
:100DF300AC02120125B4AC0212012501AD021201AD
:100E03002527AD0212012515AF021201251AAF02E3
:100E1300120125FBB0021201254FB102120125B1C7
:100E2300B102120125D9B1021201257DB2021201CC
:100E3300253FB30212012570B30212012573B302D9
:100E4300120125BBB302120125FDB3021201256471
:100E5300B402120125F0A20412012503A304120116
:100E6300251CA30412012567A30412012542A4042F
:100E7300120125D1A4041201251CA50412012594F5
:100E8300AC01120125A0AC01120125D9AC0112015C
:100E9300251EAD01120125D5AD011201255BAE0161
:100EA300120125C0AE01120125ECAE011201252568
:100EB300AF0112012539B10112012515B301120148
:100EC3002500B50112012537B60112012597B80196
:100ED30012012583B901120125C9BA01120125D6D0
:100EE300BB01120125F3BB011201252BBC01120129
:100EF3002545BC01120125ADBC0112012547C101E5
:100F0300120125E8C10112012539C2011201256030
:100F1300C201120125AEC201120125CCC201120188
:100F23002520C301120125F9C30112012580C50142
:100F330012012508C601120125E3E203120125ED82
:100F4300E203120125B8E303120125D3E3031201DF
:100F530025F9E3031201253DE40312012575E4039A
:100F63001201259EE40312012517E5031201252C26
:100F7300E50312012541E50312012578E50312017A
:100F8300258CE503120125BDE503120125F7E503D1
:100F930012012523E6031201255BE603120125C78F
:100FA300E6031201252CE70312012575E70312015D
:100FB300259FE703120125C4E703120125198404C1
:100FC300120125E38404120125C685041201253C80
:100FD30086041201257E8604120125AB87041201C3
:100FE300258F8D03120125B88D03120125D18D03A1
:100FF300120125168F03120125F48F031201251305
:101003009003120125A09003120125E3900312011E
:1010130025309203120125CF92031201254E950329
:10102300120125E59503120125B996031201259BAB
:1010330097031201250799031201259A99031201B7
:1010430025EDA90412012556AA04120125AAAA0412
:10105300120125D1AA04120125FBF503120125680B
:10106300F603120125B3F603120125A8F7031201B3
:1010730025A4F8031201258EF9031201252ABB03C7
:101083001201256CBB0312012546BC031201251F67
:10109300BD031201251ABE03120125F9BE03120175
:1010A3002565BF031201252CC00312012597C00338
:1010B300120125FEC00312012529C1031201259A3D
:1010C300C1031201252DC20312012596C203120189
:1010D30025ABC203120125F3C2031201250CC3037E
:1010E30012012571C30312012574C303120125E5FF
:1010F30095041201250D96041201254B9604120145
:101103002509970412012574970412012590970469
:10111300120125B89704120125E89704120125F757
:10112300970412012571980412012597980412015E
:10113300252EB5021201250BB70212012506B902AD
:10114300120125D9B90212012524BA021201256F11
:10115300BA0212012581BA02120125C1BA02120193
:1011630025F6BA0212012542BB0212012571BB0208
:1011730012012594BB02120125E1BB021201256A6B
:10118300BC0212012577BE0212012562C0021201C0
:1011930025A5C0021201250AC2021201254BC20273
:1011A300120125BEC2021201250AC3021201252B18
:1011B300C302120125FBC302120125119A03120176
:1011C300253C9A0312012523A10312012547A303FA
:1011D30012012502A5031201255FA6031201256F43
:1011E300C60112012506C7011201254CC7011201D0
:1011F300258BC801120125AFC80112012546CA017A
:10120300120125C0CA01120125DBCA0112012550B2
:10121300CB011201257FCC01120125DACD01120188
:1012230025DCCE0112012539D00112012552D0014E
:10123300120125AFD00112012591D101120125C45C
:10124300D10112012534D201120125AED2011201BE
:1012530025FDD201120125C9D301120125CED401E6
:10126300120125ADD50112012538D601120125A69B
:10127300D6011201251AD70112012543D701120104
:101283002502D8011201257CD90112012599D90122
:10129300120125B8D90112012549DA011201256E7F
:1012A300DA0112012596DA0112012511DB0112017F
:1012B300256BDB01120125BFDC011201257CDD0159
:1012C3001201254FDE0112012513F00212012563DD
:1012D300F0021201256FF0021201254CF1021201F6
:1012E300257CF102120125B4F10212012533F20229
:1012F3001201256BF202120125BDF202120125FA39
:10130300F2021201251FF5021201254BF702120109
:101313002546F90212012521FB02120125FD7F005A
:101323001201250080021201254A8002120125299B
:101333008602120125AA8702120125098E021201D3
:1013430025048F02120125418F02120125648F02A9
:10135300120125A68F02120125AF8F02120125B9B2
:101363008F02120125A59002120125999102120103
:10137300257DDE01120125F5E801120125FBE801B7
:1013830012012507F001120125CF9204120125CD88
:10139300930412012523940412012561940412017C
:1013A30025BE94041201253B95041201254495049E
:1013B3001201255095041201256395041201259FFE
:1013C3009504120125B5950412012550FA03120163
:1013D300255DFA0312012577FA03120125B6FA03F4
:1013E300120125F4FA0312012559FB031201256E9C
:1013F300FB0312012579FB0312012586FB0312016E
:10140300259DFB03120125ABFB03120125B6FB034C
:10141300120125C2FB03120125D1FB03120125DCB6
:10142300FB03120125FFFB03120125A8FC03120194
:1014330025B8FC03120125D2FC03120125EFFC039E
:101443001201250BFD0312012530FD031201253A7C
:10145300FD031201254EFD031201256DFD0312014B
:1014630025CEFD03120125D4FD03120125DAFD0368
:10147300120125E0FD03120125ECFD031201251FD6
:10148300FE03120125058003120125878003120143
:1014930025308103120125788203120125868403F6
:1014A3001201256C8503120125A18503120125C3B1
:1014B30085031201256C86031201253C8803120162
:1014C30025658803120125DD88031201250F890391
:1014D3001201251C89031201256789031201258B3B
:1014E3008903120125DC8B03120125E68C0312010B
:1014F30025428D0312012595E102120125A6E20280
:101503001201258AE30212012594E302120125B692
:10151300E302120125C2E30212012566E50212016C
:101523002593E502120125A9E602120125FEE60232
:101533001201254DE80212012522E9021201257E3E
:10154300E902120125E9E9021201251EEA0212014C
:101553002561EA021201252BED0212012543ED025A
:10156300120125D4ED02120125E2ED021201252F0D
:10157300EE021201253DEE02120125A9EE0212012F
:101583002524EF021201257BEF02120125C2F4018B
:10159300120125E4F401120125F5F601120125B427
:1015A300F901120125DEFA011201259CFB0112014A
:1015B3002588FC0112012546A5041201256BA5040B
:1015C300120125E1A5041201258F78001201259847
:1015D3007800120125A17800120125797900120102
:1015E300252A7B001201255A7B00120125857B00E9
:1015F300120125B57B00120125E07B0012012514A1
:101603007C00120125407C00120125837C0012011D
:1016130025AE7C00120125F57C001201254A7D00D0
:101623001201258C7D00120125E67D001201251192
:101633007E00120125607E00120125907E001201BA
:1016430025BB7E00120125E97E001201250C7F00D7
:10165300120125E4B00412012510B1041201253D45
:10166300B10412012547B10412012557B104120137
:10167300250CB20412012561B104120125AC7F00CF
:10168300120125C7FF02120125E0FF01E066701079
:1016930008A3E066700A08A3E066700408A3E06686
:1016A30022C3E09608A3E09608A3E09608A3E09679
:1016B300A2D265D03322C008C3E096F50808A3E0A0
:1016C30096420808A3E096420808A3E0964208A2BF
:1016D300D265D033E5087001D3D00822C3E796085A
:1016E30009E7960809E7960809E79622C3E09608F2
:1016F300A3E09608A3E09608A3E09622C008C3E0FF
:1017030096F50808A3E096420808A3E09642080865
:10171300A3E09645087001D3D00822080808E630F4
:10172300E711121FCE121736080808C64480C618E0
:10173300181822181818E9799EC608CAC608CBC615
:1017430008CCC6C370207996CACBCC7019798ECBDE
:10175300CC70137986CC700EF9802ACA33CACB3386
:10176300CBCC33CC331930E7F2CCCBCA3350147023
:1017730004EA30E00DE4CA3ACACB3BCBCC3CCC50B4
:101783000209C3E913C6CC182313C6CB18C6CA185B
:10179300C6F9221217D620F01430E72B74FFFCFB96
:1017A300FA747F8022E4FCFBFA7480801AB4800808
:1017B300BC00F2BB00EF800F50EBF9E4C39AFAE4EC
:1017C3009BFBE49CFCE499C6CC18C6CB18C6CA188C
:1017D300C6F922E4C9C608CAC608CBC6D333030870
:1017E300CCC63392F0C3947F402E94184019C9B9E4
:1017F3000704CACBCC225025C309CA33CACB33CB87
:10180300CC33CC33D9F422F4600DC9CCC313CB133E
:10181300CBCA13CAD9F6CC22E4FCFBFA2214FCFB94
:10182300FA22E6C33318461846184622E7C333198B
:10183300471947194722181818E6084608700AE698
:1018430008C3337005E633F4220822191919E7098E
:101853004709700AE709C3337005E733F422092205
:10186300E6084608C3134608336002E633F422E76A
:10187300094709C3134709336002E733F4221218F7
:101883006360251218726020121825700302182F46
:10189300080808E76670101819E766700A1819E750
:1018A3006670041819E76622F422121863601B128B
:1018B30018726016121825700712182F600CB322C5
:1018C300C0D012182F7005D0D022C32233D0D050ED
:1018D3001330E0EBC3E7960809E7960809E7960893
:1018E30009E7962220E0E4E6970809E6970809E667
:1018F300970809E6972200121863604F1218726066
:1019030012E7548066F6121839701112182F703BC3
:10191300090909F4F618F618F618F62212184E708B
:101923001512182508080860EAE6447FF618768041
:1019330018E4F618F622121825601612182F7012E2
:10194300E4F608F608F608E65480F60909091818BB
:101953001822EAC0E0EBC0E0ECC0E0EDC0E0E687AF
:10196300F0A4FBACF008E687F0A42CFCE435F0FA15
:101973001809E687F0A42C4B60027401CA35F0FC09
:10198300E433FB09E687F0D2F7A42CCB35F0FC193E
:1019930008E687F0A42BCC35F0FBE433FD0819E609
:1019A30087F0D2E7A42C4ACB35F0CD3400FC09E60E
:1019B30087F0D2E7A42DCC35F0FDE433FA0918E61D
:1019C30087F0D2F7A42CCD35F0CA3400FC08E687A3
:1019D300F0D2E7D2F7A42ACC35F07A7E20E70B0ABF
:1019E300CB33CBCD33CDCC33CC33CB33501470048A
:1019F300ED30E00ED2F1E4CD3DCDCC3CCC3B5005F7
:101A0300DA05C2F1EB547FC63308E63392F0FBE705
:101A13003309E733C39A502D2B70190C0D4C4D70BD
:101A2300151806E608C333700D20F10AA2F013F669
:101A3300E418800B4024E4F630F002768018F618A0
:101A4300F618F68024D33B14501074FFA2F013F65B
:101A5300187680E418F618F6800FA2F013F618E64D
:101A63003303F618ECF618EDF6D0E0FDD0E0FCD029
:101A7300E0FBD0E0FA22121863601D1218727005A1
:101A8300191919801A121839701F12184EC37003CE
:101A9300E66733191919400718181822080808743B
:101AA300FFF618F618F618F62212184E60171218D9
:101AB3002F702192F01218257019501720F0140876
:101AC3000808090909E7F61819E7F61819E7F618D7
:101AD30019E7F62212182560E6E869701F0808E680
:101AE3002480F608E436F618547FB47F0CE654805D
:101AF3006007F6E418F618F622181822E9C6CC088F
:101B0300C6CD08C6CE08C6CFC0E0E8C0E0EAC0E054
:101B1300EBC0E009E9F809E7FA09E7FBE6F918E69B
:101B2300F8C3EC98ED99EE9AEBC2E7F5F0EFC2E754
:101B330095F0500E600CEBCFFBEACEFAE9CDF9E855
:101B4300CCF8EAA2E7D2E7FAEB33FB13F5F0EEA207
:101B5300E7D2E7FEEF33FFC5F013A2E730E601B3A8
:101B630013C5F0C3C0E0C0F07F00C39BFB605B9470
:101B730018600C401AD0E023F9D0E0F8021C578A11
:101B8300F0E9486003D2F0E4AFF0FAF9F8803BEBF8
:101B930030E40D89F0EA6003D2F0E4AFF0F9CAF85B
:101BA300EB30E30D88F0EF6002D2F0AFF0E4CAC986
:101BB300F8EB54076014FBC3EA13FAE913F9E813CB
:101BC300F8EF135002D2E0FFDBEDD0E0C0E030E7E6
:101BD30039C3E49FFFF5F0EC98FC42F0ED99FD4228
:101BE300F0EE9AFE42F0D0E0F9D0E0F8E5F0607A4A
:101BF300E923F9EE20E742D8028067C3EF33FFEC15
:101C030033FCED33FDEE33FE80EAEC28FCED39FDC9
:101C1300EE3AFED0E023F9D0E0F84002801BC3EE99
:101C230013FEED13FDEC13FCEF135002D2E0FF089B
:101C3300B800067F7F74FF802EEF3350178CF0209F
:101C4300F00260100CBC000C0DBD00080EBE0004B9
:101C530008E860DFE933E813FFEE2313FE4F4D4C32
:101C63008008E95480FFE4FEFDFCEE33EF33F470AB
:101C730004FCFD7E80D0E0FBD0E0FAD0E0F8D0E0B9
:101C8300CFC618CEC618CDC618CCC6F92212186313
:101C9300700418181822121872700D74FFF61819B0
:101CA300F61819F61819F622E7548066F612182565
:101CB300700F12182F70F014F608F608F608F68065
:101CC300D112182F700CF608F608768008E6447FC8
:101CD30080EC121851700C12183C60BFE65480F669
:101CE300E480BB12183C700519191980A5E86970C6
:101CF3000C763F18768018F618F6E8F922E6CDC080
:101D0300E018ECC0E0E633CD33CDD313F6E719FC8E
:101D1300E7191933CC33C3947F400ECD9D5024086B
:101D2300E65480F6E418F6800FF4043D14501408CA
:101D3300E6447FF6187680E418F618F6D0E0FCD077
:101D4300E0FD22CCD313CCFD18E4C6CBC0E018E4ED
:101D5300C6CAC0E00808ED08C633E613F618E43334
:101D6300C675F003C3CA97CA09CB97CB199C400425
:101D73007D08802EBD0003021E3916B6FF05060638
:101D8300081618C3CA33CACB33CB33CA27CA09CB05
:101D930037CB193CC37D08803E187D0820E75CC61D
:101DA30033C6CA33CACB33CB33DDF1D5F0EB30E7DF
:101DB3007BCA97CA09CB974ACB199C406F4B7025B6
:101DC300E620E0218066187D08C3CA97CA09CB972D
:101DD300CB199CD3C633C6CA33CACB33CB3350C912
:101DE300DDE7D5F0E1D3E4C636C608C636C608C675
:101DF30036C608C636C61818188031C3CA97CA092A
:101E0300CB97CB199CB34097C633C6CA33CACB33DF
:101E1300CB33DD34D5F02EC6A2E0C640C8CA27CAEC
:101E230009CB37194A70BECB3CB480B90808E633F6
:101E330008E633601F181818D0E0FAD0E0FBD0E0B2
:101E4300FCD0E0FD22187D08CA27CA09CB37CB197D
:101E53003CD3808013F618E4B67F11F618B6FF0E54
:101E6300F618C60470D20808768080CAF618F618E9
:101E7300F680C5080808EAC0E0EBC0E086F0E7A4F6
:101E8300FA180986F0E7A42AFA180986F0E7A42AC3
:101E9300FA180986F0E7A42AFA1986F0E7A4FBE505
:101EA300F02AFA190886F0E7A42BFBE5F03AFA19B1
:101EB3000886F0E7A42BFBE5F03AFA18180986F038
:101EC300E7A4C5F02BFBE43AFA1908E7C5F0C6A46A
:101ED30026F6E5F03BFBE43AFA1886F0E7A4F6E5CC
:101EE300F00826F6E43B08F6E43A08F6D0E0FBD027
:101EF300E0FA22E4CFC0E0E4CEC0E0E4CDC0E0E409
:101F0300CCC0E075F020C3E633F608E633F608E606
:101F130033F608E633F6181818EC33FCED33FDEE10
:101F230033FEEF33FFC3EC9709ED9709EE9709EF03
:101F330097191919400FFFEC97FC09ED97FD09EE6E
:101F430097FE191906D5F0BEECF709EDF709EEF780
:101F530009EFF7191919D0E0FCD0E0FDD0E0FED06D
:101F6300E0FF22121FD1181818121EF6121FBD19F6
:101F7300191922121FBD191919080808E61818188B
:101F830020E7E0121EF6121FD118181822090909BA
:101F9300E719191920E7DC080808E618181820E7DC
:101FA30003021EF6121FD1181818121EF6121FD1A3
:101FB300181818121FBD19191922E4C397F709E459
:101FC30097F709E497F709E497F722181818E4C379
:101FD30096F608E496F608E496F608E496F6226088
:101FE30017080808C6A2E713C618C613C618C613EF
:101FF300C618C613C6D5E0E9226016080808C6C38A
:1020030013C618C613C618C613C618C613C6D5E01A
:10201300EA227009080808226016181818C6C33384
:10202300C608C633C608C633C608C633C6D5E0EAF3
:1020330022E627F60809E637F60809E637F608091F
:10204300E637F622E026F608A3E036F608A3E036E4
:10205300F608A3E036F622E026F008A3E036F008FF
:10206300A3E036F008A3E036F022C3E697F60809AA
:10207300E697F60809E697F60809E697F622C3E01D
:10208300C696F608A3E0C696F608A3E0C696F60839
:10209300A3E0C696F622C3E096F008A3E096F00804
:1020A300A3E096F008A3E096F022E056F608A3E03A
:1020B30056F608A3E056F608A3E056F622E056F0DB
:1020C30008A3E056F008A3E056F008A3E056F02278
:1020D300E647F60809E647F60809E647F60809E67B
:1020E30047F622E0F608A3E0F608A3E0F608A3E02B
:1020F300F622E6F008A3E6F008A3E6F008A3E6F06C
:1021030022E0FAA3E0FBA3E0FCA3E0FD22EAF0A3B4
:10211300EBF0A3ECF0A3EDF022CAC0E0E6F0A308D5
:10212300DAFAD0E0FA22CAC0E0E0A3C582CCC582C5
:10213300C583CDC583F0A3C582CCC582C583CDC578
:1021430083DAE6D0E0CA22C3E498F8E499F91221CD
:102153008B8026C3E49AFAE49BFBE920E7E912218A
:102163008BE498F8E499F922C3E498F8E499F91216
:10217300218BE498F8E499F9C3E49AFAE49BFB22EF
:10218300EB20E7CFE920E7E0B90010BB0008E88ABD
:10219300F084F8AAF022E4FBC8FA22EB70227B1049
:1021A300C833C8C933C9335007C39AC3DBF28006A7
:1021B3009A50012ADBEAC833F4C8C933F4C9FA22B6
:1021C30075F008E4C833C8C933C933C99AC99B50E9
:1021D30004C92AC93BD5F0ECFBC833F4C8E4C9FAF7
:1021E30022600D08C6A2E713C618C613C6D5E0F3CE
:1021F30022600C08C6C313C618C613C6D5E0F42262
:10220300700422600D18C6C333C608C633C6D5E0B2
:10221300F41822251810AF08F51840021519800884
:10222300F51840021519D2AF22C0D0251810AF08F7
:10223300F518500205198008F51850020519D2AF98
:10224300D0D0222518F58210AF08F51840021519D1
:102253008008F51840021519D2AF85198322251875
:10226300F582E43519F58322E4732518C582C0E0AD
:10227300E51934FFC583C0E0E518C3958224F8103F
:10228300AF0885831985821880088583198582188C
:10229300D2AFCEF0A3E520F0A37808E608F0A3DEE2
:1022A300FAEFF0A3E58124FAF8E608F0A3E608F0D4
:1022B300A3E608F0A30808E608F0A3E608F0A315D0
:1022C300811581D0E0FED0E0F8158115811581E8F4
:1022D300C0E0EEC0E0222518C582C0E0E51934FF56
:1022E300C583C0E0E518C3958224F910AF08858340
:1022F300198582188008858319858218D2AFCEF09C
:10230300A3E520F0A37808E608F0A3DEFAEFF0A334
:10231300E58124FBF8E608F0A3E608F0A30808E645
:1023230008F0A3E608F0A315811581D0E0FED0E004
:10233300F815811581E8C0E0EEC0E0228519838598
:102343001882E0A3FEE0A3F5207808E0A3F608DFF7
:10235300FAE0A3FFE0A3C0E0E0A3C0E0E0A3C0E095
:10236300E0A3C0E0E0A3C0E010AF08858218858336
:10237300198008858218858319D2AFD083D0820251
:102383000122851983851882E0A3FEE0A3F5207856
:1023930008E0A3F608DFFAE0A3FFE0A3C0E0E0A3B0
:1023A300C0E0E0A3C0E0E0A3C0E010AF088582185E
:1023B3008583198008858218858319D2AFD083D08D
:1023C3008222C0D02518C582C0E0E51934FFC58339
:1023D300C0E0E518C3958224F310AF0885831985FF
:1023E30082188008858319858218D2AFC8F0A3E9C3
:1023F300F0A3EAF0A3EBF0A37908E709F0A3D8FA76
:10240300ECF0A3EDF0A3EEF0A3EFF0A3D0E0F0A384
:10241300D0E0F0A3D0E0F0A3E520F0A3E5F0F0A333
:1024230022851983851882E0C0E0A3E0F9A3E0FACE
:10243300A3E0FBA37808E0F608A3DFFAE0FCA3E03F
:10244300FDA3E0FEA3E0FFA3E0C0E0A3E0C0E0A3A0
:10245300E0F5D0A3E0F520A3E0A3F5F010AF0885E5
:1024630083198582188008858319858218D2AFD095
:1024730082D083D0E0F8D0E0327404800674028006
:10248300027401C0E0F404122246D0E012211C229F
:102493007404800474028000CCC0E0EDC0E0E51851
:1024A300C39CCCAD1950011D10AF068C188D19803B
:1024B300068C188D19D2AF122129D0E0FDD0E0FC93
:1024C30022D083D082E9C0E0E493A3C386F0C5F0B1
:1024D30095F0F908E493A386F0C5F095F0700BE44A
:1024E30093A3C3994005E9048002A3E475F002A411
:1024F3002582F582E5F03583F583D0E0F9E493A3F3
:10250300C0E0E493C0E022D083D082ECC0E0EDC011
:10251300E0E493A3FCE493A3FDED4C600D12255678
:10252300EC24FFFCED34FFFD80EFE493A3FCE49384
:10253300A3FDED4C600D122595EC24FFFCED34FF5B
:10254300FD80EFD0E0FDD0E0FCE493A3C0E0E49392
:10255300C0E022C0E0C3E493960874019396184048
:102563000FE493667008087401936618700070197D
:10257300A3A3C3E49396087401939618A3A3400DF1
:10258300D0E0D0E0D0E0022546A3A3A3A3A3A3D029
:10259300E022C0E0C0F088F0E4936670080874019C
:1025A3009366187000A8F0A3A3700BD0F0D0E0D00E
:1025B300E0D0E0022546A3A3D0F0D0E022C0E0742F
:1025C300F21223C5A2AFE433FED2AFE589A2E150F4
:1025D3000312099F758900C2C5EEA2E092AF7F0185
:1025E300022424C0E0C0D0E8C0E0A2AFE433F8D2B4
:1025F300AFC2C7A2E092AFD0E0F8D0D0D0E032743F
:10260300F51222D9EAFEEBFFEE2434F8EF3400F999
:1026130088088909EE2435F582EF3400F583E0F864
:10262300EE2437F582EF3400F583E0F50AEC850AF2
:10263300F0A4FCAAF0850AF0EDA42AFDE82CF8E446
:102643003DF97A257B0012218BEA8508828509836F
:10265300F05407F87401B800028004C333D8FCC0F7
:10266300E0E0131313541FF8EE28F8EF3400F9E8F1
:10267300245DF582E93400F583D0E0F8E058600882
:10268300EE2434F582EF801EEE2436F582EF34001B
:10269300F583E0F5F0EA84A8F0EE28F8EF3400F9CA
:1026A300E82438F582E93400F583E0F97F04022356
:1026B3008574F51222D9EAFEEBFFEE2434F582EF9E
:1026C3003400F583E0C0E0EE2435F582EF3400F505
:1026D30083D0E0F08E828F83A3A3A3A3A3A3A3C07D
:1026E30082C0838E828F83A3A3A3A3A3E0F8A3E076
:1026F300F9D083D082E0C398F508A3E099F509EEF9
:102703002480F582EF3400F583E064017069EE24E0
:1027130081F582EF3400F583E0F8A3E0F98E828F30
:1027230083A3A3A3A3A3A3A3E0FCA3E0FD8E828FB3
:1027330083A3A3A3A3A3E0FAA3E0FBC3EA9CEB9DBB
:102743005027C3EC98ED99402EC3EA98EB99502794
:102753007C517D07EEFAEFFB12127BEE2480F582AB
:10276300EF3400F583E4F0800EC3EA98EB9940E080
:10277300C3EC98ED9950D9EE2434F8EF3400F9E81E
:10278300FCE9FDEE2435F582EF3400F583E0F8EE45
:102793002437F582EF3400F583E0F50AE508850A6E
:1027A300F0A4F508AAF0850AF0E509A42AF509E8DA
:1027B3002508F8E43509F97A257B0012218BEA8C88
:1027C300828D83F05407F87401B800028004C33388
:1027D300D8FCC0E0E0131313541FF8EE28F8EF34CD
:1027E30000F9E8245DF582E93400F583D0E0F8E0F0
:1027F300586008EE2434F582EF801EEE2436F5820D
:10280300EF3400F583E0F5F0EA84A8F0EE28F8EF62
:102813003400F9E82438F582E93400F583E0F9124D
:102823002DCC0226AFC082C083851882851983E030
:10283300F8A3E0F9C3EA9CEB9D5012C3EC98ED9921
:102843004019C3EA98EB99501279018010C3EA98B2
:10285300EB9940F5C3EC98ED9950EE7900D083D015
:102863008222EAC39CFAEB9DFB22000000852187AC
:102873008522C622C0E0C0D0E8C0E0E9C0E0EAC0DB
:10288300E0EBC0E0ECC0E0EDC0E0C008C009C00A66
:10289300C00BC082C083C0F0759B00906182E0A230
:1028A300E64003022955E591A2E640030229557546
:1028B30091BF900616E0640570081213A71213B3B4
:1028C30080031213AD752100121407E9900617F067
:1028D30079001213FB1211EB7A017B00900615E0CD
:1028E300F91205B5907803E06442600302299E90D3
:1028F30007B3E014F0600302299EC2AF122902005D
:10290300782AD0E0F618D0E0F6E59F5407F9700571
:10291300909056800390905A78081220E6E9C4C03C
:10292300E07829E65508F50808E65509F509740B1A
:1029330078081221F4D0E02508F8906270E0A2E74D
:1029430040F8E8C333906272F0906270E0D2E0F036
:102953008049E0A2E55024E591A2E5501E7591DF80
:10296300900616E0640D7013900638E004F06428B6
:102973007002E4F07A00E0F9121479906181E0A228
:10298300E35009E5E9A2E3500375E9F7A3E0A2E701
:102993005009E591A2E7500375917FD0F0D083D021
:1029A30082D00BD00AD009D008D0E0FDD0E0FCD013
:1029B300E0FBD0E0FAD0E0F9D0E0F8D0D0D0E032BC
:1029C300C0E0C0D0C082C083906183E0A2E0500920
:1029D300E5BFA2E0500375BFFEE0A2E15009E5BFE9
:1029E300A2E1500375BFFDE0A2E25009E5BFA2E2F8
:1029F300500375BFFBE0A2E35009E5BFA2E3500318
:102A030075BFF7E0A2E45009E5BFA2E4500375BF28
:102A1300EFE0A2E55009E5BFA2E5500375BFDFE093
:102A2300A2E65009E5BFA2E6500375BFBFD083D02D
:102A3300828088C0E0C0D0E8C0E0E9C0E0EAC0E03E
:102A4300EBC0E0ECC0E0EDC0E0C0F0E5A7A2E650CB
:102A53000FE5A1A2E6500953A7BF75A1BF122A9B98
:102A6300E5A7A2E5500CE5A1A2E5500653A7DF7543
:102A7300A1DFE5A7A2E15009E5A1A2E1500375A1F9
:102A8300FDE5A7A2E2500CE5A1A2E2500653A7FB85
:102A930075A1FBD0F00229AC74F81222D97521017B
:102AA300900616E0640670151213478A828B83A37F
:102AB300A3A3A3A3A3E0FAA3E0FB121395A2AFE49D
:102AC30033FED2AF90061CE0640170187A207B00BD
:102AD300900615E0F912063F7A207B00900615E078
:102AE300F91205BB906182E0D2E6F09007B2E06094
:102AF3002185C622801690061BE064017008E5C696
:102B030054F84405F5C653BEFC12287074016521C0
:102B130060E4EEA2E092AF7F01022385008E238F53
:102B230024858228858327851882851983E0CEA38F
:102B3300E0CF852882852783EBC9EAC8EDCBECCAB1
:102B430075F010C3E833C8E933C9EA33CAEB33CBB2
:102B5300C3EA9EF526EB9FF525B35004AB25AA26C1
:102B6300EC33CCED33CDD5F0DAAE23AF242274F1C0
:102B73001222D98A088B098C0A8D0B740F122261D9
:102B8300780C1220E690901E78081220AD90901ECB
:102B9300780C1220AD7808790C1216DF50157808DE
:102BA300790C12206D908F9A78081216FF401579D0
:102BB300018013780C790812206D908F9A780C128B
:102BC30016FF40EB79007F0802238574ED1222D9AA
:102BD3008A088B098C0A8D0B7413122261780C12EC
:102BE30020E690901E78081220AD90901E780C126B
:102BF30020AD780C79081216DF40117808790C1291
:102C0300206DAA08AB09AC0AAD0B802275100075C4
:102C130011007512007513017810790C12206D786C
:102C2300107908122034AA10AB11AC12AD137F0C2B
:102C330002238590901E78081220E68A828B83787F
:102C4300081220C07F0402238574F51222D98C82D6
:102C53008D8378081220E68A828B83780812209964
:102C6300EA2404F8EB3400F98C828D83A3A3A3A395
:102C7300E0FCA3E0FD88828983C3E09CF0A3E09D90
:102C8300F088828983C3E09420A3E0944E4022908D
:102C9300904E78081220E68A828B83780812205A95
:102CA3008A828B83A3A3A3A3E02420F0A3E0344E62
:102CB300F0808074F51222D9E9FE900768E0FAA348
:102CC300E0FBEEC333F8E433F9749F28F582748E86
:102CD30039F583E02AF508A3E03BF50978081224C7
:102CE30080909062122104122B20740212222C8AEB
:102CF300088B098C0A8D0B74107808121FFCAA0824
:102D0300AB097F0402238574F11222D98A0C8B0D3F
:102D13008C0E8D0F740F122261E0FAA3E0FB741185
:102D2300122261E0F508A3E0F5097413122261E0B1
:102D3300FEA3E0FF7808122480EA2401F508EB34AF
:102D430000F509E4F50AF50B780C7908121E769064
:102D5300906E78081220E6780C7908121E76AA0C79
:102D6300AB0DAC0EAD0F122B20740212222C8B096B
:102D7300EA450960047A0180027A00EC2AFCED340A
:102D830000FDECF8EDF97A717B0212218B8808893A
:102D930009E4F50AF50B8E828F8378081220F5EC8F
:102DA300F8EDF97A717B0212218B8A088B0974057D
:102DB30078081222038E828F83A3A3A3A3E508F0CE
:102DC300A3E509F07F08022385C082C083E99060F0
:072DD30000F0D083D0822242
:102DDC00FFFFFFFFFFFFFFFF02012202012274F63B
:102DEC0012226D74FF122216EAFEEBFF900AE6E047
:102DFC0070077AFF7BFF022EBC8E088F09780812B1
:102E0C00250A00000400FA00242EF4012F2EE803FA
:102E1C003A2ED007452E502E8518828519837400C2
:102E2C00F080278518828519837408F0801C85181A
:102E3C00828519837410F08011851882851983742A
:102E4C0018F080067AFF7BFF8066900AE4E0F88534
:102E5C001882851983E0131313541F6870067A00C7
:102E6C007B00804C851882851983AC82AD837B01F5
:102E7C00900AE0E0F8A3E0F5838882A3A3A3A3A3C0
:102E8C00A3E0FA900AE2E0F8A3E0F5838882E0F987
:102E9C0012081FE960067AFF7BFF80148518828573
:102EAC001983E0131313541F900AE4F07A007B008B
:102EBC00740112222C7F0202233F74F712226D74CC
:102ECC00FF122216E9FE900AE6E070077AFF7BFFFC
:102EDC00022F8BEE24FE600E24FE601524FC601C79
:102EEC0024F86023802C8518828519837400F08067
:102EFC00278518828519837408F0801C85188285B3
:102F0C0019837410F080118518828519837418F058
:102F1C0080067AFF7BFF8067900AE5E0F8851882CF
:102F2C00851983E0131313541F6870067A007B0015
:102F3C00804D851882851983AC82AD837B01900A04
:102F4C00E0E0F8A3E0F5838882A3A3A3A3A3A3A343
:102F5C00E0FA900AE2E0F8A3E0F5838882E0F91247
:102F6C00081FE960067AFF7BFF801485188285199B
:102F7C0083E0131313541F900AE5F07A007B00745E
:102F8C000112222C7F0102233F74F712226D74FF71
:102F9C00122216EAFEEBFF900AE6E070077AFF7B3E
:102FAC00FF023075C3EE94BCEF9400400B85188281
:102FBC008519837401F08059C3EE9462EF9400403C
:102FCC000B8518828519837402F08045C3EE942A10
:102FDC00EF9400400B8518828519837403F08031BF
:102FEC00C3EE9414EF9400400B85188285198374FA
:102FFC0004F0801DC3EE940AEF9400400B851882F8
:10300C008519837405F080098518828519837406E7
:10301C00F0900AE7E0F8851882851983E06870065D
:10302C007A007B008043851882851983AC82AD833E
:10303C007B01900AE0E0F8A3E0F5838882A3A3E08B
:10304C00FA900AE2E0F8A3E0F5838882E0F912082E
:10305C001FE960067AFF7BFF800F85188285198334
:10306C00E0900AE7F07A007B00740112222C7F01B9
:10307C0002233F74F712226D74FF122216E9FE90A0
:10308C000AFCE06E70067A007B008077EE600B85A0
:10309C0018828519837430F080098518828519830C
:1030AC007400F0900AEDE0600A851882851983E0BF
:1030BC00D2E1F0900AFBE0600A851882851983E062
:1030CC00D2E7F0851882851983AC82AD837B0190A1
:1030DC000AE0E02414F8A3E03400F988828983E044
:1030EC00FA900AE2E0F8A3E0F5838882E0F912088E
:1030FC001FE960067AFF7BFF8009EE900AFCF07AEC
:10310C00007B00740112222C7F0102233F74F71202
:10311C00226D74FF122216E9FE900AFDE0605CEE4F
:10312C00600B8518828519837402F08009851882DA
:10313C008519837400F0851882851983AC82AD8360
:10314C007B01900AE0E0240FF8A3E03400F98882B8
:10315C008983E0FA900AE2E0F8A3E0F5838882E044
:10316C00F912081FE960077AFF7BFF0231FF85180F
:10317C0082851983E0900AECF08074900AE6E07086
:10318C00067AFF7BFF806CEE600C900AECE0600628
:10319C007A007B00805DEE600B8518828519837444
:1031AC0001F080098518828519837400F0851882D6
:1031BC00851983AC82AD837B01900AE0E0240FF883
:1031CC00A3E03400F988828983E0FA900AE2E0F8FF
:1031DC00A3E0F5838882E0F912081FE960067AFF04
:1031EC007BFF800F851882851983E0900AECF07ABA
:1031FC00007B00740112222C7F0102233FC082C08D
:10320C008374FF122216900AE6E070077AFF7BFFA8
:10321C000235318518828519837400F085188285F2
:10322C001983AC82AD837B01900AE0E0240FF8A3F4
:10323C00E03400F988828983E0FA900AE2E0F8A38E
:10324C00E0F5838882E0F912081FE960077AFF7BBA
:10325C00FF023531851882851983AC82AD837B01E1
:10326C00900AE0E0F8A3E0F5838882A3A3A3A3A3CC
:10327C00E0FA900AE2E0F8A3E0F5838882E0F91224
:10328C00081FE960077AFF7BFF02353185188285BC
:10329C001983AC82AD837B01900AE0E0F8A3E0F5E2
:1032AC00838882A3A3A3A3E0FA900AE2E0F8A3E048
:1032BC00F5838882E0F912081FE960077AFF7BFF2B
:1032CC00023531900AFDE0700302340985188285BD
:1032DC001983740CF0851882851983AC82AD837BBD
:1032EC0001900AE0E0F8A3E0F5838882A3A3A3A3EE
:1032FC00E0FA900AE2E0F8A3E0F5838882E0F912A4
:10330C00081FE960077AFF7BFF023531908FB612F8
:10331C00210412081985188285198374C0F0900A4B
:10332C00E6E0A2E0500A851882851983E0D2E5F028
:10333C00851882851983AC82AD837B01900AE0E00D
:10334C00F8A3E0F5838882A3A3A3A3E0FA900AE292
:10335C00E0F8A3E0F5838882E0F912081FE9600722
:10336C007AFF7BFF023531900AECE0600B85188206
:10337C008519837402F0800985188285198374007D
:10338C00F0851882851983AC82AD837B01900AE0AD
:10339C00E0240FF8A3E03400F988828983E0FA90E6
:1033AC000AE2E0F8A3E0F5838882E0F912081FE94D
:1033BC0060077AFF7BFF023531851882851983748B
:1033CC0000F0851882851983AC82AD837B01900A4D
:1033DC00E0E0F8A3E0F5838882A3A3A3A3A3E0FA1B
:1033EC00900AE2E0F8A3E0F5838882E0F912081F66
:1033FC00E9700302352D7AFF7BFF02353185188287
:10340C008519837404F0851882851983AC82AD8389
:10341C007B01900AE0E0F8A3E0F5838882A3A3A3E4
:10342C00A3E0FA900AE2E0F8A3E0F5838882E0F9E1
:10343C0012081FE960077AFF7BFF023531900AED15
:10344C00E07008900AE6E0A2E0400B85188285192E
:10345C00837440F080098518828519837460F08527
:10346C001882851983AC82AD837B01900AE0E0F869
:10347C00A3E0F5838882A3A3A3A3E0FA900AE2E079
:10348C00F8A3E0F5838882E0F912081FE960077A57
:10349C00FF7BFF023531908FB61221041208199070
:1034AC000AECE0600B8518828519837401F08009A1
:1034BC008518828519837400F0851882851983AC70
:1034CC0082AD837B01900AE0E0240FF8A3E0340086
:1034DC00F988828983E0FA900AE2E0F8A3E0F583A8
:1034EC008882E0F912081FE960067AFF7BFF8035BD
:1034FC007CEB7D0A7B01900AE0E0F8A3E0F5838881
:10350C0082A3A3A3A3A3E0FA900AE2E0F8A3E0F558
:10351C00838882E0F912081FE960067AFF7BFF803E
:10352C00047A007B00740112222CD083D082020119
:10353C002274F412226D89087E007F00C3E5089284
:10354C00E0F508900AFDE060067A007B008065904B
:10355C000AE6E070067AFF7BFF8059900AEBE0F5F3
:10356C0009900AE6E05508900AEBF0900AEBE0654A
:10357C000860067EFF7FFF80047E007F00E50870F8
:10358C0006900AEFE0600779011207358005790093
:10359C00120735E508601912073B8A0A8B0BE50AFE
:1035AC00450B600CE509900AEBF07AFF7BFF800479
:1035BC00EEFAEFFB7F0402233F74F712226D74FEC8
:1035CC00122216E9FEEEC3942940077AFF7BFF0214
:1035DC003706EE705B790012072F851882851983E8
:1035EC007400F074011222617407F0851882851939
:1035FC0083AC82AD837B02900AE0E02412F8A3E056
:10360C003400F988828983E0FA900AE2E0F8A3E0BA
:10361C00F5838882E0F912081FE960077AFF7BFFC7
:10362C00023706900AEF7400F07A007B000237062E
:10363C00790112072F8518828519837420F0740183
:10364C006E701174011222617400F07A057B001205
:10365C000729803DEEC39406501174011222617447
:10366C0001F07A057B001207298026EEC3941550D1
:10367C001174011222617402F07A0A7B001207297C
:10368C00800F74011222617403F07A147B0012070C
:10369C00297401122261E0C4333354C04407C0E0E2
:1036AC007401122261D0E0F0851882851983AC82F6
:1036BC00AD837B02900AE0E02412F8A3E03400F919
:1036CC0088828983E0FA900AE2E0F8A3E0F5838827
:1036DC0082E0F912081FE960067AFF7BFF801B90DD
:1036EC000AE67408F0900AE87400F0900AEF74018E
:1036FC00F079001207417A007B00740212222C7FB1
:10370C000102233F74F712226D74FF122216EAFE97
:10371C00EBFF900AE6E070077AFF7BFF0237F5902B
:10372C000AFDE060077AFF7BFF0237F5900AEFE0B5
:10373C00601EEE4F6015C3EE9429EF9400500CEE12
:10374C00F91207477A007B000237F5790012074718
:10375C00C3EE9404EF940050067E047F00800DC3EA
:10376C00EE94E9EF940340047EE87F0378E8790354
:10377C00EEFAEFFB12218BE824FF85188285198362
:10378C00F0851882851983AC82AD837B01900AE0A9
:10379C00E0F8A3E0F5838882A3E0FA900AE2E0F86F
:1037AC00A3E0F5838882E0F912081FE960067AFF2E
:1037BC007BFF803578E87903851882851983E0FAD8
:1037CC007B002401FAEB3400FB122183900AE9E818
:1037DC00F0A3E9F0900AE9E0FAA3E0FBC313FBEADB
:1037EC0013FA1207297A007B00740112222C7F0134
:1037FC0002233F74F712226D74FF122216E9FE9019
:10380C000AEDE06E70077A007B00023A02EE70035C
:10381C00023904851882851983AC82AD837B0190B3
:10382C000AE0E0F8A3E0F5838882A3A3A3A3E0FA5F
:10383C00900AE2E0F8A3E0F5838882E0F91208250B
:10384C00E960077AFF7BFF023A02851882851983AB
:10385C00E0C2E5F0851882851983AC82AD837B01CB
:10386C00900AE0E0F8A3E0F5838882A3A3A3A3E089
:10387C00FA900AE2E0F8A3E0F5838882E0F91208F6
:10388C001FE960077AFF7BFF023A02908FBA122180
:10389C00041208198518828519837402F0900AFBAA
:1038AC00E0600A851882851983E0D2E7F0900AFC63
:1038BC00E0600A851882851983E04430F08518820F
:1038CC00851983AC82AD837B01900AE0E02414F867
:1038DC00A3E03400F988828983E0FA900AE2E0F8E8
:1038EC00A3E0F5838882E0F912081FE9700302391E
:1038FC00F97AFF7BFF023A02851882851983AC8224
:10390C00AD837B01900AE0E0F8A3E0F5838882A305
:10391C00A3A3A3E0FA900AE2E0F8A3E0F58388827F
:10392C00E0F9120825E960077AFF7BFF023A029062
:10393C000AE6E0A2E0500C851882851983E0D2E5F6
:10394C00F0800A851882851983E0C2E5F08518821B
:10395C00851983AC82AD837B01900AE0E0F8A3E08B
:10396C00F5838882A3A3A3A3E0FA900AE2E0F8A36C
:10397C00E0F5838882E0F912081FE960067AFF7B84
:10398C00FF8073908FBA122104120819900AFBE081
:10399C00600B8518828519837480F08009851882E4
:1039AC008519837400F0900AFCE0600A8518828502
:1039BC001983E04430F0851882851983AC82AD837D
:1039CC007B01900AE0E02414F8A3E03400F988822B
:1039DC008983E0FA900AE2E0F8A3E0F5838882E0BC
:1039EC00F912081FE960067AFF7BFF8009EE900A46
:1039FC00EDF07A007B00740112222C7F0102233F30
:103A0C0074F712226D74FF122216E9FE74705E6058
:103A1C000B8518828519837401F08017EE600B8575
:103A2C0018828519837400F08009851882851983A2
:103A3C007440F0851882851983AC82AD837B01902C
:103A4C000AE0E02412F8A3E03400F988828983E0CC
:103A5C00FA900AE2E0F8A3E0F5838882E0F9120814
:103A6C001FE9600D900AE67400F07AFF7BFF023BC1
:103A7C0031851882851983E054BF900AE8F08518C7
:103A8C00828519837400F0EEA2E6400A85188285BF
:103A9C001983E0D2E2F0EEA2E5400A85188285197E
:103AAC0083E0D2E1F0EEA2E4400A85188285198306
:103ABC00E0D2E0F0EEA2E3400A851882851983E09B
:103ACC004438F0851882851983AC82AD837B0190D4
:103ADC000AE0E02413F8A3E03400F988828983E03B
:103AEC00FA900AE2E0F8A3E0F5838882E0F9120884
:103AFC001FE9600C900AE67400F07AFF7BFF8025CA
:103B0C00EE600A74086E6005790012072FEE900AB9
:103B1C00E6F0900AEF7400F0908FB61221041208B0
:103B2C00197A007B00740112222C7F0102233F744E
:103B3C00F712226D74FF122216E9FE900AFDE06E58
:103B4C0070077A007B00023BEEEE605A900AFEE0B2
:103B5C0070077AFF7BFF023BEE7900120735790084
:103B6C00120753900AFFE0FAA3E0FB12074D8518E9
:103B7C00828519837400F0851882851983AC82AD17
:103B8C00837B017A23900AE2E0F8A3E0F583888234
:103B9C00E0F912081FE9900AFD7401F0790112078F
:103BAC003512073B80387900120735900AEBE08517
:103BBC001882851983F0851882851983AC82AD83B0
:103BCC007B017A23900AE2E0F8A3E0F5838882E097
:103BDC00F912081FE9900AFD7400F012073B7A00F5
:103BEC007B00740112222C7F0102233FC082C08310
:103BFC00EAF8EBF9900AE4E0600B14601514601F0E
:103C0C0014602980348882898374FAF0A37400F0DC
:103C1C0080328882898374F4F0A37401F080258843
:103C2C0082898374E8F0A37403F0801888828983F6
:103C3C0074D0F0A37407F0800B888289837400F031
:103C4C00A37400F07A007B00D083D082020122C0E2
:103C5C0082C083EAF8EBF9900AE5E0600B1460117E
:103C6C0014601714601D8024888289837402F0808C
:103C7C0021888289837404F080188882898374086F
:103C8C00F0800F888289837410F080067AFF7BFFA6
:103C9C008016900AEEE0600C88828983E0C333883A
:103CAC00828983F07A007B00D083D082020122C00B
:103CBC0082C083EAF8EBF9900AE7E0146011146013
:103CCC001B14602514602F146039146043804E88D7
:103CDC0082898374BCF0A37400F0804C8882898341
:103CEC007462F0A37400F0803F88828983742AF098
:103CFC00A37400F08032888289837414F0A374005A
:103D0C00F0802588828983740AF0A37400F08018EF
:103D1C00888289837405F0A37400F0800B888289F3
:103D2C00837400F0A37400F07A007B00D083D082FF
:103D3C00020122C082C083EAF8EBF9900AFDE06030
:103D4C00067AFF7BFF8015900AE9E0FAA3E0FB8876
:103D5C00828983EAF0A3EBF07A007B00D083D082D7
:103D6C00020122C082C083EAF8EBF9900AEBE088EA
:103D7C00828983F07A007B00D083D0820201227486
:103D8C00E912226D74E81222168A088B09ECFEEDFA
:103D9C00FF89168518828519837401F0740112222B
:103DAC00617400F0851882851983AC82AD837B0227
:103DBC00900AE0E02412F8A3E03400F988828983A9
:103DCC00E0FA900AE2E0F8A3E0F5838882E0F912C9
:103DDC00081FE960077AFF7BFF0246E0908FBE1256
:103DEC0021041208198518828519837400F085182E
:103DFC0082851983AC82AD837B01900AE0E0240FAD
:103E0C00F8A3E03400F988828983E0FA900AE2E0B2
:103E1C00F8A3E0F5838882E0F912081FE960077ABD
:103E2C00FF7BFF0246E0851882851983AC82AD8347
:103E3C007B01900AE0E0F8A3E0F5838882A3A3A3BA
:103E4C00A3A3E0FA900AE2E0F8A3E0F5838882E00D
:103E5C00F912081FE960077AFF7BFF0246E085181C
:103E6C0082851983AC82AD837B01900AE0E0241239
:103E7C00F8A3E03400F988828983E0FA900AE2E042
:103E8C00F8A3E0F5838882E0F912081FE960077A4D
:103E9C00FF7BFF0246E0851882851983AC82AD83D7
:103EAC007B01900AE0E02417F8A3E03400F9888243
:103EBC008983E0FA900AE2E0F8A3E0F5838882E0D7
:103ECC00F912081FE960077AFF7BFF0246E08518AC
:103EDC0082851983AC82AD837B01900AE0E0F8A364
:103EEC00E0F5838882A3A3A3A3E0FA900AE2E0F8AA
:103EFC00A3E0F5838882E0F912081FE960077AFFD6
:103F0C007BFF0246E0851882851983740CF08518B6
:103F1C0082851983AC82AD837B01900AE0E0F8A323
:103F2C00E0F5838882A3A3A3A3E0FA900AE2E0F869
:103F3C00A3E0F5838882E0F912081FE960077AFF95
:103F4C007BFF0246E0908FC2122104120819900BDD
:103F5C0001E0F8A3E0F5838882A3A3A3A3A3A3A302
:103F6C00A3A3E0851882851983F0851882851983AF
:103F7C00AC82AD837B01900AE0E0F8A3E0F5838886
:103F8C0082A3A3E0FA900AE2E0F8A3E0F58388822A
:103F9C00E0F912081FE960077AFF7BFF0246E09008
:103FAC000B01E0F8A3E0F5838882A3A3A3A3A3A34A
:103FBC00A3A3E0851882851983F08518828519835F
:103FCC00AC82AD837B01900AE0E0F8A3E0F5838836
:103FDC0082A3E0FA900AE2E0F8A3E0F5838882E09D
:103FEC00F912081FE960077AFF7BFF0246E0E5162D
:103FFC006021900B01E0F8A3E0F5838882A3A3A3D2
:10400C00A3A3A3A3A3A3A3E044E0851882851983EB
:10401C00F0801D900B01E0F8A3E0F5838882A3A348
:10402C00A3A3A3A3A3A3A3A3E0851882851983F05C
:10403C00851882851983AC82AD837B01900AE0E000
:10404C00F8A3E0F5838882A3A3A3A3A3A3E0FA902B
:10405C000AE2E0F8A3E0F5838882E0F912081FE990
:10406C0060077AFF7BFF0246E0E516601C900B01AF
:10407C00E0240BF8A3E03400F988828983E044E063
:10408C00851882851983F0800B908C31E08518821D
:10409C00851983F0851882851983AC82AD837B01E9
:1040AC00900AE0E0F8A3E0F5838882A3A3A3A3A37E
:1040BC00A3A3E0FA900AE2E0F8A3E0F5838882E09B
:1040CC00F912081FE960077AFF7BFF0246E0E5164C
:1040DC006009908FBE122104120819851882851967
:1040EC00837440F0851882851983AC82AD837B0183
:1040FC00900AE0E0F8A3E0F5838882A3A3A3A3E0F1
:10410C00FA900AE2E0F8A3E0F5838882E0F912085D
:10411C001FE960077AFF7BFF0246E085188285194C
:10412C00837478F0851882851983AC82AD837B010A
:10413C00900AE0E0F8A3E0F5838882A3A3A3A3A3ED
:10414C00E0FA900AE2E0F8A3E0F5838882E0F91245
:10415C00081FE960077AFF7BFF0246E0908C32E093
:10416C00F50CA3E0F50DAA0CAB0DE4FCFD1208193F
:10417C008518828519837400F0851882851983ACA3
:10418C0082AD837B01900AE0E0F8A3E0F58388829E
:10419C00A3A3A3A3A3E0FA900AE2E0F8A3E0F583BB
:1041AC008882E0F912081FE960077AFF7BFF02465C
:1041BC00E0851882851983AC82AD837B02900AE07E
:1041CC00E0F8A3E0F5838882A3A3A3A3A3A3A3A3EE
:1041DC00A3A3E0FA900AE2E0F8A3E0F5838882E07A
:1041EC00F9120825E960077AFF7BFF0246E0851883
:1041FC0082851983E0F87900E4C8F9740112226110
:10420C00E0FA7B00E84AF8E94BF988148915A81400
:10421C00A9157A0C7B0012218BE8F50A908F967801
:10422C000C1220E6850882850983A3A3A3A3A3A36C
:10423C00A3A3780C1220F5850882850983A3A3A378
:10424C00A3780C1220F5850882850983780C12203E
:10425C00F5908F96780C1220E68E828F83A3A3A301
:10426C00A3A3A3A3A3780C1220F58E828F83A3A300
:10427C00A3A3780C1220F58E828F83780C1220F574
:10428C00750B00E50BC3950A400302448785188221
:10429C00851983AC82AD837B0C900AE0E0240BF88B
:1042AC00A3E03400F988828983E0FA900AE2E0F80E
:1042BC00A3E0F5838882E0F9120825E960077AFF0C
:1042CC007BFF0246E0851882851983E0F87900E4CB
:1042DC00C8F97401122261E0FA7B00E84AF8E94B54
:1042EC00F97412122261E8F0A3E9F074021222614F
:1042FC00E0F87900E4C8F97403122261E0FA7B005B
:10430C00E84AF8E94BF97414122261E8F0A3E9F0D9
:10431C007404122261E0F87900E4C8F974051222E1
:10432C0061E0FA7B00E84AF8E94BF9741612226155
:10433C00E8F0A3E9F07412122261E0F50CA3E0F5A9
:10434C000DE50D3395E0F50EF50F8E828F83780C0D
:10435C0012205A7414122261E0F50CA3E0F50DE55D
:10436C000D3395E0F50EF50F8E828F83A3A3A3A3D7
:10437C00780C12205A7416122261E0F50CA3E0F5A9
:10438C000DE50D3395E0F50EF50F8E828F83A3A30B
:10439C00A3A3A3A3A3A3780C12205A740612226120
:1043AC00E0F87900E4C8F97407122261E0FA7B00A6
:1043BC00E84AF8E94BF9740C122261E8F0A3E9F031
:1043CC007408122261E0F87900E4C8F97409122229
:1043DC0061E0FA7B00E84AF8E94BF9740E122261AD
:1043EC00E8F0A3E9F0740A122261E0F87900E4C85D
:1043FC00F9740B122261E0FA7B00E84AF8E94BF9F8
:10440C007410122261E8F0A3E9F0740C122261E03E
:10441C00F50CA3E0F50DE50D3395E0F50EF50F85E4
:10442C000882850983780C12205A740E122261E0DE
:10443C00F50CA3E0F50DE50D3395E0F50EF50F85C4
:10444C000882850983A3A3A3A3780C12205A7410A5
:10445C00122261E0F50CA3E0F50DE50D3395E0F5C6
:10446C000EF50F850882850983A3A3A3A3A3A3A399
:10447C00A3780C12205A050B02428F8508828509FD
:10448C0083780C1220E67410780C122015908C2670
:10449C0078101220E6780C7910121EF6850A10E4BA
:1044AC00F511F512F513780C7910121EF6AA0CAB57
:1044BC000DAC0EAD0F850882850983E50CF0A3E5E4
:1044CC000DF0A3E50EF0A3E50FF0850882850983B6
:1044DC00A3A3A3A3780C1220E67410780C12201559
:1044EC00908C2678101220E6780C7910121EF68526
:1044FC000A10E4F511F512F513780C7910121EF66A
:10450C00AA0CAB0DAC0EAD0F850882850983A3A355
:10451C00A3A3E50CF0A3E50DF0A3E50EF0A3E50FC6
:10452C00F0850882850983A3A3A3A3A3A3A3A378DF
:10453C000C1220E67410780C122015908C26781032
:10454C001220E6780C7910121EF6850A10E4F5118B
:10455C00F512F513780C7910121EF6AA0CAB0DACF3
:10456C000EAD0F850882850983A3A3A3A3A3A3A3E0
:10457C00A3E50CF0A3E50DF0A3E50EF0A3E50FF019
:10458C008E828F83780C1220E67410780C12201512
:10459C00908C2A78101220E6780C7910121EF68571
:1045AC000A10E4F511F512F513780C7910121EF6B9
:1045BC00AA0CAB0DAC0EAD0F8E828F83E50CF0A365
:1045CC00E50DF0A3E50EF0A3E50FF08E828F83A32B
:1045DC00A3A3A3780C1220E67410780C122015906B
:1045EC008C2A78101220E6780C7910121EF6850AA7
:1045FC0010E4F511F512F513780C7910121EF6AAC9
:10460C000CAB0DAC0EAD0F8E828F83A3A3A3A3E5D1
:10461C000CF0A3E50DF0A3E50EF0A3E50FF08E82F0
:10462C008F83A3A3A3A3A3A3A3A3780C1220E67444
:10463C0010780C122015908C2A78101220E6780C29
:10464C007910121EF6850A10E4F511F512F513789F
:10465C000C7910121EF6AA0CAB0DAC0EAD0F8E829F
:10466C008F83A3A3A3A3A3A3A3A3E50CF0A3E50D9E
:10467C00F0A3E50EF0A3E50FF08E828F83A3A3A326
:10468C00A3A3A3A3A3C082C083908FC6780C1220CF
:10469C00E6D083D082780C1216A4401B908FCA7877
:1046AC000C1220E68E828F83A3A3A3A3A3A3A3A3A0
:1046BC00780C12205A8019908FCE780C1220E68E2E
:1046CC00828F83A3A3A3A3A3A3A3A3780C12205A22
:1046DC007A007B00741812222C7F0F02233F74EC9B
:1046EC0012226D74F9122216EAFEEBFF74031222E9
:1046FC0061AC82AD837B047A0D900AE2E0F8A3E012
:10470C00F5838882E0F9120825E960077A077B00B7
:10471C000248B97406122261E0C4540F5403F874B1
:10472C0003122261E0131313541F541C4885188282
:10473C00851983F07406122261E01313543F54035D
:10474C00F87404122261E0131313541F541C48C054
:10475C00E07401122261D0E0F07406122261E05480
:10476C0003F87405122261E0131313541F541C48F0
:10477C00C0E07402122261D0E0F0750800E508C3B5
:10478C00940340030248B585080A750B008518820E
:10479C00851983E582250AF582E583350BF583E0DF
:1047AC007033908F96122104E508A8087900E875FB
:1047BC00F004A4C885F00975F000A42509F5097565
:1047CC00F004E9A42509F9EE28F582EF39F58312F6
:1047DC0021100248B0908FD2122104E508A8087964
:1047EC0000E875F004A4C885F00975F000A425094B
:1047FC00F50975F004E9A42509F9EE28F582EF39DD
:10480C00F58312211085080A750B0085188285190D
:10481C0083E582250AF582E583350BF583E024FFD9
:10482C00F8E8C0E085080A750B00851882851983A5
:10483C00E582250AF582E583350BF583D0E0F0E8B7
:10484C006062E508A8087900E875F004A4C8AAF02D
:10485C0075F000A42AFA75F004E9A42AF9EE28F5FB
:10486C0082EF39F583780C1220E6908FD6781012EF
:10487C0020E6780C79101218F9E508A8087900E8F8
:10488C0075F004A4C8AAF075F000A42AFA75F00417
:10489C00E9A42AF9EE28F582EF39F583780C122079
:1048AC00F502481105080247897A007B007407124B
:1048BC00222C7F0C02233F74F712226DEAF8EBF9DD
:1048CC00900AE4E0600B14601714602314602F80CE
:1048DC003C908FDA12210488828983122110803354
:1048EC00908FDE12210488828983122110802490FB
:1048FC008FE2122104888289831221108015908FF7
:10490C00E61221048882898312211080067AFF7BAB
:10491C00FF80047A007B007F0102233FC082C083AA
:10492C00EAF8EBF9900AE5E0600B14601514601FCF
:10493C001460298034888289837400F0A37440F059
:10494C00802D88828983749CF0A3741FF08020884A
:10495C008289837400F0A37410F080138882898399
:10496C007400F0A37408F080067AFF7BFF8021901E
:10497C000AEEE0601788828983E0FAA3E0FBC31398
:10498C00FBEA13FA88828983F0A3EBF07A007B00B0
:10499C00D083D08202012274E812226D74EE1222AE
:1049AC0016851882851983EAF0A3EBF08C168D1707
:1049BC007514007515007406122261AA82AB83125D
:1049CC0007897E007F00C3EE9403EF9400A2D265AA
:1049DC00D0334003024B86EEF8EFF9E875F004A4EF
:1049EC00C8AAF075F000A42AFA75F004E9A42AF913
:1049FC00851882851983E028FAA3E0398A82F58329
:104A0C0078081220E6EEF8EFF9E875F004A4C8AACD
:104A1C00F075F000A42AFA75F004E9A42AF9E51659
:104A2C0028F582E51739F5837808122081AA08AB9E
:104A3C0009AC0AAD0B1216718A088B098C0A8D0B06
:104A4C00780812171E908FEA78101220E6780879F1
:104A5C0010121C9085080C85090D850A0E850B0F0C
:104A6C00EEF8EFF9E875F004A4C8AAF075F000A40C
:104A7C002AFA75F004E9A42AF97406122261E58277
:104A8C0028F582E58339F58378101220E6908F960D
:104A9C0078081220E6781079081218817003024BFE
:104AAC0041850C08850D09850E0A850F0BEEF8EF74
:104ABC00F9E875F004A4C8AAF075F000A42AFA75F8
:104ACC00F004E9A42AF97406122261E58228F58221
:104ADC00E58339F58378101220E678087910121CDA
:104AEC0090908FEE78101220E678087910121A79CF
:104AFC00740212226178081220F5908C49781012F9
:104B0C0020E6740212226178081220E6C50BC2E777
:104B1C00F50B781079081218AD5054750801750909
:104B2C0000EE7808122203E5084514F514E5094552
:104B3C0015F515803A908C4178081220E6780C799E
:104B4C00081218AD4011908C4578081220E67808B0
:104B5C00790C1218AD5018750801750900EE78081B
:104B6C00122203E5084514F514E5094515F515EE73
:104B7C002401FEEF3400FF0249D2AA14AB157412C3
:104B8C0012222C7F1002233F74E812226D74F31250
:104B9C0022167407122261EAF0A3EBF074051222BC
:104BAC0061ECF0A3EDF074031222617400F0A374B5
:104BBC0000F0851882851983AC82AD837B037A0D56
:104BCC00900AE2E0F8A3E0F5838882E0F912082568
:104BDC00E960077A077B00024DDE85188285198310
:104BEC00E0541FF07401122261E0541FF0740212A1
:104BFC002261E0541FF07E007F00C3EE9403EF941B
:104C0C0000A2D265D0334003024DD4EEF8EFF9E8A0
:104C1C0075F004A4C8AAF075F000A42AFA75F00483
:104C2C00E9A42AF97407122261E028FAA3E0398A70
:104C3C0082F58378101220E6EEF8EFF9E875F004AF
:104C4C00A4C8AAF075F000A42AFA75F004E9A42A05
:104C5C00F97405122261E028FAA3E0398A82F583FF
:104C6C007810122081AA10AB11AC12AD1312167170
:104C7C008A148B158C168D17781412171E908FEAC8
:104C8C0078101220E678147910121C9085140C857B
:104C9C00150D85160E85170F851882851983E582EB
:104CAC002EF582E5833FF583E07003024D8D75147C
:104CBC00007515B075164C751745908C267810122A
:104CCC0020E6781012173978147910121C9085147C
:104CDC000885150985160A85170B85188285198391
:104CEC00E5822EF582E5833FF583E024FFF8E8C0EA
:104CFC00E0851882851983E5822EF582E5833FF5E0
:104D0C0083D0E0F0E86011908FF278101220E678F2
:104D1C000879101218F980C2850C14850D15850EB2
:104D2C0016850F1778147908121C90908FEE781056
:104D3C001220E678147910121A797409122261780B
:104D4C00141220F5908C3D78141220E6740912226E
:104D5C006178101220E6C513C2E7F51378147910A8
:104D6C001218AD5058751001751100EE7810122202
:104D7C00037403122261E04510F0A3E04511F080AA
:104D8C003C908C3578101220E6780C79101218AD06
:104D9C004011908C3978101220E67810790C12188A
:104DAC00AD501A751001751100EE781012220374B3
:104DBC0003122261E04510F0A3E04511F0EE24014E
:104DCC00FEEF3400FF024C067403122261E0FAA3DA
:104DDC00E0FB740D12222C7F1002233F74EA122286
:104DEC006D74E01222168A148B158C128D13750BB0
:104DFC0002900AFDE0600A790012075F750A0180D3
:104E0C0003750A007406122261AA82AB831207652D
:104E1C007401122261AA82AB8312076B74021222F4
:104E2C0061AA82AB831207717404122261AA82AB4D
:104E3C0083120777900AE6E0F50C851882851983B2
:104E4C00AA82AB8312077D7E007F00850B10751143
:104E5C0000C3EE9510EF9511A2D265D03350217995
:104E6C0000AC12AD13AA14AB151207838A108B1168
:104E7C00E5104511600AEE2401FEEF3400FF80CBF3
:104E8C00850B10751100E5106E7003E5116F70093C
:104E9C00750800750900024F4C7E007F00850B10D1
:104EAC00751100C3EE9510EF9511A2D265D0335059
:104EBC002B79017408122261AC82AD837414122216
:104ECC0061AA82AB831207838A108B11E5104511FE
:104EDC00600AEE2401FEEF3400FF80C1850B1075D3
:104EEC001100E5106E7003E5116F70087508007500
:104EFC000900804C7408122261AC82AD83AA12ABFB
:104F0C001312079BEAF50E7414122261AC82AD8366
:104F1C00AA14AB151207A1EAF50D75080075090066
:104F2C00E50D700C74014508F50874004509F50988
:104F3C00E50E700C74024508F50874004509F50976
:104F4C00900AE474FFF0900AE574FFF0900AE7749D
:104F5C00FFF0900AE974FFF0A374FFF0900AE67476
:104F6C00FFF0900AEB74FFF0900AE87401F07406FD
:104F7C00122261E0FAA3E0FB12071D7401122261F8
:104F8C00E0F91207237402122261E0FAA3E0FB128B
:104F9C0007297404122261E0FAA3E0FB12074DA961
:104FAC000C120759851882851983E0F9120741E51F
:104FBC000A6005790112075FAA08AB097420122256
:104FCC002C7F0E02233F74F012226D74E212221613
:104FDC007406122261AC82AD837412122261AA8211
:104FEC00AB831207A78A088B09AE08AF0974036E4E
:104FFC00700374006F600302514B7402122261AA99
:10500C0082AB8312078F741212226178081220E689
:10501C00780812171E7402122261780C1220E6789E
:10502C0008790C1218F9780812179674121222616A
:10503C0078081220F5741612226178081220E6788E
:10504C000812171E7402122261780C1220E67808DE
:10505C00790C1218F97808121796741612226178C6
:10506C00081220F5741A12226178081220E67808CA
:10507C0012171E7402122261780C1220E67808793D
:10508C000C1218F97808121796741A122261780803
:10509C001220F57412122261AA82AB831206AB8520
:1050AC001882851983AA82AB831207957406122283
:1050BC0061780C1220E6851882851983E0F508A327
:1050CC00E0F509E4F50AF50B780C7908121E7674F4
:1050DC0006122261780C1220F5740A122261780CE7
:1050EC001220E6851882851983E0F508A3E0F509FE
:1050FC00E4F50AF50B780C7908121E76740A122264
:10510C0061780C1220F5740E122261780C1220E6D4
:10511C00851882851983E0F508A3E0F509E4F50A02
:10512C00F50B780C7908121E76740E122261780C2D
:10513C001220F57406122261AA82AB831206B17496
:10514C001E12222C7F0802233F74F412226D74FE6F
:10515C001222168A088B09ECFEEDFF740E122261E6
:10516C00E0F50AA3E0F50BE50A450B70077AFF7B27
:10517C00FF02524E900AE6E070077AFF7BFF025264
:10518C004EA808A909E4E509A809E509851882854E
:10519C001983E509F0E5087401122261E508F09025
:1051AC000AE2E0F8A3E0F5838882A3A3A3A3A3A358
:1051BC00A3A3C082C0837401122261E0F879002E8F
:1051CC00F8E93FF9D083D082C3E098A3E099500668
:1051DC007AFF7BFF806C851882851983AC82AD8346
:1051EC007B02900AE0E02418F8A3E03400F98882EE
:1051FC008983E0FA900AE2E0F8A3E0F5838882E084
:10520C00F912081FE960067AFF7BFF8035AC0AAD06
:10521C000BEEFB900AE0E02415F8A3E03400F988CB
:10522C00828983E0FA900AE2E0F8A3E0F5838882B1
:10523C00E0F912081FE960067AFF7BFF80047A0010
:10524C007B00740212222C7F0402233F74F412227E
:10525C006D74FE1222168A088B09ECFEEDFF740E9B
:10526C00122261E0F50AA3E0F50BE50A450B700785
:10527C007AFF7BFF025351900AE6E070077AFF7BBE
:10528C00FF025351A808A909E4E509A809E5098515
:10529C001882851983E509F0E5087401122261E58D
:1052AC0008F0900AE2E0F8A3E0F5838882A3A3A3B8
:1052BC00A3A3A3A3A3C082C0837401122261E0F84C
:1052CC0079002EF8E93FF9D083D082C3E098A3E0AF
:1052DC009950067AFF7BFF806C851882851983AC08
:1052EC0082AD837B02900AE0E02418F8A3E034003E
:1052FC00F988828983E0FA900AE2E0F8A3E0F5836A
:10530C008882E0F912081FE960067AFF7BFF80357E
:10531C00AC0AAD0BEEFB900AE0E02415F8A3E034E8
:10532C0000F988828983E0FA900AE2E0F8A3E0F5BC
:10533C00838882E0F9120825E960067AFF7BFF80FA
:10534C00047A007B00740212222C7F0402233F7427
:10535C00F212226D74FE1222168A088B098C0C8DA7
:10536C000D7410122261E0F50AA3E0F50B900AFD12
:10537C00E070077AFF7BFF0254BB900AE6E07007EF
:10538C007AFF7BFF0254BB851882851983AC82ADF2
:10539C00837B02900AE0E0F8A3E0F5838882A3A364
:1053AC00A3A3A3A3A3A3A3A3E0FA900AE2E0F8A308
:1053BC00E0F5838882E0F9120825E960077AFF7B23
:1053CC00FF0254BB851882851983E0F87900E4C884
:1053DC00F97401122261E0FA7B00E84AF8E94BF912
:1053EC00E8FEE9FFC3EE9508EF95095010850A8297
:1053FC00850B837400F07AFF7BFF0254BB900AE2AA
:10540C00E0F8A3E0F5838882A3E0F8A3E0F9C313E6
:10541C00F9E813F8C39EE99F504B851882851983D0
:10542C00AC82AD837B01900AE0E02411F8A3E03458
:10543C0000F988828983E0FA900AE2E0F8A3E0F5AB
:10544C00838882E0F9120825E960067AFF7BFF80E9
:10545C005E851882851983E0A2E4500912073B7A15
:10546C00FE7BFF804AAC0CAD0DAB08900AE0E0244B
:10547C000BF8A3E03400F988828983E0FA900AE201
:10548C00E0F8A3E0F5838882E0F9120825E96006CC
:10549C007AFF7BFF8019EEF8EFF9AA08AB0912210D
:1054AC008BE824FF850A82850B83F07A007B0074DD
:1054BC000212222C7F0602233F74EC12226D74EE32
:1054CC001222168A0A8B0B8C0C8D0D7426122261FB
:1054DC00E0FEA3E0FF7428122261E0F50EA3E0F5D4
:1054EC000F900AFEE060077AFF7BFF02564AE50C3C
:1054FC00450D70077AFF7BFF02564A750800750947
:10550C0000C3E508950AE509950B40030255E6E54D
:10551C000AC39508F8E50B9509F9C3E89411E994C9
:10552C00004008751010751100800DE50AC3950830
:10553C00F510E50B9509F511E50C2508F512E50DAF
:10554C003509F5137812122480AC10AD11AA08ABF2
:10555C00091207B3740212222C8A128B13E512451E
:10556C001360077AFF7BFF02564A74021222618590
:10557C0082128583137812122480AC10AD11AA0804
:10558C00AB091207B9740212222C8A128B13E51282
:10559C00451360077AFF7BFF02564A78101224806D
:1055AC007404122261AC82AD83E50C2508FAE50D7A
:1055BC003509FB121677740212222C8A128B13E512
:1055CC0012451360067AFE7BFF8073E5082510F503
:1055DC0008E5093511F50902550DEEF8EFF9E4E986
:1055EC00F8851882851983F0EEC0E07401122261EF
:1055FC00D0E0F0851882851983AC82AD837B029054
:10560C000AE0E0241AF8A3E03400F988828983E0E8
:10561C00FA900AE2E0F8A3E0F5838882E0F9120838
:10562C001FE960067AFF7BFF8014900AFE7401F07C
:10563C00900AFFE50EF0A3E50FF07A007B007412E0
:10564C0012222C7F0C02233FC082C083EAF8EBF9B4
:10565C0088828983E0C39401A2D265D03340067A54
:10566C00007B00807388828983E0C39400A2D2659A
:10567C00D03350067A047B00805E88828983A3E055
:10568C00C39401A2D265D03340067A017B008048D6
:10569C0088828983A3E0C39400A2D265D0335006DC
:1056AC007A057B00803288828983A3A3E0C39401AE
:1056BC00A2D265D03340067A027B00801B88828997
:1056CC0083A3A3E0C39400A2D265D03350067A061C
:1056DC007B0080047A077B00D083D0820201227485
:1056EC00F412226DEAFEEBFFEEFAEFFB1207CB8A07
:1056FC000A8B0B850A08850B09EE2403FAEF34009C
:10570C00FB1207CB8A0A8B0B7403780A122203E56F
:10571C000A4508F508E50B4509F509EE2406FAEFEC
:10572C003400FB1207CB8A0A8B0B7406780A122200
:10573C0003E50A4508F508E50B4509F509AA08AB88
:10574C00097F0402233F74F612226D74FA1222169A
:10575C00851882851983AC82AD837B01900AE0E0C9
:10576C00F8A3E0F5838882E0FA900AE2E0F8A3E07F
:10577C00F5838882E0F9120825E960057901025A5F
:10578C002E851882851983E06468601D79247A4D12
:10579C007B8C1207117901851882851983AA82AB3B
:1057AC00831207177902025A2E8518828519837481
:1057BC0080F0851882851983AC82AD837B01900AB9
:1057CC00E0E02412F8A3E03400F988828983E0FA3F
:1057DC00900AE2E0F8A3E0F5838882E0F912081F52
:1057EC00E960057903025A2E908FF61221041208F3
:1057FC00198518828519837400F0851882851983A0
:10580C00AC82AD837B01900AE0E02412F8A3E03473
:10581C0000F988828983E0FA900AE2E0F8A3E0F5C7
:10582C00838882E0F912081FE960057904025A2E78
:10583C00851882851983AC82AD837B06900AE0E0E3
:10584C002416F8A3E03400F988828983E0FA900AE0
:10585C00E2E0F8A3E0F5838882E0F9120825E9601C
:10586C00057905025A2E7401122261E0A2E0E4339C
:10587C00F97403122261E0A2E0E433C333F8740537
:10588C00122261E0A2E0E433333354FC4849FEEECB
:10589C00602974016E7009900AEE7401F00259329D
:1058AC0074026E7008900AEE7400F0807979177AA1
:1058BC00507B8D1207117906025A2E851882851994
:1058CC0083AC82AD837B01900AE0E0F8A3E0F58322
:1058DC008882A3A3A3E0FA900AE2E0F8A3E0F583A0
:1058EC008882E0F9120825E960057907025A2E85AD
:1058FC001882851983E0540FFEEE700E79107A6EC3
:10590C007B8E1207117905025A2E74046E70117970
:10591C00157A967B8D120711900AEE7401F08006B1
:10592C00900AEE7400F0900AE674FFF0900AE474AA
:10593C00FFF0900AE574FFF0900AE774FFF0900A0C
:10594C00E974FFF0A374FFF0900AEB74FFF0900A77
:10595C00ED74FFF0900AE87401F0900AFB7401F00A
:10596C00900AFC7400F0900AF07400F0900AEF7446
:10597C0000F075080A75090078081224807C007DF7
:10598C00007AF17B0A121683740212222C900AFD03
:10599C007400F0900AFE7400F0900AFF7400F0A3FB
:1059AC007400F07AD07B0712071D8A088B09E50872
:1059BC00450960047910806A79021207238A088BE2
:1059CC0009E50845096004791180577A2A7B001291
:1059DC0007298A088B09E508450960047912804279
:1059EC007A327B0012074D8A088B09E5084509605D
:1059FC00047913802D79001207418A088B09E50878
:105A0C00450960047914801A79001207538A088BAF
:105A1C0009E50845096004791580077900120759D2
:105A2C007900740612222C7F0202233F74F6122294
:105A3C006D7E011207E3E97017908FFA12210412A0
:105A4C00081979197A037B8D1207117900025B9A78
:105A5C00908FFA1221041208191207D7E979137AD8
:105A6C00127B8E12071179781207598A088B09E577
:105A7C00084509700B79137AEA7B8D12071180099E
:105A8C0079137AFE7B8D12071179781207418A08F7
:105A9C008B09E5084509700B790E7AAF7B8E1207DE
:105AAC00118009790E7ABE7B8E1207117A647B0005
:105ABC0012074D8A088B09E5084509700B79137A92
:105ACC00C27B8D120711800979137AD67B8D120750
:105ADC001112069F8A088B09E5084509700B791984
:105AEC007A1D7B8D120711800979197AE97B8C124A
:105AFC0007117AD77B0A1207D11206A58A088B09DF
:105B0C00E5084509700B791D7A927B8C1207118080
:105B1C0009791D7AB07B8C1207117A737B011206FE
:105B2C00ED8A088B09E5084509700B790D7ADB7B4A
