:020000040000FA
:0600000002010A02291EA4
:03002B0002266644
:03005300022994EB
:03006B000226402A
:1000830002280FE5C754F84401F5C779012200009F
:100093000080FB120086B900030200F4E4792178A2
:1000A30008B800028004F709D8FCE479297802B87B
:1000B30000028004F709D8FCE4900281782F7908C4
:1000C3008002F0A3D8FCD9FA9009AFAA82AB83903F
:1000D300013A782279058015E493A3AC82AD838A33
:1000E300828B83F0A3AA82AB838C828D83D8E9D9D8
:1000F300E77582E87583EA740312011C75829175B2
:100103008300740012011C75D00075813F7518813E
:10011300751902759F00020096C09FF59FE473D086
:100123009F22D083D082C09FE493C0E0740193C028
:10013300E0740293F59F22FFFF0A416363656C201D
:10014300456E61626C650000021400416363656C77
:100153002052616E67650000024D505536303530D0
:10016300204F757420506172616D65746572000073
:10017300101010416363656C20582D436F6F7264D8
:10018300696E6174650000416363656C20592D439A
:100193006F6F7264696E6174650000416363656CBF
:1001A300205A2D436F6F7264696E6174650000029B
:1001B300099D010000F29C02039D010000B10902A8
:1001C3003F9D030000A00202019D010000B209024D
:1001D300039D010000C009023D9D010000C1090209
:1001E300019D010000C30902039D010000E809020B
:1001F3003B9D000000B50202F99C030000B8020217
:10020300019D010000EB0902039D010000E90902C1
:10021300399D000000B60202F99C030000BE0202F1
:10022300019D010000FF0902039D010000EA09028C
:10023300379D000000B70202F99C030000C40202CC
:10024300019D010000130A02039D010000D0090271
:10025300359D010000A10202019D010000D109FFAB
:10026300000000FF000000016B9A649B0000000087
:10027300000000000000000000000000000000007B
:10028300000000000000000000249A110199010FF2
:100293001264040102099D010000DD9C02039D011B
:1002A3000000080B02279D010000090B02F99C03C3
:1002B3000000DD02022F9D0100000A0B0202020270
:1002C3000202020202010D000000100102099D0159
:1002D3000000CE9C02039D010000340B02219D010E
:1002E3000000E30202039D010000350B021F9D0184
:1002F30000004B9B02039D010000360B021D9D0174
:1003030000003D9B02039D010000370B021B9D0172
:100313000000C99A02039D010000380B02199D01D8
:100323000000DB9A02039D010000390B02179D01B7
:100333000000B79A02039D0100003A0B02159D01CC
:100343000000ED9A02039D0100003B0B02139D0187
:1003530000002F9B02039D0100003C0B02439D0103
:1003630000003D0B01E803053F100B094B6579665F
:100373006F6264656D6F02010507020318021804BA
:1003830018544920424C45204B6579666F62000042
:100393000000000000008D09000093099909AB09D2
:1003A300FF00013075030201060000000000000099
:1003B300000000000000000000000000000000003A
:1003C3000000000000FFFF0600800CE8030A04128F
:1003D30002099D010000EF9C02039D010000450CF2
:1003E30002F59C030000C50402099D010000EC9C7A
:1003F30002039D010000460C02F59C020000C604A6
:1004030002099D010000E99C02039D010000470CC5
:1004130002339D010000C70402F99C030000C804D5
:10042300104B657920507265737320537461746542
:100433000002099D010000E69C02039D0100009853
:100443000C02FD9C000000CE0402F99C030000CFC7
:100453000402019D010000990CFF0000B400002874
:10046300002800283075A000A000A000A00000080C
:100473000008E001F0001000100010001000100050
:10048300100050005000500010001000D007000072
:10049300000000000F000100050030750700100088
:1004A300010081FF0000FFBD0CDB0CC30CFF020247
:1004B3000208025000A0000000E80302099D0100A9
:1004C30000E39C02039D010000260D020D9D010027
:1004D30000060502039D010000270D02259D010072
:1004E300001C0502039D010000280D022B9D010045
:1004F300001E0502039D010000290D022D9D080029
:10050300001F0502039D0100002A0D02119D010039
:10051300002B0DFF0100FF2002099D010000E09C5C
:1005230002039D0100008F0D02319D0000000000B9
:1005330002F99C0300006C05F912F912F912F91281
:10054300F912F912F912F912F912F912F912F91250
:10055300F912C915E115C315120125979603120166
:1005630025A19603120125E296031201252B970379
:10057300120125659703120125BB9703120125DCA0
:100583009703120125E597031201253998031201F8
:10059300256298031201256C9803120125DA98034A
:1005A3001201256A9903120125C59903120125F346
:1005B30099031201257B9A03120125BA9A031201AA
:1005C30025EF9A03120125019B03120125209B03AA
:1005D300120125299B03120125EB9B03120125D947
:1005E300E30312012598FF01120125FED80312012E
:1005F3002534D90312012568D903120125B5DA037D
:10060300120125D2E903120125E8E903120125F2BB
:10061300E9031201255CB3031201256FB303120131
:100623002533B40312012572B4031201258FB403D9
:10063300120125C8B40312012515B503120125477C
:10064300B5031201257EB50312012591B7031201EB
:1006530025D0E403120125F3E40312012522E50367
:100663001201253AE5031201257CE5031201258CCD
:10067300AA03120125E7AA0312012504AB03120101
:10068300253EAC03120125A4AC03120125CCAD0316
:10069300120125B8AE031201252B63001201255464
:1006A30063001201257F6500120125B36700120163
:1006B300252E6A00120125CF6A00120125076D005D
:1006C300120125506D001201259B6D00120125CDED
:1006D3006D00120125FF6D00120125986E001201B5
:1006E30025D26E00120125586F00120125FB7100FF
:1006F300120125497200120125B372001201251D52
:1007030073001201252C2D00120125B92D001201B1
:1007130025362E00120125D62E00120125522F0058
:10072300120125B62F00120125D1300012012541F7
:1007330031001201250A3200120125AE32001201E6
:1007430025CE33001201257A3400120125EE340040
:100753001201253C35001201258B3500120125E4D9
:1007630035001201251036001201251F3600120133
:1007730025BF3B00120125D63C00120125193D007F
:10078300120125813D00120125BC3E0012012534D2
:100793004000120125AF4100120125FE4200120163
:1007A300257143001201251C440012012522450036
:1007B300120125514600120125B64600120125AF4C
:1007C3004800120125E3D6031201252BD70312019A
:1007D300254BD70312012557D70312012563D703EE
:1007E3001201256AD7031201259CD703120125C1E3
:1007F300D703120125F4D70312012524D8031201CC
:10080300255CD803120125A9D8031201257ACC034C
:10081300120125B1CC03120125C8CC0312012574A2
:10082300CD031201250DCE0312012595CE0312012E
:1008330025F87F00120125FD7F0012012562CF03F9
:1008430012012587CF03120125B1CF03120125928F
:10085300EA03120125469D01120125249F0112017D
:1008630025C3A0011201256EA101120125EEA101EC
:1008730012012573A2011201259CA2011201257701
:10088300A601120125EEA60112012505A8011201F8
:10089300253FA80112012580A801120125C7A9013E
:1008A3001201251DAA0112012566AA01120125D5EF
:1008B300AA0112012541AB0112012572AB011201FC
:1008C300258AAB01120125A3AC01120125B3AC01AA
:1008D30012012569AE0112012580AE01120125B274
:1008E300AE0112012554B001120125E8B001120135
:1008F3002580E70312012591E70312012531E8035F
:10090300120125F7FF01120125E77F001201253CA3
:10091300E8031201254CE80312012561E8031201E3
:1009230025C9E803120125D7E2031201255CE3037D
:10093300120125C0E303120125C5E503120125E1D8
:10094300E50312012535E6031201257EE6031201B4
:10095300255BBF031201256FBF03120125E9BF0306
:10096300120125CDC003120125A4C2031201252BB8
:10097300DC0212012547DE02120125E2DF02120129
:1009830025C2E0021201253EE1021201255CE102CB
:10099300120125A7E202120125EAE2021201251A39
:1009A300E30212012500E4021201255AE5021201B5
:1009B300252AE0031201257CE003120125EFE00361
:1009C3001201255CE1031201259CD403120125C603
:1009D300D40312012595D50312012571D603120103
:1009E30025B177001201257D7800120125BE78001C
:1009F300120125F87800120125567900120125AA63
:100A03007900120125087A001201259E7A0012014D
:100A130025A67B00120125307D00120125CE7D0025
:100A2300120125357E00120125487E001201253C66
:100A33007F00120125857F00120125B6AA0212014B
:100A430025E8AD0212012579AF02120125D0AF02CC
:100A5300120125EDAF021201256DB002120125E945
:100A6300B102120125B8B20212012525B602120104
:100A7300250FB70212012557C603120125D5C60358
:100A8300120125F2C6031201257AC703120125A517
:100A9300C70312012537C80312012547C9031201F1
:100AA30025EFDA0312012534DB0312012588DB036A
:100AB3001201250DDC0312012585DC0312012577C4
:100AC300DE031201258EDE03120125BDDE031201B2
:100AD30025F6DE031201251EDF031201254CDF0379
:100AE30012012563DF031201257ADF03120125902A
:100AF300DF03120125B7DF03120125CADF03120149
:100B030025E0DF03120125F3DF0312012518E003BB
:100B1300120125F1E602120125F0E7021201252553
:100B2300E80212012546E80212012556E8021201E5
:100B33002577E80212012583E90212012550EA0212
:100B4300120125C3EA0212012549EB021201258C89
:100B5300EB02120125C3EB0212012549EC0212013B
:100B6300251BED0212012579ED0212012591ED02FB
:100B73001201250BEE021201250EEE0212012511C0
:100B8300EE02120125B8EE02120125D0EE02120187
:100B93002500EF0212012520EF021201250EF002BB
:100BA300120125C4F002120125E4A5031201250C4C
:100BB300A6031201253AA60312012571A603120109
:100BC30025D9A60312012522A7031201256DA70328
:100BD300120125ABA703120125E8A703120125166D
:100BE300A803120125BDA803120125C7A8031201FA
:100BF30025D4A80312012507A903120125C9A903B6
:100C0300120125D5A903120125EDA903120125F728
:100C1300A903120125A9E603120125B7E603120170
:100C230025CFE603120125E7E60312012500800222
:100C33001201259E80021201251681021201252B25
:100C430082021201256582021201250E830212011E
:100C530025E383021201254785021201259E8502A1
:100C63001201252586021201250C8702120125593E
:100C73008702120125E787021201250B8802120160
:100C830025E08902120125218A02120125438A02E5
:100C9300120125C48A02120125AE8B0212012574AA
:100CA3008C021201258B8F031201255D9003120123
:100CB30025069103120125499103120125D69103BB
:100CC3001201256292031201254393031201257237
:100CD30093031201256E9403120125B694031201A6
:100CE30025B89503120125FC9503120125229603CD
:100CF300120125CCE8031201258ABB03120125A0AA
:100D0300BB03120125C6BB03120125EEBC0312016E
:100D130025F8BC0312012551BE0312012551BF035F
:100D2300120125D0FA0212012505FC021201253811
:100D3300FC0212012582FC0212012540FE0212016F
:100D43002538E7011201259BE701120125E0E8019F
:100D5300120125F0E80112012513E9011201255EB4
:100D6300E90112012503EA01120125F9EA01120141
:100D730025C3EB011201253BED011201257DED0198
:100D83001201251BEE0112012568EE011201258EC9
:100D9300EE011201257CF00112012581F0011201FF
:100DA3002562F201120125B6F20112012518F301A1
:100DB30012012540F301120125E4F301120125A6D6
:100DC300F401120125D7F401120125DAF40112010D
:100DD3002522F50112012564F501120125CBF50148
:100DE30012012546D20312012559D203120125729D
:100DF300D203120125BDD20312012598D303120198
:100E03002527D40312012572D4031201255049006A
:100E13001201255C4900120125954900120125DACA
:100E23004900120125914A00120125174B001201B6
:100E3300257C4B00120125A84B00120125E14B0034
:100E4300120125F54D00120125D14F00120125BCD9
:100E53005100120125F352001201255355001201CE
:100E6300253F56001201258557001201259258008F
:100E7300120125AF5800120125E758001201250180
:100E83005900120125695900120125035E00120160
:100E930025A45E00120125F55E001201251C5F00EA
:100EA3001201256A5F00120125885F00120125DC0B
:100EB3005F00120125B560001201253C620012019A
:100EC30025C46200120125199C03120125239C03EA
:100ED300120125EE9C03120125099D031201252F02
:100EE3009D03120125739D03120125AB9D0312017E
:100EF30025D49D031201254D9E03120125629E03F5
:100F0300120125779E03120125AE9E03120125C20D
:100F13009E03120125F39E031201252D9F03120147
:100F230025599F03120125919F03120125FD9F035C
:100F330012012562A003120125ABA003120125D5DE
:100F4300A003120125FAA0031201259EB703120183
:100F53002568B8031201254BB903120125C1B90352
:100F630012012503BA0312012530BB031201258B9D
:100F7300C402120125B4C402120125CDC402120118
:100F83002512C602120125F0C6021201250FC7025F
:100F93001201259CC702120125DFC7021201252C6D
:100FA300C902120125CBC9021201254ACC02120142
:100FB30025E1CC02120125B5CD0212012597CE02FF
:100FC30012012503D00212012596D002120125C277
:100FD300E1031201252BE2031201257FE203120133
:100FE30025A6E20312012507AF0312012574AF03FF
:100FF300120125BFAF03120125B4B003120125B0BE
:10100300B1031201259AB2031201250080031201D4
:10101300254280031201251C8103120125F581035A
:10102300120125F08203120125CF83031201253B10
:1010330084031201250285031201256D8503120124
:1010430025D48503120125FF85031201257086032C
:101053001201250387031201256C870312012581E1
:101063008703120125C98703120125E287031201B1
:10107300254788031201254A880312012580C903E5
:10108300120125A8C903120125E6C903120125A4EB
:10109300CA031201250FCB031201252BCB03120127
:1010A3002553CB0312012583CB0312012592CB03D6
:1010B3001201250CCC0312012532CC031201253E6B
:1010C300D701120125DBD801120125C1DA01120172
:1010D300258BDB01120125D2DB0112012519DC016D
:1010E3001201252BDC011201256BDC011201259A6B
:1010F300DC01120125E6DC011201251EDD011201CE
:10110300254CDD011201259DDD011201252CDE0197
:101113001201251AE101120125F4E2011201253021
:10112300E3011201258AE401120125D1E401120130
:101133002546E50112012594E501120125BAE501D1
:101143001201250DE70112012595F601120125B2C1
:10115300F6011201254CFC011201254EFD0112017D
:1011630025C8FE0112012576FF0112012526B101D2
:101173001201256FB1011201259CB101120125CF86
:10118300B101120125DCB101120125E8B1011201FF
:1011930025FAB101120125CFB2011201252DB301A8
:1011A30012012562B301120125FEB4011201254B80
:1011B300B5011201256FB501120125DCB50112013C
:1011C3002581B6011201253DB701120125BCB701E6
:1011D30012012580B8011201258FB80112012510D3
:1011E300B901120125AFB901120125E1B9011201BB
:1011F300257CBA01120125DABA0112012514BB01BB
:1012030012012595BB011201255EBC0112012507C0
:10121300BD011201258EBD01120125E6BD0112019A
:101223002547BE0112012570BE0112012526BF010B
:1012330012012570C001120125B3C001120125D08E
:10124300C001120125EFC0011201253AC1011201AB
:10125300255FC10112012588C101120125F7C101D2
:1012630012012539C2011201253DC301120125D7FF
:10127300C301120125A3C401120125BCC40112013B
:10128300252FF10212012582F1021201258EF102AE
:1012930012012563F2021201258AF202120125C509
:1012A300F20212012531F30212012565F302120144
:1012B300259EF302120125B6F3021201250FF40253
:1012C30012012528F40212012571F402120125846A
:1012D300F4021201259EF402120125B4F402120154
:1012E30025D0F502120125E1F6021201252EF8029E
:1012F30012012513F902120125FAFF01120125A596
:10130300B702120125D9B70212012544BB0212010B
:10131300258EBC0212012558BD02120125E2BE0230
:10132300120125BDBF02120125F7BF021201251AC2
:10133300C0021201255CC00212012565C002120120
:1013430025AFC002120125B9C00212012565C102F1
:1013530012012539C2021201258DC202120125EFA5
:10136300C20212012542C30212012571C3021201F6
:1013730025B0C302120125EEC40112012548CD0197
:101383001201254ECD0112012509D301120125EFCA
:10139300D60112012509C3031201257FC3031201DC
:1013A3002595C303120125D2C3031201250AC403E1
:1013B30012012587C403120125C2C4031201253D6E
:1013C300C50312012579C50312012582C503120144
:1013D300258EC503120125A8C503120125CDC5031A
:1013E300120125E3C50312012527C6031201252295
:1013F300A10312012535A1031201254FA1031201F7
:101403002578A103120125BBA103120125FAA1032B
:1014130012012538A2031201259DA203120125B250
:10142300A203120125BDA203120125CAA2031201C0
:1014330025E1A203120125EFA203120125FAA2035B
:1014430012012506A30312012519A3031201252462
:10145300A30312012547A303120125F0A3031201DD
:101463002500A4031201251AA40312012537A4039E
:1014730012012553A40312012578A4031201258226
:10148300A40312012596A403120125B5A403120196
:101493002516A5031201251CA50312012522A50368
:1014A30012012528A50312012534A503120125677E
:1014B300A5031201252C9D02120125AE9D021201E6
:1014C30025579E021201259F9F02120125ADA102FD
:1014D30012012593A202120125C8A202120125EAD4
:1014E300A20212012593A30212012563A502120190
:1014F300258CA50212012504A60212012536A60297
:1015030012012543A6021201258EA602120125B25D
:10151300A60212012503A9021201250DAA02120136
:101523002569AA02120125A98E02120125BA8F028A
:101533001201259E9002120125A89002120125CACC
:101543009002120125D690021201257A920212010D
:1015530025A79202120125BD9302120125129402BE
:101563001201256195021201253696021201259278
:101573009602120125FD96021201253297021201ED
:10158300257597021201253F9A02120125579A02E7
:10159300120125E89A02120125F69A021201254347
:1015A3009B02120125519B02120125BD9B021201D0
:1015B30025389C021201258F9C021201250DD102B0
:1015C3001201252FD10212012540D302120125FF5A
:1015D300D50212012529D702120125E7D7021201EC
:1015E30025D3D802120125BEDC03120125E3DC0357
:1015F30012012559DD031201256E88031201257797
:1016030088031201258088031201255889031201DA
:1016130025098B03120125398B03120125648B03E2
:10162300120125948B03120125BF8B03120125F3AD
:101633008B031201251F8C03120125628C031201F7
:10164300258D8C03120125D48C03120125298D03CA
:101653001201256B8D03120125C58D03120125F09F
:101663008D031201253F8E031201256F8E03120194
:10167300259A8E03120125C88E03120125EB8E03D2
:1016830012012555E90312012581E903120125AE53
:10169300E903120125B8E903120125C8E903120180
:1016A3002581EB031201253CEA031201253BEB03E1
:1016B300120125C0EB03120125EDEB03E066701068
:1016C30008A3E066700A08A3E066700408A3E06656
:1016D30022C3E09608A3E09608A3E09608A3E09649
:1016E300A2D265D03322C008C3E096F50808A3E070
:1016F30096420808A3E096420808A3E0964208A28F
:10170300D265D033E5087001D3D00822C3E7960829
:1017130009E7960809E7960809E79622C3E09608C1
:10172300A3E09608A3E09608A3E09622C008C3E0CE
:1017330096F50808A3E096420808A3E09642080835
:10174300A3E09645087001D3D00822080808E630C4
:10175300E71112204D121766080808C64480C61800
:10176300181822181818E9799EC608CAC608CBC6E5
:1017730008CCC6C370207996CACBCC7019798ECBAE
:10178300CC70137986CC700EF9802ACA33CACB3356
:10179300CBCC33CC331930E7F2CCCBCA33501470F3
:1017A30004EA30E00DE4CA3ACACB3BCBCC3CCC5084
:1017B3000209C3E913C6CC182313C6CB18C6CA182B
:1017C300C6F92212180620F01430E72B74FFFCFB35
:1017D300FA747F8022E4FCFBFA7480801AB48008D8
:1017E300BC00F2BB00EF800F50EBF9E4C39AFAE4BC
:1017F3009BFBE49CFCE499C6CC18C6CB18C6CA185C
:10180300C6F922E4C9C608CAC608CBC6D33303083F
:10181300CCC63392F0C3947F402E94184019C9B9B3
:101823000704CACBCC225025C309CA33CACB33CB56
:10183300CC33CC33D9F422F4600DC9CCC313CB130E
:10184300CBCA13CAD9F6CC22E4FCFBFA2214FCFB64
:10185300FA22E6C33318461846184622E7C333195B
:10186300471947194722181818E6084608700AE668
:1018730008C3337005E633F4220822191919E7095E
:101883004709700AE709C3337005E733F4220922D5
:10189300E6084608C3134608336002E633F422E73A
:1018A300094709C3134709336002E733F4221218C7
:1018B3009360251218A26020121855700302185F56
:1018C300080808E76670101819E766700A1819E720
:1018D3006670041819E76622F422121893601C122A
:1018E30018A26017121855700712185F7001D322DF
:1018F300C0D012185F7006D0D0B322C32233D0D029
:10190300501430E0F6C3E7960809E7960809E7960E
:101913000809E796B32220E0D5E6970809E6970879
:1019230009E6970809E697B322121893601B121869
:10193300A26016121855700712185F600CB322C00C
:10194300D012185F7005D0D022C32233D0D05013E9
:1019530030E0EBC3E7960809E7960809E79608091C
:10196300E7962220E0E4E6970809E6970809E69758
:101973000809E6972200121893604F1218A260120A
:10198300E7548066F6121869701112185F703B09EC
:101993000909F4F618F618F618F62212187E7015CF
:1019A30012185508080860EAE6447FF6187680188E
:1019B300E4F618F622121855601612185F7012E436
:1019C300F608F608F608E65480F609090918181807
:1019D30022EAC0E0EBC0E0ECC0E0EDC0E0E687F057
:1019E300A4FBACF008E687F0A42CFCE435F0FA186D
:1019F30009E687F0A42C4B60027401CA35F0FCE4BD
:101A030033FB09E687F0D2F7A42CCB35F0FC190899
:101A1300E687F0A42BCC35F0FBE433FD0819E68709
:101A2300F0D2E7A42C4ACB35F0CD3400FC09E6878D
:101A3300F0D2E7A42DCC35F0FDE433FA0918E6879C
:101A4300F0D2F7A42CCD35F0CA3400FC08E687F0B9
:101A5300D2E7D2F7A42ACC35F07A7E20E70B0ACB63
:101A630033CBCD33CDCC33CC33CB3350147004EDE7
:101A730030E00ED2F1E4CD3DCDCC3CCC3B5005DA89
:101A830005C2F1EB547FC63308E63392F0FBE7332C
:101A930009E733C39A502D2B70190C0D4C4D70155B
:101AA3001806E608C333700D20F10AA2F013F6E41A
:101AB30018800B4024E4F630F002768018F618F60E
:101AC30018F68024D33B14501074FFA2F013F618B9
:101AD3007680E418F618F6800FA2F013F618E633B2
:101AE30003F618ECF618EDF6D0E0FDD0E0FCD0E0FC
:101AF300FBD0E0FA22121893601D1218A270051988
:101B03001919801A121869701F12187EC37003E620
:101B1300673319191940071818182208080874FFA1
:101B2300F618F618F618F62212187E601712185FC8
:101B3300702192F01218557019501720F0140808EC
:101B430008090909E7F61819E7F61819E7F6181945
:101B5300E7F62212185560E6E869701F0808E624C4
:101B630080F608E436F618547FB47F0CE6548060A0
:101B730007F6E418F618F622181822E9C6CC08C6A8
:101B8300CD08C6CE08C6CFC0E0E8C0E0EAC0E0EBAF
:101B9300C0E009E9F809E7FA09E7FBE6F918E6F80E
:101BA300C3EC98ED99EE9AEBC2E7F5F0EFC2E79537
:101BB300F0500E600CEBCFFBEACEFAE9CDF9E8CC9E
:101BC300F8EAA2E7D2E7FAEB33FB13F5F0EEA2E76C
:101BD300D2E7FEEF33FFC5F013A2E730E601B313FC
:101BE300C5F0C3C0E0C0F07F00C39BFB605B9418EB
:101BF300600C401AD0E023F9D0E0F8021CD68AF03A
:101C0300E9486003D2F0E4AFF0FAF9F8803BEB3037
:101C1300E40D89F0EA6003D2F0E4AFF0F9CAF8EB1F
:101C230030E30D88F0EF6002D2F0AFF0E4CAC9F8F8
:101C3300EB54076014FBC3EA13FAE913F9E813F84A
:101C4300EF135002D2E0FFDBEDD0E0C0E030E73924
:101C5300C3E49FFFF5F0EC98FC42F0ED99FD42F0F0
:101C6300EE9AFE42F0D0E0F9D0E0F8E5F0607AE9D0
:101C730023F9EE20E742D8028067C3EF33FFEC334A
:101C8300FCED33FDEE33FE80EAEC28FCED39FDEE8E
:101C93003AFED0E023F9D0E0F84002801BC3EE13F4
:101CA300FEED13FDEC13FCEF135002D2E0FF08B876
:101CB30000067F7F74FF802EEF3350178CF020F0E7
:101CC3000260100CBC000C0DBD00080EBE00040821
:101CD300E860DFE933E813FFEE2313FE4F4D4C803A
:101CE30008E95480FFE4FEFDFCEE33EF33F47004A7
:101CF300FCFD7E80D0E0FBD0E0FAD0E0F8D0E0CF6E
:101D0300C618CEC618CDC618CCC6F92212189370C1
:101D130004181818221218A2700D74FFF61819F679
:101D23001819F61819F622E7548066F6121855703A
:101D33000F12185F70F014F608F608F608F680D153
:101D430012185F700CF608F608768008E6447F8068
:101D5300EC121881700C12186C60BFE65480F6E424
:101D630080BB12186C700519191980A5E869700CED
:101D7300763F18768018F618F6E8F922E6CDC0E02B
:101D830018ECC0E0E633CD33CDD313F6E719FCE707
:101D9300191933CC33C3947F400ECD9D502408E6EC
:101DA3005480F6E418F6800FF4043D14501408E64A
:101DB300447FF6187680E418F618F6D0E0FCD0E0FD
:101DC300FD22CCD313CCFD18E4C6CBC0E018E4C687
:101DD300CAC0E00808ED08C633E613F618E433C6B4
:101DE30075F003C3CA97CA09CB97CB199C40047DEE
:101DF30008802EBD0003021EB816B6FF05060608AE
:101E03001618C3CA33CACB33CB33CA27CA09CB3755
:101E1300CB193CC37D08803E187D0820E75CC633A0
:101E2300C6CA33CACB33CB33DDF1D5F0EB30E77B16
:101E3300CA97CA09CB974ACB199C406F4B7025E6CA
:101E430020E0218066187D08C3CA97CA09CB97CBC7
:101E5300199CD3C633C6CA33CACB33CB3350C9DD7F
:101E6300E7D5F0E1D3E4C636C608C636C608C6369B
:101E7300C608C636C61818188031C3CA97CA09CB14
:101E830097CB199CB34097C633C6CA33CACB33CB5F
:101E930033DD34D5F02EC6A2E0C640C8CA27CA092E
:101EA300CB37194A70BECB3CB480B90808E6330877
:101EB300E633601F181818D0E0FAD0E0FBD0E0FC3E
:101EC300D0E0FD22187D08CA27CA09CB37CB193CBD
:101ED300D3808013F618E4B67F11F618B6FF0EF61A
:101EE30018C60470D20808768080CAF618F618F669
:101EF30080C5080808EAC0E0EBC0E086F0E7A4FA72
:101F0300180986F0E7A42AFA180986F0E7A42AFA42
:101F1300180986F0E7A42AFA1986F0E7A4FBE5F08E
:101F23002AFA190886F0E7A42BFBE5F03AFA190818
:101F330086F0E7A42BFBE5F03AFA18180986F0E7D8
:101F4300A4C5F02BFBE43AFA1908E7C5F0C6A426AA
:101F5300F6E5F03BFBE43AFA1886F0E7A4F6E5F081
:101F63000826F6E43B08F6E43A08F6D0E0FBD0E0B6
:101F7300FA22E4CFC0E0E4CEC0E0E4CDC0E0E4CC9C
:101F8300C0E075F020C3E633F608E633F608E6331F
:101F9300F608E633F6181818EC33FCED33FDEE3390
:101FA300FEEF33FFC3EC9709ED9709EE9709EF971F
:101FB300191919400FFFEC97FC09ED97FD09EE97EE
:101FC300FE191906D5F0BEECF709EDF709EEF7098E
:101FD300EFF7191919D0E0FCD0E0FDD0E0FED0E016
:101FE300FF22122050181818121F7512203C1919BD
:101FF300192212203C191919080808E61818182084
:10200300E7E0121F7512205018181822090909E772
:1020130019191920E7DC080808E618181820E7033F
:10202300021F75122050181818121F75122050180D
:10203300181812203C19191922E4C397F709E497D9
:10204300F709E497F709E497F722181818E4C396F9
:10205300F608E496F608E496F608E496F622601786
:10206300080808C6A2E713C618C613C618C613C6BF
:1020730018C613C6D5E0E9226016080808C6C313BC
:10208300C618C613C618C613C618C613C6D5E0EAC3
:10209300227009080808226016181818C6C333C628
:1020A30008C633C608C633C608C633C6D5E0EA2217
:1020B300E627F60809E637F60809E637F60809E6DB
:1020C30037F622E026F608A3E036F608A3E036F654
:1020D30008A3E036F622E026F008A3E036F008A3D2
:1020E300E036F008A3E036F022C3E697F60809E6E7
:1020F30097F60809E697F60809E697F622C3E0C6BD
:1021030096F608A3E0C696F608A3E0C696F608A3DB
:10211300E0C696F622C3E096F008A3E096F008A383
:10212300E096F008A3E096F022E056F608A3E05606
:10213300F608A3E056F608A3E056F622E056F008A8
:10214300A3E056F008A3E056F008A3E056F022E619
:1021530047F60809E647F60809E647F60809E64799
:10216300F622E0F608A3E0F608A3E0F608A3E0F6FB
:1021730022E6F008A3E6F008A3E6F008A3E6F022BF
:10218300E0FAA3E0FBA3E0FCA3E0FD22EAF0A3EB6B
:10219300F0A3ECF0A3EDF022CAC0E0E6F0A308DA66
:1021A300FAD0E0FA22CAC0E0E0A3C582CCC582C55A
:1021B30083CDC583F0A3C582CCC582C583CDC5833A
:1021C300DAE6D0E0CA22C3E498F8E499F912220AC5
:1021D3008026C3E49AFAE49BFBE920E7E912220A8A
:1021E300E498F8E499F922C3E498F8E499F91222FF
:1021F3000AE498F8E499F9C3E49AFAE49BFB22EB26
:1022030020E7CFE920E7E0B90010BB0008E88AF037
:1022130084F8AAF022E4FBC8FA22EB70227B10C8F0
:1022230033C8C933C9335007C39AC3DBF280069A54
:1022330050012ADBEAC833F4C8C933F4C9FA22755A
:10224300F008E4C833C8C933C933C99AC99B5004D9
:10225300C92AC93BD5F0ECFBC833F4C8E4C9FA2258
:10226300600D08C6A2E713C618C613C6D5E0F3224D
:10227300600C08C6C313C618C613C6D5E0F4227093
:102283000422600D18C6C333C608C633C6D5E0F4AE
:102293001822251810AF08F518400215198008F503
:1022A3001840021519D2AF22C0D0251810AF08F577
:1022B30018500205198008F51850020519D2AFD03D
:1022C300D0222518F58210AF08F5184002151980A1
:1022D30008F51840021519D2AF851983222518F580
:1022E30082E43519F58322E4732518C582C0E0E53D
:1022F3001934FFC583C0E0E518C3958224F810AFF5
:10230300088583198582188008858319858218D2E8
:10231300AFCEF0A3E520F0A37808E608F0A3DEFA39
:10232300EFF0A3E58124FAF8E608F0A3E608F0A3AA
:10233300E608F0A30808E608F0A3E608F0A3158171
:102343001581D0E0FED0E0F8158115811581E8C034
:10235300E0EEC0E0222518C582C0E0E51934FFC5D0
:1023630083C0E0E518C3958224F910AF088583196B
:102373008582188008858319858218D2AFCEF0A391
:10238300E520F0A37808E608F0A3DEFAEFF0A3E572
:102393008124FBF8E608F0A3E608F0A30808E608A2
:1023A300F0A3E608F0A315811581D0E0FED0E0F894
:1023B30015811581E8C0E0EEC0E0228519838518F8
:1023C30082E0A3FEE0A3F5207808E0A3F608DFFA95
:1023D300E0A3FFE0A3C0E0E0A3C0E0E0A3C0E0E02F
:1023E300A3C0E0E0A3C0E010AF088582188583197D
:1023F3008008858218858319D2AFD083D0820201E9
:1024030022851983851882E0A3FEE0A3F5207808CE
:10241300E0A3F608DFFAE0A3FFE0A3C0E0E0A3C077
:10242300E0E0A3C0E0E0A3C0E010AF088582188518
:1024330083198008858218858319D2AFD083D0820F
:1024430022C0D02518C582C0E0E51934FFC583C07A
:10245300E0E518C3958224F310AF088583198582BC
:10246300188008858319858218D2AFC8F0A3E9F0D4
:10247300A3EAF0A3EBF0A37908E709F0A3D8FAECF9
:10248300F0A3EDF0A3EEF0A3EFF0A3D0E0F0A3D020
:10249300E0F0A3D0E0F0A3E520F0A3E5F0F0A32261
:1024A300851983851882E0C0E0A3E0F9A3E0FAA3CD
:1024B300E0FBA37808E0F608A3DFFAE0FCA3E0FD65
:1024C300A3E0FEA3E0FFA3E0C0E0A3E0C0E0A3E03D
:1024D300F5D0A3E0F520A3E0A3F5F010AF088583C2
:1024E300198582188008858319858218D2AFD08216
:1024F300D083D0E0F8D0E032740480067402800206
:102503007401C0E0F4041222C5D0E012219B2274AE
:1025130004800474028000CCC0E0EDC0E0E518C381
:102523009CCCAD1950011D10AF068C188D19800677
:102533008C188D19D2AF1221A8D0E0FDD0E0FC2277
:10254300D083D082E9C0E0E493A3C386F0C5F095BD
:10255300F0F908E493A386F0C5F095F0700BE493CB
:10256300A3C3994005E9048002A3E475F002A425FE
:1025730082F582E5F03583F583D0E0F9E493A3C0D7
:10258300E0E493C0E022D083D082ECC0E0EDC0E071
:10259300E493A3FCE493A3FDED4C600D1225D5EC6D
:1025A30024FFFCED34FFFD80EFE493A3FCE493A34D
:1025B300FDED4C600D122614EC24FFFCED34FFFD01
:1025C30080EFD0E0FDD0E0FCE493A3C0E0E493C04F
:1025D300E022C0E0C3E49396087401939618400F79
:1025E300E49366700808740193661870007019A369
:1025F300A3C3E49396087401939618A3A3400DD044
:10260300E0D0E0D0E00225C5A3A3A3A3A3A3D0E019
:1026130022C0E0C0F088F0E4936670080874019368
:1026230066187000A8F0A3A3700BD0F0D0E0D0E040
:0C263300D0E00225C5A3A3D0F0D0E02227
:10264000C0E074F2122444A2AFE433FED2AFE589B5
:10265000A2E1500312094B758900C2C5EEA2E092B7
:10266000AF7F010224A3C0E0C0D0E8C0E0E5A8D25B
:10267000AFC2C7A2E792AFD0E0F8D0D0D0E03274BA
:10268000F5122358EAFEEBFFEE2434F8EF3400F99C
:1026900088088909EE24351227B7F8EE2437122767
:1026A000B7F50AEC850AF0A4FCAAF0850AF0EDA4BF
:1026B0002AFDE82CF8E43DF97A257B0012220AEA8B
:1026C000850882850983F05407F87401B8000280F8
:1026D00004C333D8FCC0E0E0131313541FF8EE28F2
:1026E000F8EF3400F9E8245DF582E93400F583D091
:1026F000E0F8E0586008850882850983801DEE2493
:10270000361227B7F5F0EA84A8F0EE28F8EF340087
:10271000F9E82438F582E93400F583E0F97F040212
:10272000240474F5122358EAFEEBFFEE243412273A
:10273000B7C0E0EE2435F582EF3400F583D0E0F049
:102740008E828F83A3A3A3A3A3E0FAA3E0FB8E82D0
:102750008F83A3A3A3A3A3A3A3E0FCA3E0FDECC3E7
:102760009AF50AED9BF50BEE2480F508EF3400F5A1
:1027700009850882F583E06401702BEE2481F582DF
:10278000EF3400F5831225161227C074021222AB13
:10279000E960137C517D07EEFAEFFB1212278508E2
:1027A00082850983E4F0AC0AAD0BEEFAEFFB12264A
:1027B0007F122D1402271DF582EF3400F583E022ED
:1027C000C082C083851882851983E0F8A3E0F9C32D
:1027D000EA9CEB9D5012C3EC98ED994019C3EA981E
:1027E000EB99501279018010C3EA98EB9940F5C338
:1027F000EC98ED9950EE7900D083D08222EAC39C08
:10280000FAEB9DFB220000008521878522C622C0AD
:10281000E074EF122444759B00906182E0A2E640D0
:10282000030228D0E591A2E640030228D07591BFAB
:10283000900616E0640570081213C51213D18003C8
:102840001213CB752100121437E9900617F07900A6
:1028500012142B1211917A017B00900615E0F912E7
:1028600005B5907803E0644260030229199007B32C
:10287000E014F06003022919C2AF12287D00782A03
:10288000D0E0F618D0E0F6E59F5407F97005909C6B
:10289000428003909C3E7808122165E9C4C0E0782C
:1028A00029E65508F50808E65509F509740B780876
:1028B000122273D0E02508F8906270E0A2E740F899
:1028C000E8C333906272F0906270E0D2E0F0804929
:1028D000E0A2E55024E591A2E5501E7591DF900637
:1028E00016E0640D7013900638E004F0642870025E
:1028F000E4F07A00E0F91214A9906181E0A2E350BB
:1029000009E5E9A2E3500375E9F7A3E0A2E750095E
:10291000E591A2E7500375917F7F040224A3C0E0F4
:10292000C0D0C082C083906183E0A2E05009E5BFBF
:10293000A2E0500375BFFEE0A2E15009E5BFA2E1AD
:10294000500375BFFDE0A2E25009E5BFA2E25003CB
:1029500075BFFBE0A2E35009E5BFA2E3500375BFDA
:10296000F7E0A2E45009E5BFA2E4500375BFEFE031
:10297000A2E55009E5BFA2E5500375BFDFE0A2E67E
:102980005009E5BFA2E6500375BFBFD083D082D007
:10299000D0D0E032C0E074F2122444E5A7A2E450A3
:1029A0000FE5A1A2E4500953A7EF75A1EF1229E8A2
:1029B000E5A7A2E5500CE5A1A2E5500653A7DF75F7
:1029C000A1DFE5A7A2E15009E5A1A2E1500375A1AD
:1029D000FDE5A7A2E2500CE5A1A2E2500653A7FB39
:1029E00075A1FB7F010224A374F8122358752101FD
:1029F000900616E0640670077A007B001213ADA201
:102A0000AFE433FED2AF90061CE0640170187A2068
:102A10007B00900615E0F91206397A207B009006BB
:102A200015E0F91205BB906182E0D2E6F09007B2A2
:102A3000E0602185C622801690061BE064017008C4
:102A4000E5C654F84405F5C653BEFC1228087401C7
:102A5000652160E4EEA2E092AF7F01022404000051
:102A60008E238F2485822885832785188285198364
:102A7000E0CEA3E0CF852882852783EBC9EAC8EDA5
:102A8000CBECCA75F010C3E833C8E933C9EA33CADE
:102A9000EB33CBC3EA9EF526EB9FF525B35004AB91
:102AA00025AA26EC33CCED33CDD5F0DAAE23AF2416
:102AB0002274F11223588A088B098C0A8D0B740F2B
:102AC0001222E0780C122165909C66780812212C65
:102AD000909C66780C12212C7808790C12170F50F4
:102AE000157808790C1220EC909CAA780812172F00
:102AF000401579018013780C79081220EC909CAA7B
:102B0000780C12172F40EB79007F0802240474ED33
:102B10001223588A088B098C0A8D0B74131222E039
:102B2000780C122165909C66780812212C909C6686
:102B3000780C12212C780C790812170F40117808A4
:102B4000790C1220ECAA08AB09AC0AAD0B802275F7
:102B500010007511007512007513017810790C12B0
:102B600020EC781079081220B3AA10AB11AC12AD8A
:102B7000137F0C022404909C6678081221658A82D7
:102B80008B83780812213F7F0402240474F51223FA
:102B9000588C828D8378081221658A828B8378080D
:102BA000122118122BE0C3E098F0A3E099122BD267
:102BB000401E909C3678081221658A828B837808A3
:102BC0001220D98E828F83E02420F0A3E0344EF0CF
:102BD00080A4F08E828F83C3E09420A3E0944E22E1
:102BE000EA2404F8EB3400F9E8FEE9FF8C828D83D7
:102BF000A3A3A3A3E0F8A3E0F98E828F832274F548
:102C0000122358E9FE900768E0FAA3E0FBEEC33315
:102C1000F8E433F9740F28F582749B39F583E02AC0
:102C2000F508A3E03BF50978081224FF909C9E125A
:102C30002183122A6074021222AB8A088B098C0A43
:102C40008D0B7410780812207BAA08AB097F040250
:102C5000240474F11223588A0C8B0D8C0E8D0F7482
:102C60000F1222E0E0FAA3E0FB74111222E0E0F57B
:102C700008A3E0F50974131222E0E0FEA3E0FF7858
:102C8000081224FFEA2401F508EB3400F509E4F505
:102C90000AF50B780C7908121EF5909CB278081290
:102CA0002165780C7908121EF5AA0CAB0DAC0EAD9F
:102CB0000F122A6074021222AB8B09EA45096004E4
:102CC0007A0180027A00EC2AFCED3400FDECF8ED8C
:102CD000F97A717B0212220A88088909E4F50AF55B
:102CE0000B8E828F837808122174ECF8EDF97A71DB
:102CF0007B0212220A8A088B097405780812228244
:102D00008E828F83A3A3A3A3E508F0A3E509F07F38
:102D100008022404C082C083E9906000F0D083D010
:022D200082220D
:102D2400FFFFFFFFFFFFFFFF74F61222EC74FF1298
:102D34002295900AE6E070067AFF7BFF80608A089D
:102D44008B09780812258900000400FA00612DF42B
:102D5400016A2DE803742DD0077E2D3C2D85188241
:102D6400851983E4801C8518828519837408801270
:102D740085188285198374108008851882851983C3
:102D84007418F0900AE4122E28600F123B86122F5A
:102D94004A70A5122DAC900AE4F07A007B0074010D
:102DA4001222AB7F020223BE851882851983E013A9
:102DB4001313541F2274F71222EC74FF122295E9A4
:102DC400FE900AE6E070067AFF7BFF8054EE24FE54
:102DD400600E24FE601324FC601924F8601F80E751
:102DE400851882851983E4801C851882851983746B
:102DF40008801285188285198374108008851882CA
:102E04008519837418F0900AE5122E28600F123B7E
:102E1400A1122F4A70B1122DAC900AE5F07A007B12
:102E2400000233AF123B51A2E713A2E713A2E71348
:102E34006822C082C08374FF122295900AE6E07073
:102E4400077AFF7BFF022ECEC3EA94BCEB940040CA
:102E54000A8518828519837401804EC3EA9462EB53
:102E64009400400A8518828519837402803BC3EA62
:102E7400942AEB9400400A85188285198374038090
:102E840028C3EA9414EB9400400A851882851983B8
:102E940074048015C3EA940AEB940085188285199A
:102EA400834004740580027406F0900AE7123B4DD7
:102EB400686013123B6A122F4A708685188285193E
:102EC40083E0900AE7F07A007B0074011222AB02DF
:102ED40046AF74F71222EC74FF122295E9FE900AB1
:102EE400FCE06E6051EE85188285198360047430AD
:102EF4008001E4F0900AEDE0600A85188285198368
:102F0400E0D2E1F0900AFBE0600A8518828519831B
:102F1400E0D2E7F0851882851983AC82AD837B010A
:102F2400900AE0E02414122F4760067AFF7BFF80AA
:102F340009EE900AFCF07A007B000233AFE41248F9
:102F440065240F123B351248A4120801E92274F7D4
:102F54001222EC74FF122295E9FE900AFDE0601A39
:102F6400EE851882851983600474028001E4122FAF
:102F74004260327AFF7BFF0233AF900AE6E060F3EF
:102F8400EE6016900AECE060067A007B0080E8852B
:102F9400188285198374018007851882851983E452
:102FA400122F4270CE851882851983E0900AECF0C6
:102FB40080D7C082C08374FF122295900AE6E07025
:102FC400077AFF7BFF0230B6851882851983122F9A
:102FD4004170EE851882851983123B7B122F4A704B
:102FE400E08518828519831230BC122F4A70D29062
:102FF4000AFD1233C660551230B9122F4A70C290BE
:103004009BD21221831233B974C0F0900AE6E0A275
:10301400E0500985188285198374E0F0851882854B
:1030240019831230BC122F4A70971233C360047490
:10303400028001E4122F4270888518828519831258
:103044003B79122F4A6003022FC580627404123048
:10305400BB122F4A6003022FC5900AEDE07008905E
:103064000AE6E0A2E0400A8518828519837440804C
:103074000885188285198374601230BB122F4A6048
:1030840003022FC5909BD21221831207FB1233C374
:10309400600474018001E4122F426003022FC57C96
:1030A400EB7D0A123B7F122F4A6003022FC57A0080
:1030B4007B00022ECE740CF0AC82AD837B01123007
:1030C400C622900AE0124886A3A3A3A32274F41292
:1030D40022ECE9C2E0F508900AFDE060067A007B84
:1030E40000803E900AE6E0F870067AFF7BFF8031AC
:1030F400900AEBE0F509E50858F8F0E50868600681
:103104007EFF7FFF80047E007F00E5087006900A42
:10311400EFE06010790112071DE508700EEEFAEF7A
:10312400FB02436C790012071D80F21207238B0BFC
:10313400EA450B60E8E509900AEBF080AD74F712FC
:1031440022EC74FE122295E9FEC3942940077AFF0B
:103154007BFF0231F5EE701E79001231FAE4F004BF
:103164001222E07407123204122F4770E1900AEF22
:10317400E4F0FAFB807B79011231FA7420F07401D7
:103184006E700C74011222E0E4F07A05FB802EEEDE
:10319400C39406500C74011222E07401F07A058085
:1031A4001AEEC394157401500A1222E07402F07AE4
:1031B4000A80081222E07403F07A147B00120711CB
:1031C40074011222E0E0C4333354C04407123204C1
:1031D400122F476003023152900AE67408F0900AF5
:1031E400E8E4F0900AEF04F079001207297A007BF2
:1031F4000074020233B112071785188285198322DD
:1032040012463F24122274F71222EC74FF12229504
:10321400EAFEEBFF900AE6E070077AFF7BFF0232DA
:10322400AB900AFDE070F3900AEFE06019EE4F6096
:1032340010C3EE9429EF94005007EEF912072F8083
:1032440062790012072FC3EE9404EF940050067EB7
:10325400047F00800DC3EE94E9EF940340047EE8FC
:103264007F0378E87903EEFAEFFB12220AE814856B
:103274001882851983124871A3122F4A709C78E82A
:103284007903851882851983E02401FAE43400FB6C
:10329400122202900AE912360A900AE9124509FA42
:1032A4001207117A007B000233AF74F71222EC7418
:1032B400FF122295E9FE900AEDE06E70030233AB33
:1032C400900AE212487BE0F91230C2E0FAEE851867
:1032D40082851983AC82AD837B016062120807E9A1
:1032E40060077AFF7BFF0233AF851882851983E07C
:1032F400C2E51230BB122F4A70E8909BD61221838C
:103304001233B97402F0900AFBE0600985188285D3
:1033140019837482F0900AFCE0600A85188285198A
:1033240083E04430F0851882851983AC82AD837BB9
:1033340001900AE0E02414122F4770A6806412085A
:1033440007E9709E900AE6E0A2E085188285198359
:10335400E05004D2E58002C2E51230BB122F4A705D
:1033640081909BD61221831207FB900AFB1233C66D
:10337400600474808001E4F0900AFCE0600A85181F
:1033840082851983E04430F0851882851983AC82E4
:10339400AD837B01900AE0E02414122F47600302FE
:1033A40032E6EE900AEDF07A007B0074011222AB53
:1033B4007F010223BE1207FB8518828519832290A0
:1033C4000AECE08518828519832274F71222EC74C2
:1033D400FF122295E9FE74705E600A8518828519D1
:1033E400837401800EEE8518828519836003E4805E
:1033F40002744012485F122F47600B900AE6E4F013
:103404007AFF7BFF806D851882851983E054BF9015
:103414000AE8F0851882851983E4F0EEA2E64003F9
:103424007404F0EEA2E54004E0D2E1F0EEA2E44040
:1034340004E0D2E0F0EEA2E34004E04438F0AC82D1
:10344400AD837B01900AE0E02413122F4770ACEEA9
:10345400600A74086E60057900120717EE900AE698
:10346400F0900AEFE4F0909BD21221831207FB7ACA
:10347400007B000233AF74F71222EC74FF12229522
:10348400E9FE900AFDE06E70077A007B000233AF1C
:10349400EE6030A3E070067AFF7BFF80F0790012C3
:1034A400071D790012073B900AFF1241A685188276
:1034B400851983E41234D97401F0F912071D120737
:1034C4002380C6790012071D900AEB1233C612340A
:1034D400D9E4F080E9F0AC82AD837B017A23124811
:1034E4007FE0F9120801900AFD22C082C083900A8D
:1034F400E4E0600B14601314601C146025802F8AB0
:10350400828B8374FAF0A3E4802B8A828B8374F415
:10351400F0A37401801F8A828B8374E8F0A3740380
:1035240080138A828B8374D0F0A3740780078A8205
:103534008B83E4F0A30246AAC082C083900AE5E02C
:10354400600B14602414602914602E80348A828BEA
:10355400837402F0900AEEE060088A828B83E0C3F1
:1035640033F07A007B000246AF8A828B8374048036
:10357400E28A828B83740880DA8A828B8374108057
:10358400D27AFF7BFF80DFC082C083900AE7E01419
:10359400601114601914601E1460231460281460F0
:1035A4002D80338A828B8374BCF0A3E4802F8A82BB
:1035B4008B83746280F38A828B83742A80EB8A8281
:1035C4008B83741480E38A828B83740A80DB8A82FF
:1035D4008B83740580D38A828B83E4F0A30246AA8A
:1035E400C082C083900AFDE060067AFF7BFF8013EF
:1035F400900AE9E0F8A3E0F98A828B8312360A7A0A
:10360400007B000246AFE8F0A3E9F022C082C08349
:10361400900AEBE08A828B830246AA74E81222ECB9
:1036240074E1122295740F1222E0EAF0A3EBF07415
:103634000D1222E0ECF0A3EDF0E9851882851983E0
:10364400F074011222E07401F0041222E0E4F004A8
:103654001222E0AC82AD837B02900AE0E0241212D5
:103664002F4760077AFF7BFF023B2B909BDA1221E6
:10367400831207FB74011222E0122F4170E67401D9
:103684001222E0123B7B122F4A70D974011222E0FD
:10369400AC82AD837B01900AE0E02412122F4770C4
:1036A400C374011222E0AC82AD837B01900AE0E096
:1036B4002417122F4770AD74011222E01230BC128D
:1036C4002F4A70A074011222E01230B9122F4A70EE
:1036D40093909BDE1221831207FB123BA6A3E0C04A
:1036E400E074011222E0D0E0F0123B6A122F4A602B
:1036F40003023668123BA6E0C0E074011222E0D057
:10370400E0124871A3122F4A6003023668900B013D
:1037140012451C123B4D600E74E048C0E074011267
:1037240022E0D0E0800674011222E0E8F0123B8629
:10373400122F4A6003023668851882851983E06077
:1037440017900B01E0240B123B35E044E0C0E07419
:10375400011222E0D0E0800774011222E07418F014
:10376400123BA1122F4A600302366885188285191C
:1037740083E06009909BDA1221831207FB74011223
:1037840022E074401230BB122F4A60030236687480
:10379400011222E07478123B7A122F4A6003023637
:1037A40068909BD21221831207FB74011222E0124B
:1037B4003B79122F4A600302366874011222E01228
:1037C400451312489C600302366874011222E0E03B
:1037D400F974021222E0E0F87A0C7B0012220AE863
:1037E400F508740F1222E0E02408F516A3E0340073
:1037F400F517909CB61221838516828517831221B2
:103804008F740F1222E0E02404F514A3E03400F5D1
:1038140015909CB612218385148285158312218FFD
:10382400909CB6122183740F1222E012487B12215D
:103834008F740D1222E0E02408FEA3E03400FF9010
:103844009CB61221838E828F8312218F740D1222D3
:10385400E0E02404F8A3E03400F974111222E01229
:10386400360A909CB612218374111222E012487B0E
:1038740012218F909CB6122183740D1222E01248FB
:103884007B12218F75090002399974011222E0AC70
:1038940082AD837B0C124893600302366874011274
:1038A40022E0E0F974021222E0E0F874191222E036
:1038B40012360A74031222E0E0F974041222E0E0E2
:1038C400FCE9FD741B1222E0ECF0A3EDF074051288
:1038D40022E0E0F974061222E0E0FAE9FB741D121A
:1038E40022E0EAF0A3EBF074191222E0123B5B74BD
:1038F4000D1222E0123BB31220D9123B4074111274
:1039040022E0123BB31220D98A0CEB123B438E8285
:103914008F83780C1220D974071222E0E0F974081E
:103924001222E0E0F874131222E012360A7409122B
:1039340022E0E0F9740A1222E0E0FCE9FD741512B9
:1039440022E0ECF0A3EDF0740B1222E0E0F9740C29
:103954001222E0E0FAE9FB74171222E0EAF0A3EB8A
:10396400F074131222E0123B5B740F1222E0123B3C
:10397400B31220D9123B40851482851583780C122A
:1039840020D98A0CEB123B43851682851783780C69
:103994001220D90509E509C39508500302388EE5BC
:1039A40008F50CE4F50DF50EF50F740F1222E01274
:1039B400487B780812216574107808122094909B33
:1039C400E2781012216578087910121F75850C10A1
:1039D400850D11850E12850F1378087910121F7545
:1039E400740F1222E012487B780812217485148225
:1039F4008515837808122165741078081220949034
:103A04009BE2781012216578087910121F75850CD5
:103A140010850D11850E12850F1378087910121F69
:103A2400758514828515837808122174851682851C
:103A34001783780812216574107808122094909BDB
:103A4400E2781012216578087910121F75850C1020
:103A5400850D11850E12850F1378087910121F75C4
:103A64008516828517837808122174740D1222E05A
:103A7400123BB912216574107810122094740B78DB
:103A84001012207B850C08F509F50AF50B781079DE
:103A940008121F75740D1222E0123BB912217474BE
:103AA400111222E0123BB912216574107810122011
:103AB40094740B781012207B850C08F509F50AF52F
:103AC4000B78107908121F7574111222E0123BB999
:103AD4001221748E828F83780812216574107808FD
:103AE400122094740B780812207B7808790C121F2A
:103AF400758E828F837808122174909BE678081261
:103B040021658F838E8278081216D44005909BEA33
:103B14008003909BEE78081221658E828F8378084B
:103B24001220D97A007B00741F1222AB7F1002236B
:103B3400BEF8A3E03400F988828983228C0CEDF569
:103B44000D3395E0F50EF50F22123B5122E0F88576
:103B54001882851983E022E0F50CA3E0F50D339576
:103B6400E0F50EF50F22AC82AD837B01900AE012E2
:103B74004882A3A322E4F0AC82AD837B011230C659
:103B8400A322123B8A22AC82AD837B01900AE0120D
:103B94003B972212488AA3A3A3A3A3A322123B8A7E
:103BA400A322900B01123BAD22123B97A3A3221236
:103BB4004882780C2212488278102274EA1222EC8D
:103BC40074F91222958A148B1574031222E0AC82C4
:103BD400AD837B0412402860057A07023CC3740657
:103BE4001222E0E0F9C4540F5403F874031222E0E3
:103BF400123CCF851882851983F0E91313543F547E
:103C040003F874041222E0123CCFC0E074011222C3
:103C1400E0D0E0F0740359F874051222E0123CCFAE
:103C2400C0E074021222E0D0E0F07E008E82AA820C
:103C34008A0875090074027808122282E51425089E
:103C4400F50CE5153509F50D851882851983E5828E
:103C54002AF50EE5833400F50F850E82F583E070B6
:103C640011909CB6122183850C82850D8312218FBD
:103C74008041909BF2122183850C82850D83122151
:103C84008F8025850C82850D837808122165909B91
:103C9400F6781012216578087910121978850C824B
:103CA400850D837808122174850E82850F83E014B4
:103CB400F070D00EEEC394035003023C307A007BC4
:103CC4000074071222AB7F0E0223BE122DB2541CC5
:103CD400482274F71222ECEAF8EBF9900AE4E06067
:103CE4000B14601C14601E1460208023909BFA1235
:103CF40021838882898312218F7A007B000233B466
:103D0400909CBA80EA909C0280E5909C0680E07AC0
:103D1400FF7BFF80E8C082C083900AE5E0600B145B
:103D2400603314603C146044804D8A828B83E4F0D9
:103D3400A37440F0900AEEE060148A828B83E0F86A
:103D4400A3E0C313F9E8138A828B8312360B7A003B
:103D54007B000246AF8A828B83749CF0A3741F801D
:103D6400D28A828B83E4F0A3741080C78A828B8307
:103D7400E4F0A3740880BC7AFF7BFF80D574E8125A
:103D840022EC74F212229585188285198312401848
:103D940074021222E0AA82AB831207717E007F00B4
:103DA4008E0A8F0B7402780A122282850A08850B08
:103DB40009851882851983E02508F8A3E035098868
:103DC40082F583780C122165E5162508F582E5173E
:103DD4003509F583780C122100AA0CAB0DAC0EAD9D
:103DE4000F12400A12174E909C0A7810122165781F
:103DF4000C791012197874021222E0123EA1781084
:103E0400122165909CB67808122165781079081201
:103E140018B160568E088F097402780812228274D1
:103E2400021222E0123EA17808122165780C79086A
:103E3400121D0F909C0E7808122165780C790812D7
:103E44001AF8E50FC2E7F50F909C12780812216565
:103E5400780C79081218DD5033750801750900EEE5
:103E64007808122282123FFD8022909C1678081254
:103E74002165780C790812192C40DE909C1A780878
:103E8400122165780C79081218DD40CD123EAE502F
:103E940003023DA4AA14AB15740E023B2DE5822542
:103EA40008F582E5833509F5832212419B9403EFDB
:103EB4009400A2D265D0332274E81222EC74FB126F
:103EC400229574031222E012401885188285198302
:103ED400AC82AD837B0312402860077A077B000223
:103EE4003FF8851882851983E0541FF0740112226B
:103EF400E0E0541FF074021222E0E0541FF07E0050
:103F04007F008E088F0974027808122282AA08ABF7
:103F14000974031222E0E02AF8A3E03B8882F583C7
:103F24007808122165E5162AF582E5173BF58378B2
:103F340008122100AA08AB09AC0AAD0B12400A1200
:103F4400174E909C0A7808122165780C790812198A
:103F540078851882851983E5822EFAE5833FFB8AEA
:103F6400828B83E06060909C1E7808122165800F2C
:103F7400909C227810122165780879101219788A99
:103F8400828B83E014F070E8780C7908121D0F908E
:103F94009C0E7808122165780C7908121AF8E50F3E
:103FA400C2E7F50F909C127808122165780C790805
:103FB4001218DD5033750801750900EE78081222D5
:103FC40082123FFD8022909C267808122165780C8D
:103FD400790812192C40DE909C2A78081221657801
:103FE4000C79081218DD40CD123EAE5003023F0694
:103FF400AA14AB157405023B2DE5084514F514E528
:10400400094515F515221216A18A0C8B0D8C0E8DFF
:104014000F780C22EAF0A3EBF08C168D17751400C0
:10402400751500227A0D12487FE0F9120807E9227B
:1040340074F01222EC74E01222958A0C8B0D8C0A17
:104044008D0B900AFDE0600A79001207477508019C
:10405400800375080074061222E0AA82AB8312075B
:104064004D74011222E0AA82AB8312075374021228
:1040740022E0AA82AB8312075974041222E0AA82B6
:10408400AB8312075F900AE6E0F50985188285196B
:1040940083AA82AB831207657E007F007900AC0A95
:1040A400AD0BAA0CAB0D12418C6008124195123E67
:1040B400B340E974026E7001EF70047E00805E7E8E
:1040C400007F00790174081222E0AC82AD8374147D
:1040D4001222E0AA82AB8312418C6008124195122D
:1040E4003EB340DF74026E7001EF60CF7408122299
:1040F400E0AC82AD83AA0AAB0B120783EAF50A741B
:10410400141222E0AC82AD83AA0CAB0D1207897E97
:1041140000EA70010EE50A700474024EFE900AE48F
:1041240074FF124851900AE6F0900AEBF0900AE806
:104134007401F074061222E0E0FAA3E0FB12070512
:1041440074011222E0E0F912070B74021222E0E07B
:10415400FAA3E0FB12071174041222E01241A6A98B
:1041640009120741851882851983E0F9120729E5A8
:1041740008A2E050057901120747EEFA7B0074208B
:104184001222AB7F080223BE12076B8B0FEA450F86
:104194002212419B940222EE24010EEF3400FFC34D
:1041A400EE22E0FAA3E0FB1207352274F01222ECAF
:1041B40074E212229574061222E0AC82AD8374126A
:1041C4001222E0AA82AB8312078F8A08740365085F
:1041D4007001EB60030242F974021222E0AA82AB7E
:1041E4008312077774121222E07808122165780886
:1041F40012174E74021222E0780C122165780879A5
:104204000C12197878081217C674121222E0780872
:1042140012217474161222E07808122165780812AB
:10422400174E74021222E0780C1221657808790C7A
:1042340012197878081217C674161222E078081238
:104244002174741A1222E078081221657808121772
:104254004E74021222E0780C1221657808790C124F
:10426400197878081217C6741A1222E078081221F5
:104274007474121222E0AA82AB831206A5851882F6
:10428400851983AA82AB8312077D851882851983D9
:104294001243E4E4F50AF50B74061222E0780C12DA
:1042A4002165780C7908121EF574061222E0780C48
:1042B400122174740A1222E0780C122165780C79A8
:1042C40008121EF5740A1222E0780C122174740E7E
:1042D4001222E0780C122165780C7908121EF5740C
:1042E4000E1222E0780C12217474061222E0AA82C3
:1042F400AB831206AB741E02418474F41222EC7474
:10430400FE122295ECFEEDFF740E1222E01243DC45
:1043140070067AFF7BFF804B900AE6E060F4EB8541
:104324001882851983F074011222E01243ECC082D2
:10433400C08374011222E0E02EFAE43FFBD083D064
:1043440082C3E09AA3E09B40C91243F970C4AC084D
:10435400AD09EEFB900AE0E02415122F4770B37A02
:10436400007B0074021222AB7F040223BE74F41299
:1043740022EC74FE122295ECFEEDFF740E1222E084
:104384001243DC70067AFF7BFF804B900AE6E06004
:10439400F4EB851882851983F074011222E012432C
:1043A400ECC082C08374011222E0E02EFAE43FFBE9
:1043B400D083D082C3E09AA3E09B40C91243F97032
:1043C400C4AC08AD09EEFB900AE0E024151248994C
:1043D40070B37A007B00808B1243E4E50845092220
:1043E400E0F508A3E0F50922EAF01244FBA3A3A335
:1043F400A3A3A3A322851882851983AC82AD837BF2
:1044040002900AE0E02418F50AA3E03400850A8249
:104414001244F0120801E92274F01222EC74FE1224
:104424002295EAFEEBFF8C0A8D0B74121222E0E057
:10443400F50CA3E0F50D900AFDE070077AFF7BFF11
:104444000244EB900AE6E060F38518828519831232
:10445400451312489C70E5851882851983E0F97428
:10446400011222E0E0FAF508E9F509C3EA9EE99FA2
:10447400500A850C82850D83E4F080C01244FB123F
:104484004509C39508EB950950378518828519832A
:10449400AC82AD837B01900AE0E02411F50EA3E029
:1044A4003400850E821244F0120807E9708E8518D4
:1044B40082851983E0A2E450081207237AFE02449D
:1044C40042AC0AAD0BEEFB1248936003024440A8D1
:1044D40008A909EEFAEFFB12220AE814850C82857A
:1044E4000D83F07A007B007402024184F583E0FAC4
:1044F40088828983E0F922900AE2E0F8A3E0F9884F
:10450400828983A322E0FAA3E0C313FBEA1322AC5B
:1045140082AD837B02900AE0123BADA3A32274EA2E
:104524001222EC74EE1222958A0A8B0B8C0C8D0DE0
:1045340074281222E01243E4742A1222E0E0F50EF9
:10454400A3E0F50F900AFEE060077AFF7BFF0246C6
:104554003AEC450D60F47E007F008008EE2512FEE3
:10456400EF3513FFC3EE950AEF950B400302460B9C
:10457400E50AC39EF8E50B9FF9C3E89411E994009A
:104584004008751210751300800488128913E50C15
:104594002EF514E50D3FF51578141224FFAC12AD79
:1045A40013EEFAEFFB12079B74021222AB8B11EA93
:1045B4004511709674021222E08582108583117869
:1045C400101224FFAC12AD13EEFAEFFB1207A17424
:1045D400021222AB8B11EA4511600302454E781298
:1045E4001224FF74041222E0AC82AD83AA14AB152A
:1045F4001216A774021222AB8B11EA451170030242
:1046040045607AFE024550851882851983E509F0D4
:1046140074011222E0E50812463F241A122F476063
:104624000302454E900AFE7401F0A3E50EF0A3E5E3
:104634000FF07A007B007412023CC7F08518828563
:104644001983AC82AD837B02900AE0E022C082C071
:10465400838A828B8312469F40047A00803AE8C39F
:10466400123EB450047A04802F12469E40047A010C
:104674008026E8C3123EB450047A05801B8A828BDC
:1046840083A312469E40047A02800DE8C3123EB40E
:1046940050047A0680027A07800FA3E0F8C39401DD
:1046A400A2D265D03322F07A007B00D083D082027C
:1046B400012274F61222EC74FA122295851882856E
:1046C400198312487212489C6005790102484C858E
:1046D4001882851983E064686005790202484C7485
:1046E4008012485F122F476005790302484C909C62
:1046F4002E1221831233B9E412485F122F4760054A
:10470400790402484C851882851983AC82AD837B79
:1047140006900AE0E02416124899600579050248DB
:104724004C74011222E0E0A2E0E433F97403122293
:10473400E0E0A2E0E43333F874051222E0E0A2E002
:10474400E43333334849F8607A7401687065900A39
:10475400EE7401F0900AE674FFF0900AE4124851F6
:10476400A3F0900AEDF0900AE87401F0900AFBF0CF
:10477400A3E4F0900AF0F0900AEFF075080AF50946
:1047840078081224FF7C007D007AF17B0A1216B3AC
:1047940074021222AB900AFDE4F0A3F0A3F0A3F09C
:1047A4007AD07B071207058B09EA4509603F791027
:1047B40002484C7402687006900AEEE4809579060B
:1047C40002484C851882851983123B6AA312489CBF
:1047D400600479078072851882851983E0540FF884
:1047E400700302472074046870CE024752790212A3
:1047F400070B8B09EA450960047911804B7A2A7BFF
:10480400001207118B09EA45096004791280397A8C
:10481400327B001207358B09EA450960047913805D
:104824002779001207298B09EA4509600479148065
:1048340017790012073B8B09EA4509600479158052
:1048440007790012074179007406022DA4F0A3F041
:10485400900AE7F0900AE9F0A3F0221248652412C6
:1048640022F0AC82AD837B01900AE0E022F0AC82BE
:10487400AD837B01900AE012488222900AE212483A
:10488400862212488A22E0F8A3E0F58388822290E7
:104894000AE0E0240B123B351248A4120807E9226F
:1048A400E0FA900AE2124886E0F92274F21222EC4D
:1048B4007508011207C5E9909C32700A122183120F
:1048C40007FB790080791221831207FB1207B9795B
:1048D4007812074179781207297A647B0012073528
:1048E4001206997AD77B0A124948AE0AAF0B7ADAD4
:1048F4007B0A1249487403780A122282EE450AFEA2
:10490400EF450BFF7ADD7B0A1249487406780A12D8
:104914002282EE450AFAEF450BFB12069F7A737B5F
:10492400011206E77A647B001206B1120795790139
:104934001207478B0BEA450B6003750800A9087F33
:10494400060223BE1207B38A0A8B0B22C082C083DD
:10495400E9900D8EF0024BD474F71222ECE9900525
:1049640034F07C6C7D057AFF7BFF120E9D9005353B
:1049740074FFF0A3F0A3E4F0A3F07905120E2590E0
:104984000534E0F9120D4D7ABB7B0E1210830258E8
:10499400E274F41222EC8A088B09EB5480603090A4
:1049A4000534E0F912059D8A0A8B0BAE0AAF0BEEB3
:1049B4004F60138E828F83E064B07003120E3DEE5D
:1049C400FAEFFB12058BAA08E5096480FB80047AE0
:1049D400007B00024BA374F21222EC74FC122295A9
:1049E400EAFEEBFF74121222E0125DC9EE4F70036F
:1049F400024A7D74021222E0EEF0A3EF124DDEECC7
:104A0400F0A3ED124DDEAA82AB83120D47E9F50A3D
:104A1400706AE508450960648E828F83125DAFEE8B
:104A24004F60567A067B001205F78A0C8B0DA80C92
:104A3400A90DE8497005750A13804188828983E4C9
:104A4400124A8AEEF0A3EF125DDAE508F0A3E50955
:104A5400F090053A124B1190053A700512588C806B
:104A64001B12587A8003EAFCEBFD8C828D83124B77
:104A74001170F38C828D8380E3750A02A90A740491
:104A84001222AB025FC9F0A3125D80A32274F2125A
:104A940022EC890AE975F017A4FEAFF0900539E419
:104AA400F0900537124B11600A1205FD900537E4AA
:104AB400F0A3F0EEFAEFFB1205F78A088B09EA453A
:104AC40009602FEEFCEFFD7900120579900537E5BA
:104AD40008F0A3E509F07B008008124AFBE4F0A388
:104AE400F00BEBC3950A40F2E50A900539F0790022
:104AF40080027913025FC9EB75F017A4F8A9F0904E
:104B04000537E028FAA3E0398A82F5832212551E7C
:104B1400EA4B2274F41222EC740C1222E0125DA40B
:104B2400FEE9FF750800750900800CE5082401F50D
:104B340008E5093400F509C3E5089CE5099D5032F0
:104B440085080A85090B7403780A122282EA250A69
:104B5400F8EB350BF988828983A3A3A3A3A3A3123B
:104B64005961EE650A7003EF650B70BFE8FAE9FB63
:104B740080047A007B00802774F41222EC7900EA26
:104B8400A2E0501B7508A075099B78081224FF7CCD
:104B9400047D007A907B0D120E1F74021222AB7FEB
:104BA400040223BEC082C08390053A124BDB601C12
:104BB40088828983A3A3E06A7003A3E06B88828957
:104BC4008370E8A3A3A3A312551A80047A007B0080
:104BD400D083D0820201221260AFE8492274EE121F
:104BE40022EC74FC122295EAFEEBFF8518828519EB
:104BF40083E4F0A3F0EE240212586CEE2405125D57
:104C040087EE2404F50EEF125193E024FE6039245C
:104C1400FC604624FE605224FE605E24FE700302A3
:104C24004CF424FE7003024D5824FE7003024D67B9
:104C340024FE7003024D7624FC7003024D8524FE8D
:104C44007003024D94024DD19005537417F0A3E400
:104C5400124DE6120AC5024DD1851882851983AC1E
:104C640082AD83120E43024DA1851882851983AC4F
:104C740082AD83120E49024DA1850C08850D09747D
:104C8400021222E0AC82AD83850882850983125525
:104C94001A120D6B8A0C8B0DAC0CAD0DEC4D603BF8
:104CA400E4F50CF50D780C1224FF750C53750D0505
:104CB400780C1224FF750C54750D05780C1224FF22
:104CC40074081222E012251612622B1222ABE9F5A7
:104CD4000C700B125510120ADD800F750C0185083B
:104CE40082850983124DD412588C850C08024DA478
:104CF40074021222E0AC82AD83850C82850D83128E
:104D040052E5603C850C82850D83A3A3122516759C
:104D1400105375110578101224FF75105475110580
:104D240078101224FF74081222E012251612622B46
:104D34001222ABE9F509700B125510120AE3800F29
:104D4400750901850C82850D83124DD412588C850A
:104D54000908804C851882851983AC82AD83120EB4
:104D64004F803A851882851983AC82AD83120E5523
:104D7400802B851882851983AC82AD83120E5B80EB
:104D84001C851882851983AC82AD83120E61800D57
:104D9400851882851983AC82AD83120E67E9F50804
:104DA400E50860298E828F83A3E06414601F850E5A
:104DB40082850F83E0900553124DDE1260AB90059F
:104DC4005412588CE508A3124DE6120ABF02577B11
:104DD4001260AF85188285198322F085188285199F
:104DE4008322F07C537D05850A82850B8312551E30
:104DF4002274EE1222EC74FC1222958A0A8B0B8C1C
:104E04000E8D0FEA2405F508EB3400F5097C157DB9
:104E14000079007A537B05120579E5082402F50C24
:104E2400E509125D8A851882851983858210858338
:104E34001178101224FF850882850983A3A3A3A3F4
:104E44001252DC1224FFE5082405F510E5093400AC
:104E5400F51178101224FF850C82850D83125631CA
:104E6400120D6574061222AB8A108B11AE10AF11AD
:104E7400E50A2402F50AE50B12586FEE4F7003029F
:104E84004FB3801774021222E012551A8882898364
:104E9400EAF0A3EBF0900553E004F0900553E0C36F
:104EA40094054003024FB3E4F510F5117810122471
:104EB400FF75103C75110578101224FF75103D75AF
:104EC400110578101224FF74061222E012251679B7
:104ED40010EEFCEFFD12622D1222ABE9705E850824
:104EE40082850983A3A3A3A3A3A3A3E0F890053C0D
:104EF400E06870481252DC1224FF7C3D7D05E50811
:104F04002408FAE5093400FB12057374021222AB7B
:104F1400E960298E828F83A3A3A3A312551A900557
:104F240053E0F5107402781012228274542510F59F
:104F34008274053511F583EAF0A3EBF074021222B2
:104F4400E085821085831178101224FF74021222E6
:104F5400E0122516850C82850D831255401222AB72
:104F64008A108B11AE10AF11900553E0F510751136
:104F7400007402781012228274532510F8740535D7
:104F840011F988828983A3124B117003024E7FE8C2
:104F94002403080808E93400F9EE4F6003024E8840
:104FA4008882898374FFF0A3F0900553E004F090A5
:104FB4000553E0600A125510120AD17900800B855E
:104FC4000882850983125883790A02577B74EA128E
:104FD40022EC74FE1222958C128D13EA2405F50C32
:104FE400EB126215125DB3750800750900EA24021C
:104FF400F510EB3400F51185188285198385820A32
:1050040085830B780A1224FF850C82850D83A3A364
:10501400A3A31251A91224FFE50C2405F50AE50DFA
:1050240012586F780A1224FF850C82850D83125161
:10503400AD120D6574061222AB8A0A8B0BEA450B7E
:10504400700302514EEA2404F50EEB125193125DE3
:10505400B38A828B83A3A3A3E0F98510828511838D
:10506400125524600302514EE4F514F51578141218
:1050740024FF75143C75150578141224FF75143D2E
:1050840075150578141224FF74061222E0122516F1
:105094007913AC0AAD0B8510828511831262331229
:1050A40022ABE9F509600302514E90053CE0F8E5B6
:1050B400087009E02402900554F08014900554E02F
:1050C400FCE82402FAE43400FBEA6C7001EB707E25
:1050D400850882AA821252D394141252CB506B8543
:1050E4000E82850F83E0C0E074552A12518AD0E005
:1050F400F00508850E82850F83A3E0C0E085080AC9
:105104007455250A12518AD0E0F0050890053C1226
:1051140051A91224FF7C3D7D0585080A7455250A92
:1051240012519D1222AB90053CE02508F50874FF4E
:105134006E700374FF6F6012EE24010EEF3400FFF3
:10514400E508C394145003024FFBE508601312559D
:105154002E85108285118312551A120AD779008080
:1051640014E509700375090A851282851383EEF02C
:10517400A3EFF0A90974021222AB7F0E0223BE85AD
:10518400080C7455250CF58274053400F58322341B
:1051940000F50F850E82F58322FA74053400FB12A4
:1051A4000561740222125DE922A3A31251B32212F3
:1051B400587AFDEEFAEFFB2274EE1222EC74FE1222
:1051C40022958C0E8D0FEA2405F50CEB125D8A7581
:1051D4000B00900553E4F0F50AEA2402F508EB34D9
:1051E40000F5098044900553E0FA90053CE0F8127C
:1051F40052D394171252CB400D900553E0F8741615
:10520400C39890053CF01252DC1224FF7C3D7D05CE
:1052140074542AFA74051251A01222AB90053CE092
:10522400F8900553E028F0050AE50C2416F582E50C
:105234000D12518EE0F8E50AC3985074900553E0BE
:10524400C39416506BE50AC333F8E433F9E50C282C
:10525400FEE50D39FF851882851983AC82AD838EF6
:10526400828F831252E57008750B0112587F8050AB
:10527400E4F510F51178101224FF75103C75110532
:1052840078101224FF75103D75110578101224FF53
:1052940074061222E0122516791685088285098380
:1052A4001262331222ABE9F50B70030251E980BBA1
:1052B4007C537D0585088285098312551A120AE9F3
:1052C400A90B740202577DE99400C365D03322EA26
:1052D40028F8E43400F9E822E0F51075110078109C
:1052E400221257728A108B11AC10AD11EC4D22743E
:1052F400EA1222EC74FC1222958A0C8B0D8C128D0E
:1053040013EA2405F50AEB12586F750800750900B5
:10531400E50A2402F510E50B3400F511740212229B
:10532400E085820E85830F780E1224FF850A82851C
:105334000B83A3A3A3A3125D8F1224FFE50A240504
:10534400F50EE50B3400F50F780E1224FF8510825C
:10535400851183125875125514120D6574061222A4
:10536400AB8A0E8B0FAE0EAF0FE50C2402F50EE5E3
:105374000D3400F50F80388882898374FFF00508A6
:1053840012518374FFF0050890053CE0F50C750D8F
:1053940000780C1224FF7C3D7D0585080C7455258E
:1053A4000C12519D1222AB90053CE02508F508EE45
:1053B4004F60278E828F83A3A3A3E0F9850E828595
:1053C4000F83125524EE2404125D87E96027850CAF
:1053D40082850D8312550612588CE5087003025419
:1053E400EC12552E850E82850F8312551A120AEF80
:1053F4007900025501E4F514F51578141224FF75AB
:10540400143C75150578141224FF75143D751505A3
:1054140078141224FF74081222E01225167911EE72
:10542400FCEFFD850E82850F831262331222ABE9F5
:10543400F509709A850882AA82EA90053C7009E011
:105444002404900554F08025E0F8900554E0F51408
:10545400E82404FCE43400FDEC65147001ED708173
:105464001252D394121252CB40030253E5850C829C
:10547400850D83E0C0E074552A12518AD0E0F0050E
:1054840008850C82850D83A3E0C0E0125183D0E02F
:1054940012554985820C85830D780C1224FF7404FF
:1054A4001222E012251685108285118312554012AE
:1054B40022AB8A0C8B0DAE0CAF0D85080C745525F0
:1054C4000CF874053400F9EE4F700302537B851811
:1054D40082851983E088828983125549A3E0C0E05C
:1054E400125183D0E0025389E509700375090A85D6
:1054F4000A82850B8312550612588CA9097404027A
:10550400517B1260AF851282851383227C537D0503
:10551400850A82850B8312551E22E0FAA3E0FB2242
:1055240012551E120D53E9F50922900554E0F5F0C9
:10553400E50884900553F07C537D05221251B31283
:105544000D71740422F0050885188285198322746C
:10555400EC1222EC74FE1222958A088B098C0E8DB3
:105564000FEA2405FEEB3400FF12575CEE241812F8
:105574005D87EA450B70030255FF12574550291207
:1055840056248A108B11EA4511606B7912AC0AAD6E
:105594000B85088285098312551A8510828511832B
:1055A4001222EAE9F50A7058E4F50AF50B780A12B2
:1055B40024FF8E828F83A3A3E0F50A780A1224FFC6
:1055C400EE240312586C780A1224FF8E828F831201
:1055D4005631120E8B74061222ABE9F50A7021853E
:1055E4000C82850D83E0701F85088285098312551E
:1055F4001A120AF58011750A0E8009750A018004D1
:10560400E50A600312587F850C82850D83E06004EF
:1056140079008002A90A74021222AB7F0C0223BE15
:1056240085188285198312551E120E792212587A12
:10563400FD85088285098312551E2274EE1222EC20
:1056440074FE1222958A088B098C0C8D0DEA2405B0
:10565400FEEB3400FF750E0012575CEA450B700335
:10566400025723125745502C1256248A0E8B0FEAE8
:10567400450F604A7912AC0AAD0B8508828509830F
:1056840012551A850E82850F831222EAE9F50E60FF
:1056940003025726850882850983125961AA0AFBE9
:1056A40012573770147AFF7BFF125737606C888269
:1056B4008983E50AF0A3E50BF0750A008007750EEF
:1056C4000E805F050A900539E0FAE50AC39A504A4C
:1056D400E50A75F017A4FAABF088828983A3A3E0E6
:1056E4002AFAA3E03BFB8A828B83125875EC4D7037
:1056F400D2750A17750B00780A1224FFEEFCEFFD31
:1057040012056174021222ABEEFCEFFD850882855E
:10571400098312551A120AFB8014750E0980037549
:105724000E011260A7850C82850D8312588CA90E78
:105734000252C6120E6D8A108B11A810A911E849E5
:1057440022E5082402F508E5093400F5098A828B6C
:1057540083A3A3A3E0A2E522851882851983AC82E2
:10576400AD838E828F831257728A0A8B0B22E0FAE2
:10577400A3E0FB120D6B2274041222AB7F0A0223F6
:10578400BE74EC1222EC8C108D11EA2405F50CEB9E
:10579400125D8A750F00EA2402F50AEB12586F8530
:1057A4000A82F58312551A1262B9700302586175A0
:1057B4000E008071850C82850D83E06401704F8E2C
:1057C400828F83A3A31225168E828F83A3A3A3A300
:1057D400E0F51275130078121224FFEE2405F51279
:1057E400EF3400F51378121224FF125514120E8BA5
:1057F40074061222ABE9F50F6014850C82850D83C3
:10580400E4F01260A785108285118312588C7C17EE
:105814007D007900EEFAEFFB1205798E828F83E426
:10582400F0A3F0050E900539E0F8E50EC398501E7C
:10583400E50E75F017A4F8A9F0850882850983A3FD
:10584400A312621F125875EC4D60030257B8850805
:105854008285098374FFF0A3F0E50F7006125514D6
:10586400120B01A90F02561FF50AEF3400F50B22A3
:10587400A312587AFD22E0FCA3E0228E828F8312C9
:1058840060AF850E82850F83E8F0A3E9F022C08221
:10589400C083900535E06A7003A3E06B70067A3527
:1058A4007B0580047A007B00024BD474F71222EC4F
:1058B4007F00EF75F003A4F8A9F0EC28F8ED39F9AE
:1058C40088828983E06A7003A3E06B7006E8FAE9D2
:1058D400FB800B0FEFC3940240D87A007B007F015A
:1058E4000223BE74F61222EC125E9870067A007BD4
:1058F400008007A3A3A3A312551A025F5974F212DE
:1059040022ECE9FE740E1222E01259617410122284
:10591400E0125DC98C828D83E06402703BA3126047
:10592400AB88828983E0F50CA3E0F9A80C740268C3
:1059340070037429697021750C02750D00780C12BE
:1059440024FF78081224FF780A1224FFEEF9120EBD
:10595400AF74061222AB80027901025FC9E0F50A36
:10596400A3E0F50B2274E81222EC74FB122295E9F1
:10597400851882851983F08A168B178C0E8D0F7407
:105984001F1222E0125DC974211222E012596174BF
:10599400231222E0125DB37510008C828D83A3A3C1
:1059A400A3E0A2E4502A741D1222E012562A8A822D
:1059B4008B83E58245837003025A75790AAC0EAD78
:1059C4000FAA16AB171222EAE9F5106003025A78FF
:1059D400850E82850F83E064026003025D2EA312AC
:1059E40060AB850882850983A3858212858313E5CC
:1059F4000E2406F50CE50F125D8A88828983E0FA8D
:105A0400A3E0F9EA2400F514E439F5157814122515
:105A1400890100002801283D5A07000228145B036D
:105A240028845A00293E5C0129665C02290D5C0326
:105A3400293E5C0429CF5C2E5DEE4F703E850C82BE
:105A4400850D83125DA4FAE9FB8A828B83E0850AC3
:105A540082850B83125DE01224FF8A828B83A3125A
:105A6400587AFDAA08AB0912056174021222AB80B0
:105A74000375100EA910740502620D75100B80F4E5
:105A8400EE4F70F7850A82850B837401F0125DB9BD
:105A9400850882850983F07C007D00850E82850F50
:105AA40083A3A3A3A3E02401FAA3E03400FB120D13
:105AB4006BEA4B60418A828B83E02402F8850A8278
:105AC400850B83E028F0EA2404F8EB3400F988829B
:105AD4008983E0851282851383125DF2125DE012E0
:105AE40024FF8A828B83125874E5082403FAE5099B
:105AF4003400FB025A6B850A82850B83E02404F090
:105B04007C047D007900AA12AB13120579025A783D
:105B1400EE4F6003025A7F125DB9FEA3E0FF850ACF
:105B240082850B837404F0EE850882850983F0EF87
:105B3400851282851383F074031222E0AC82AD8354
