:020000040000FA
:0600000002010A0229BF03
:03002B000225E2C9
:03005300022A324C
:03006B000225BCAF
:10008300022873E5C754F84401F5C779012200003B
:100093000080FB120086B900030200F4E4792178A2
:1000A30008B800028004F709D8FCE479297802B87B
:1000B30000028004F709D8FCE490028178487908AB
:1000C3008002F0A3D8FCD9FA9009C8AA82AB839026
:1000D300013A782279058015E493A3AC82AD838A33
:1000E300828B83F0A3AA82AB838C828D83D8E9D9D8
:1000F300E77582FF7583B1740412011C75829175D3
:100103008300740012011C75D00075813F7518813E
:10011300751902759F00020096C09FF59FE473D086
:100123009F22D083D082C09FE493C0E0740193C028
:10013300E0740293F59F22FFFF0A416363656C201D
:10014300456E61626C650000021400416363656C77
:100153002052616E67650000024D505536303530D0
:10016300204F757420506172616D65746572000073
:10017300101010416363656C20582D436F6F7264D8
:10018300696E6174650000416363656C20592D439A
:100193006F6F7264696E6174650000416363656CBF
:1001A300205A2D436F6F7264696E6174650000029B
:1001B300BD900100008A9002BB90010000CA0902B1
:1001C300FD90030000A00202C390010000CB0902CE
:1001D300BB90010000D90902FB90010000DA09027B
:1001E300C390010000DC0902BB90010000010A0278
:1001F300F990000000B50202C990030000B80202A2
:10020300C390010000040A02BB90010000020A022D
:10021300F790000000B60202C990030000BE02027C
:10022300C390010000180A02BB90010000030A02F8
:10023300F590000000B70202C990030000C4020257
:10024300C3900100002C0A02BB90010000E90902DF
:10025300F390010000A10202C390010000EA09FF2C
:10026300000000FF00000001CE8C3A8F0000000068
:10027300000000000000000000000000000000007B
:10028300000000000000000000268C110199010FFE
:100293001264040102BD90010000969002BB90011C
:1002A3000000210B02E390010000220B02C990031E
:1002B3000000DD0202E790010000230B02020202AC
:1002C3000202020202010D000000100102BD9001B2
:1002D30000009F9002BB900100004D0B02019101B1
:1002E3000000E30202BB900100004E0B02DD90010F
:1002F3000000218F02BB900100004F0B02DB900135
:100303000000DB8E02BB90010000500B02D990016C
:100313000000388E02BB90010000510B02D7900100
:100323000000268E02BB90010000520B02D5900103
:1003330000004A8E02BB90010000530B02D39001D0
:1003430000005C8E02BB90010000540B02CF9001B1
:100353000000E98E02BB90010000550B02CD900115
:100363000000560B01E803053F100B094B65796646
:100373006F6264656D6F02010507020318021804BA
:1003830018544920424C45204B6579666F62000042
:10039300000000000000E1090000E709ED09FF0982
:1003A300FF00013075030201060000000000000099
:1003B300000000000000000000000000000000003A
:1003C3000000000000FFFF0600800CE8030A04128F
:1003D30002BD90010000AB9002BB900100005E0CD7
:1003E30002B390030000DE0402BD90010000A89058
:1003F30002BB900100005F0C02B390020000DF0417
:1004030002BD90010000A59002BB90010000600CAA
:1004130002B590010000E00402C990030000E1046A
:10042300104B657920507265737320537461746542
:100433000002BD90010000A29002BB90010000B138
:100443000C02C190000000E70402C990030000E819
:100453000402C390010000B20CFF0000B4000028A6
:10046300002800283075A000A000A000A00000080C
:100473000008E001F0001000100010001000100050
:10048300100050005000500010001000D007000072
:10049300000000000F000100050030750700100088
:1004A300010081FF0000FF290D470D2F0DFF020200
:1004B3000208025000A0000000E80302BD90010002
:1004C300009C9002BB900100003F0D02CB90010005
:1004D300001F0502BB90010000400D02D1900100F6
:1004E30000350502BB90010000410D02E1900100BF
:1004F30000370502BB90010000420D02F190080095
:1005030000380502BB90010000430D02EB9001008F
:1005130000440DFF0100FF2002BD900100009990EF
:1005230002BB90010000A80D02E99000000000004A
:1005330002C9900300008505171317131713171328
:100543001713171317131713171317131713171358
:1005530017139315AB158D1512012598C3031201BB
:1005630025ADC30312012505C4031201256CC40381
:10057300120125B4C4031201252AC503120125590A
:10058300C50312012567C503120125CBC50312015B
:100593002509C60312012524C603120125BCC6037F
:1005A30012012563C703120125E4C7031201251BAA
:1005B300C803120125A4C803120125F9C8031201B7
:1005C3002556C90312012568C9031201258EC903E3
:1005D30012012597C903120125EBCA03120125CC89
:1005E300A704120125ABA8041201254AAF04120186
:1005F30025209E04120125659E04120125A99E044F
:100603001201253AA00412012500B1041201251B91
:10061300B1041201252BB10412012529D8031201BB
:100623002540D8031201253AD90312012586D9039F
:10063300120125A6D903120125F7D9031201256258
:10064300DA03120125A6DA0312012504DB031201E2
:1006530025ACDD031201259CFE03120125CCFE030C
:10066300120125FCFE031201251CFF03120125764E
:10067300FF031201252ED20312012597D203120183
:1006830025B4D20312012536D403120125C9D4039C
:1006930012012589D603120125D6D7031201259B02
:1006A3005B00120125C65B00120125845E00120166
:1006B30025116200120125576500120125406600CD
:1006C3001201258D6900120125FA69001201254DD9
:1006D3006A00120125B96A00120125256B00120177
:1006E30025F96B00120125666C00120125D36C00FD
:1006F300120125FF6F001201258D70001201250CD8
:1007030071001201258B71001201251E7200120166
:1007130025E02D00120125E32D00120125E62D0011
:10072300120125C22E00120125912F001201257BF3
:100733003000120125153100120125053200120186
:1007430025393500120125C135001201250C37006A
:10075300120125FB3700120125083A001201253743
:100763003B00120125F43B00120125573C00120106
:1007730025B73C001201253B3D001201256B3D00CE
:10078300120125873D00120125E64600120125BF0F
:1007930048001201252449001201259F4900120136
:1007A30025904B00120125E44D00120125CE4F0088
:1007B30012012551510012012554520012012557EF
:1007C3005300120125C15400120125505600120195
:1007D30025E756001201254E5700120125345A0011
:1007E300120125A3AE04120125E0AE04120125F285
:1007F300AE041201251EAF0412012505880412015F
:10080300253A88041201255D88041201254C8904C8
:10081300120125308A04120125BC8A04120125C65F
:100823008B04120125F4FF02120125F9FF021201C4
:1008330025ECE70312012511E8031201254CE80317
:10084300120125EDAF041201250491011201257750
:100853009301120125379501120125E29501120139
:10086300258696011201251F97011201254E970136
:10087300120125AF9C011201255A9D01120125CABF
:100883009E01120125329F01120125E69F011201EB
:100893002566A101120125A5A10112012519A201B5
:1008A30012012578A201120125D7A20112012546C2
:1008B300A30112012539A4011201257FA40112010C
:1008C30025C4A401120125E7A40112012537A601BD
:1008D3001201254AA601120125BCA601120125F326
:1008E300A6011201251FA70112012572A7011201FA
:1008F3002593A701120125D7A70112012529AA01D2
:100903001201256AAA0112012515AB0112012580E6
:10091300AB0112012526AB0412012537AB041201EA
:100923002512AC04120125FCFF02120125DEFF0390
:10093300120125D6AD04120125E6AD0412012500EE
:10094300AE04120125A0AE04120125DF98041201A2
:10095300258299041201259E9B041201253EA604BB
:100963001201258DA604120125BFA60412012550EC
:10097300A7041201251CAA0412012543AA0412018B
:1009830025A1AA04120125F4AA041201258AF10360
:10099300120125A9F1031201253EF2031201252EAE
:1009A300F3031201259BF50312012522AC04120166
:1009B3002534AC0412012585AC0412012526C4029A
:1009C30012012583C6021201259FC802120125CAFE
:1009D300C802120125DAC90212012506CB0212014F
:1009E3002528CB02120125CDCC0212012516CD02FA
:1009F3001201255ACD02120125CFCE021201255C28
:100A0300D002120125E2FD0212012541FE0212016C
:100A130025EFFE021201256EFF02120125A98F04A4
:100A2300120125DB8F04120125E39004120125082E
:100A3300920412012582A60312012574A703120151
:100A430025B7A703120125F1A70312012566A80301
:100A5300120125C7A80312012544A9031201252069
:100A6300AA031201252BAB03120125ACAB03120120
:100A73002553AD03120125E9AD031201255CAE0335
:100A8300120125D8AE03120125EFAE03120125266C
:100A9300B00312012580B003120125B193021201A4
:100AA30025209802120125E59A021201250E9B02C8
:100AB300120125359B02120125DD9B02120125B08F
:100AC3009D02120125EB9E0212012582A30212014F
:100AD30025BBA302120125FFA30212012511A502C2
:100AE300120125008004120125AB8004120125C8E0
:100AF30080041201256B8104120125A781041201D0
:100B030025798204120125DC8304120125B99B0493
:100B13001201250C9C04120125719C041201253934
:100B23009D04120125E39D041201258BA4041201E7
:100B330025A2A404120125D1A4041201250AA504A7
:100B430012012532A50412012560A504120125779F
:100B5300A5041201258EA504120125A4A5041201E2
:100B630025CBA504120125DEA504120125F4A50455
:100B730012012507A6041201252CA604120125EC57
:100B8300B003120125EBB10312012520B2031201B8
:100B93002541B20312012551B20312012572B2039A
:100BA3001201257EB3031201254BB403120125BEA6
:100BB300B40312012544B50312012587B5031201BD
:100BC30025BEB50312012544B60312012516B7034A
:100BD30012012574B7031201258CB70312012506F0
:100BE300B80312012509B8031201250CB803120139
:100BF30025B3B803120125CBB803120125FBB803B3
:100C03001201251BB90312012509BA03120125BFDD
:100C1300BA03120125E2EC031201250AED031201C6
:100C23002538ED031201256FED03120125D7ED03DE
:100C330012012520EE031201256BEE03120125A9F3
:100C4300EE03120125E6EE0312012514EF03120150
:100C530025BBEF03120125C5EF03120125D2EF03D4
:100C630012012505F003120125C7F003120125D354
:100C7300F003120125EBF003120125F5F003120135
:100C830025FFAC041201250DAD0412012525AD0489
:100C93001201253DAD04120125ECD2021201258A71
:100CA300D30212012502D40212012517D502120123
:100CB3002551D502120125FAD502120125CFD602FC
:100CC30012012533D8021201258AD80212012511F7
:100CD300D902120125F8D90212012545DA021201BF
:100CE30025D3DA02120125F7DA02120125CCDC0240
:100CF3001201250DDD021201252FDD02120125B09F
:100D0300DD021201259ADE0212012560DF021201C3
:100D13002522CB03120125F4CB031201259DCC031D
:100D2300120125E0CC031201256DCD03120125F933
:100D3300CD03120125DACE0312012509CF031201D7
:100D43002505D0031201254DD0031201254FD103F0
:100D530012012593D103120125B9D103120125777D
:100D6300B004120125D88B04120125EE8B04120165
:100D730025148C041201253C8D04120125468D0493
:100D83001201259F8E041201259F8F04120125BD98
:100D9300DD03120125F2DE0312012525DF03120113
:100DA300256FDF031201252DE103120125D1A502D1
:100DB30012012534A60212012579A7021201258901
:100DC300A702120125ACA702120125F7A7021201FF
:100DD300259CA80212012592A9021201255CAA02F0
:100DE300120125D4AB0212012516AC02120125B45F
:100DF300AC0212012501AD0212012527AD02120139
:100E03002515AF021201251AAF02120125FBB0020C
:100E13001201254FB102120125B1B102120125D9E8
:100E2300B1021201257DB2021201253FB302120164
:100E33002570B30212012573B302120125BBB3025D
:100E4300120125FDB30212012564B4021201257CAF
:100E5300A0041201258FA004120125A8A0041201E9
:100E630025F3A004120125CEA1041201255DA204DD
:100E7300120125A8A20412012594AC01120125A098
:100E8300AC01120125D9AC011201251EAD011201DD
:100E930025D5AD011201255BAE01120125C0AE01BE
:100EA300120125ECAE0112012525AF0112012539EE
:100EB300B10112012515B30112012500B50112017B
:100EC3002537B60112012597B80112012583B9010F
:100ED300120125C9BA01120125D6BB01120125F35E
:100EE300BB011201252BBC0112012545BC011201D6
:100EF30025ADBC0112012547C101120125E8C1013D
:100F030012012539C20112012560C201120125AE69
:100F1300C201120125CCC20112012520C301120115
:100F230025F9C30112012580C50112012508C60157
:100F3300120125E3E203120125EDE203120125B8B4
:100F4300E303120125D3E303120125F9E30312019D
:100F5300253DE40312012575E4031201259EE403F4
:100F630012012517E5031201252CE5031201254182
:100F7300E50312012578E5031201258CE50312012F
:100F830025BDE503120125F7E50312012523E60339
:100F93001201255BE603120125C7E6031201252C86
:100FA300E70312012575E7031201259FE7031201E9
:100FB30025C4E703120125198404120125E38404DF
:100FC300120125C685041201253C86041201257EE3
:100FD3008604120125AB87041201258F8D031201AC
:100FE30025B88D03120125D18D03120125168F0318
:100FF300120125F48F03120125139003120125A07A
:101003009003120125E3900312012530920312018C
:1010130025CF92031201254E9503120125E5950371
:10102300120125B996031201259B97031201250787
:1010330099031201259A990312012507A9041201A4
:101043002570A904120125C4A904120125EBA904E2
:10105300120125FBF50312012568F603120125B3DE
:10106300F603120125A8F703120125A4F8031201C0
:10107300258EF9031201252ABB031201256CBB033C
:1010830012012546BC031201251FBD031201251AB7
:10109300BE03120125F9BE0312012565BF03120128
:1010A300252CC00312012597C003120125FEC0039E
:1010B30012012529C1031201259AC1031201252D0D
:1010C300C20312012596C203120125ABC20312010A
:1010D30025F3C2031201250CC30312012571C303B7
:1010E30012012574C303120125E595041201250D90
:1010F30096041201254B9604120125099704120147
:1011030025749704120125909704120125B89704BA
:10111300120125E89704120125F79704120125719E
:1011230098041201259798041201252EB502120185
:10113300250BB70212012506B902120125D9B902FE
:1011430012012524BA021201256FBA021201258168
:10115300BA02120125C1BA02120125F6BA0212011E
:101163002542BB0212012571BB0212012594BB0269
:10117300120125E1BB021201256ABC021201257787
:10118300BE0212012562C002120125A5C00212018E
:10119300250AC2021201254BC202120125BEC20258
:1011A3001201250AC3021201252BC302120125FBDA
:1011B300C302120125119A031201253C9A0312015D
:1011C3002523A10312012547A30312012502A50329
:1011D3001201255FA6031201256FC6011201250620
:1011E300C7011201254CC7011201258BC801120149
:1011F30025AFC80112012546CA01120125C0CA0143
:10120300120125DBCA0112012550CB011201257FF2
:10121300CC01120125DACD01120125DCCE01120128
:101223002539D00112012552D001120125AFD00179
:1012330012012591D101120125C4D10112012534D6
:10124300D201120125AED201120125FDD2011201F4
:1012530025C9D301120125CED401120125ADD50133
:1012630012012538D601120125A6D6011201251A2D
:10127300D70112012543D70112012502D80112011A
:10128300257CD90112012599D901120125B8D9016B
:1012930012012549DA011201256EDA0112012596A0
:1012A300DA0112012511DB011201256BDB011201A9
:1012B30025BFDC011201257CDD011201254FDE0172
:1012C30012012513F00212012563F0021201256FAA
:1012D300F0021201254CF1021201257CF1021201E8
:1012E30025B4F10212012533F2021201256BF20239
:1012F300120125BDF202120125FAF2021201251F85
:10130300F5021201254BF70212012546F9021201DB
:101313002521FB02120125F9FF031201250080029A
:101323001201254A8002120125298602120125AAEB
:101333008702120125098E02120125048F02120170
:1013430025418F02120125648F02120125A68F0207
:10135300120125AF8F02120125B98F02120125A5B3
:1013630090021201259991021201257DDE011201DD
:1013730025F5E801120125FBE80112012507F0011B
:10138300120125CF9204120125CD930412012523C6
:101393009404120125619404120125BE94041201E0
:1013A300253B95041201254495041201255095040B
:1013B3001201256395041201259F9504120125B599
:1013C300950412012550FA031201255DFA03120157
:1013D3002577FA03120125B6FA03120125F4FA035D
:1013E30012012559FB031201256EFB031201257916
:1013F300FB0312012586FB031201259DFB0312014A
:1014030025ABFB03120125B6FB03120125C2FB0327
:10141300120125D1FB03120125DCFB03120125FF79
:10142300FB03120125A8FC03120125B8FC031201DA
:1014330025D2FC03120125EFFC031201250BFD034A
:1014430012012530FD031201253AFD031201254E39
:10145300FD031201256DFD03120125CEFD031201CB
:1014630025D4FD03120125DAFD03120125E0FD0356
:10147300120125ECFD031201251FFE0312012505B0
:101483008003120125878003120125308103120195
:10149300257882031201258684031201256C8503B6
:1014A300120125A18503120125C385031201256CB1
:1014B30086031201253C8803120125658803120166
:1014C30025DD88031201250F89031201251C8903D9
:1014D3001201256789031201258B8903120125DC7B
:1014E3008B03120125E68C03120125428D031201A1
:1014F3002595E102120125A6E2021201258AE302E3
:1015030012012594E302120125B6E302120125C25A
:10151300E30212012566E50212012593E502120199
:1015230025A9E602120125FEE6021201254DE80275
:1015330012012522E9021201257EE902120125E9A1
:10154300E9021201251EEA0212012561EA021201D3
:10155300252BED0212012543ED02120125D4ED02E4
:10156300120125E2ED021201252FEE021201253DA3
:10157300EE02120125A9EE0212012524EF02120147
:10158300257BEF02120125C2F401120125E4F401C7
:10159300120125F5F601120125B4F901120125DE28
:1015A300FA011201259CFB0112012588FC0112019D
:1015B30025D2A204120125F7A2041201256DA3046A
:1015C3001201258B78001201259478001201259DC4
:1015D3007800120125757900120125267B0012017E
:1015E30025567B00120125817B00120125B17B006A
:1015F300120125DC7B00120125107C001201253C21
:101603007C001201257F7C00120125AA7C001201B7
:1016130025F17C00120125467D00120125887D00FD
:10162300120125E27D001201250D7E001201255CC9
:101633007E001201258C7E00120125B77E00120167
:1016430025E57E00120125087F0012012582B104E1
:10165300120125AEB104120125DBB104120125E507
:10166300B104120125F5B1041201259AB204120145
:1016730025A87F0012012554B204120125C7FF02D9
:10168300120125E0FF01E066701008A3E066700A0E
:1016930008A3E066700408A3E06622C3E09608A3EB
:1016A300E09608A3E09608A3E096A2D265D0332281
:1016B300C008C3E096F50808A3E096420808A3E033
:1016C30096420808A3E0964208A2D265D033E50803
:1016D3007001D3D00822C3E7960809E7960809E703
:1016E300960809E79622C3E09608A3E09608A3E0CC
:1016F3009608A3E09622C008C3E096F50808A3E085
:1017030096420808A3E096420808A3E096450870AD
:1017130001D3D00822080808E630E711121FC812C7
:101723001730080808C64480C61818182218181855
:10173300E9799EC608CAC608CBC608CCC6C37020C2
:101743007996CACBCC7019798ECBCC70137986CCB1
:10175300700EF9802ACA33CACB33CBCC33CC3319BE
:1017630030E7F2CCCBCA3350147004EA30E00DE416
:10177300CA3ACACB3BCBCC3CCC500209C3E913C613
:10178300CC182313C6CB18C6CA18C6F9221217D011
:1017930020F01430E72B74FFFCFBFA747F8022E403
:1017A300FCFBFA7480801AB48008BC00F2BB00EF23
:1017B300800F50EBF9E4C39AFAE49BFBE49CFCE44E
:1017C30099C6CC18C6CB18C6CA18C6F922E4C9C62E
:1017D30008CAC608CBC6D3330308CCC63392F0C3BA
:1017E300947F402E94184019C9B90704CACBCC2260
:1017F3005025C309CA33CACB33CBCC33CC33D9F44A
:1018030022F4600DC9CCC313CB13CBCA13CAD9F6C8
:10181300CC22E4FCFBFA2214FCFBFA22E6C33318C5
:10182300461846184622E7C3331947194719472272
:10183300181818E6084608700AE608C3337005E668
:1018430033F4220822191919E7094709700AE7092D
:10185300C3337005E733F4220922E6084608C313AD
:101863004608336002E633F422E7094709C3134706
:1018730009336002E733F42212185D602512186CF5
:10188300602012181F7003021829080808E7667001
:10189300101819E766700A1819E76670041819E733
:1018A3006622F42212185D601B12186C601612185F
:1018B3001F7007121829600CB322C0D012182970A8
:1018C30005D0D022C32233D0D0501330E0EBC3E78E
:1018D300960809E7960809E7960809E7962220E0A3
:1018E300E4E6970809E6970809E6970809E69722C8
:1018F3000012185D604F12186C6012E7548066F690
:101903001218337011121829703B090909F4F618DB
:10191300F618F618F622121848701512181F080840
:101923000860EAE6447FF618768018E4F618F62293
:1019330012181F60161218297012E4F608F608F63A
:1019430008E65480F609090918181822EAC0E0EBE2
:10195300C0E0ECC0E0EDC0E0E687F0A4FBACF0082B
:10196300E687F0A42CFCE435F0FA1809E687F0A426
:101973002C4B60027401CA35F0FCE433FB09E687A3
:10198300F0D2F7A42CCB35F0FC1908E687F0A42B92
:10199300CC35F0FBE433FD0819E687F0D2E7A42C3D
:1019A3004ACB35F0CD3400FC09E687F0D2E7A42D0D
:1019B300CC35F0FDE433FA0918E687F0D2F7A42C0E
:1019C300CD35F0CA3400FC08E687F0D2E7D2F7A49D
:1019D3002ACC35F07A7E20E70B0ACB33CBCD33CD3F
:1019E300CC33CC33CB3350147004ED30E00ED2F152
:1019F300E4CD3DCDCC3CCC3B5005DA05C2F1EB54F4
:101A03007FC63308E63392F0FBE73309E733C39A23
:101A1300502D2B70190C0D4C4D70151806E608C38C
:101A230033700D20F10AA2F013F6E418800B402462
:101A3300E4F630F002768018F618F618F68024D310
:101A43003B14501074FFA2F013F6187680E418F6D6
:101A530018F6800FA2F013F618E63303F618ECF627
:101A630018EDF6D0E0FDD0E0FCD0E0FBD0E0FA22A8
:101A730012185D601D12186C7005191919801A125D
:101A83001833701F121848C37003E6673319191906
:101A930040071818182208080874FFF618F618F6F5
:101AA30018F6221218486017121829702192F012A2
:101AB300181F7019501720F014080808090909E7BE
:101AC300F61819E7F61819E7F61819E7F6221218A7
:101AD3001F60E6E869701F0808E62480F608E4360C
:101AE300F618547FB47F0CE654806007F6E418F6CA
:101AF30018F622181822E9C6CC08C6CD08C6CE08A7
:101B0300C6CFC0E0E8C0E0EAC0E0EBC0E009E9F816
:101B130009E7FA09E7FBE6F918E6F8C3EC98ED994B
:101B2300EE9AEBC2E7F5F0EFC2E795F0500E600CCA
:101B3300EBCFFBEACEFAE9CDF9E8CCF8EAA2E7D29B
:101B4300E7FAEB33FB13F5F0EEA2E7D2E7FEEF3350
:101B5300FFC5F013A2E730E601B313C5F0C3C0E03D
:101B6300C0F07F00C39BFB605B9418600C401AD0ED
:101B7300E023F9D0E0F8021C518AF0E9486003D26F
:101B8300F0E4AFF0FAF9F8803BEB30E40D89F0EACA
:101B93006003D2F0E4AFF0F9CAF8EB30E30D88F05C
:101BA300EF6002D2F0AFF0E4CAC9F8EB5407601457
:101BB300FBC3EA13FAE913F9E813F8EF135002D25F
:101BC300E0FFDBEDD0E0C0E030E739C3E49FFFF591
:101BD300F0EC98FC42F0ED99FD42F0EE9AFE42F0F3
:101BE300D0E0F9D0E0F8E5F0607AE923F9EE20E7F8
:101BF30042D8028067C3EF33FFEC33FCED33FDEED5
:101C030033FE80EAEC28FCED39FDEE3AFED0E0230A
:101C1300F9D0E0F84002801BC3EE13FEED13FDEC98
:101C230013FCEF135002D2E0FF08B800067F7F7465
:101C3300FF802EEF3350178CF020F00260100CBCA5
:101C4300000C0DBD00080EBE000408E860DFE93398
:101C5300E813FFEE2313FE4F4D4C8008E95480FF39
:101C6300E4FEFDFCEE33EF33F47004FCFD7E80D024
:101C7300E0FBD0E0FAD0E0F8D0E0CFC618CEC6182B
:101C8300CDC618CCC6F92212185D70041818182294
:101C930012186C700D74FFF61819F61819F6181946
:101CA300F622E7548066F612181F700F1218297077
:101CB300F014F608F608F608F680D1121829700C0D
:101CC300F608F608768008E6447F80EC12184B701D
:101CD3000C12183660BFE65480F6E480BB12183647
:101CE300700519191980A5E869700C763F1876807C
:101CF30018F618F6E8F922E6CDC0E018ECC0E0E6E5
:101D030033CD33CDD313F6E719FCE7191933CC33AD
:101D1300C3947F400ECD9D502408E65480F6E4180A
:101D2300F6800FF4043D14501408E6447FF6187649
:101D330080E418F618F6D0E0FCD0E0FD22CCD313F3
:101D4300CCFD18E4C6CBC0E018E4C6CAC0E008085E
:101D5300ED08C633E613F618E433C675F003C3CAB9
:101D630097CA09CB97CB199C40047D08802EBD00F0
:101D730003021E3316B6FF050606081618C3CA3338
:101D8300CACB33CB33CA27CA09CB37CB193CC37D64
:101D930008803E187D0820E75CC633C6CA33CACB29
:101DA30033CB33DDF1D5F0EB30E77BCA97CA09CBF0
:101DB300974ACB199C406F4B7025E620E021806643
:101DC300187D08C3CA97CA09CB97CB199CD3C633CE
:101DD300C6CA33CACB33CB3350C9DDE7D5F0E1D321
:101DE300E4C636C608C636C608C636C608C636C6EC
:101DF3001818188031C3CA97CA09CB97CB199CB35B
:101E03004097C633C6CA33CACB33CB33DD34D5F0A0
:101E13002EC6A2E0C640C8CA27CA09CB37194A70E2
:101E2300BECB3CB480B90808E63308E633601F181C
:101E33001818D0E0FAD0E0FBD0E0FCD0E0FD221887
:101E43007D08CA27CA09CB37CB193CD3808013F648
:101E530018E4B67F11F618B6FF0EF618C60470D252
:101E63000808768080CAF618F618F680C5080808B0
:101E7300EAC0E0EBC0E086F0E7A4FA180986F0E7D1
:101E8300A42AFA180986F0E7A42AFA180986F0E7C3
:101E9300A42AFA1986F0E7A4FBE5F02AFA190886C2
:101EA300F0E7A42BFBE5F03AFA190886F0E7A42B38
:101EB300FBE5F03AFA18180986F0E7A4C5F02BFB06
:101EC300E43AFA1908E7C5F0C6A426F6E5F03BFBA9
:101ED300E43AFA1886F0E7A4F6E5F00826F6E43BC0
:101EE30008F6E43A08F6D0E0FBD0E0FA22E4CFC0EB
:101EF300E0E4CEC0E0E4CDC0E0E4CCC0E075F02087
:101F0300C3E633F608E633F608E633F608E633F6B7
:101F1300181818EC33FCED33FDEE33FEEF33FFC33B
:101F2300EC9709ED9709EE9709EF97191919400FE7
:101F3300FFEC97FC09ED97FD09EE97FE191906D5FD
:101F4300F0BEECF709EDF709EEF709EFF7191919E8
:101F5300D0E0FCD0E0FDD0E0FED0E0FF22121FCBAA
:101F6300181818121EF0121FB719191922121FB7C9
:101F7300191919080808E618181820E7E0121EF0C6
:101F8300121FCB18181822090909E719191920E794
:101F9300DC080808E618181820E703021EF0121FD1
:101FA300CB181818121EF0121FCB181818121FB7CF
:101FB30019191922E4C397F709E497F709E497F786
:101FC30009E497F722181818E4C396F608E496F67E
:101FD30008E496F608E496F6226017080808C6A2F5
:101FE300E713C618C613C618C613C618C613C6D534
:101FF300E0E9226016080808C6C313C618C613C64C
:1020030018C613C618C613C6D5E0EA227009080815
:1020130008226016181818C6C333C608C633C60884
:10202300C633C608C633C6D5E0EA22E627F6080952
:10203300E637F60809E637F60809E637F622E0261A
:10204300F608A3E036F608A3E036F608A3E036F672
:1020530022E026F008A3E036F008A3E036F008A358
:10206300E036F022C3E697F60809E697F60809E694
:1020730097F60809E697F622C3E0C696F608A3E0AA
:10208300C696F608A3E0C696F608A3E0C696F6221F
:10209300C3E096F008A3E096F008A3E096F008A347
:1020A300E096F022E056F608A3E056F608A3E056C1
:1020B300F608A3E056F622E056F008A3E056F0082F
:1020C300A3E056F008A3E056F022E647F60809E637
:1020D30047F60809E647F60809E647F622E0F60858
:1020E300A3E0F608A3E0F608A3E0F622E6F008A3CF
:1020F300E6F008A3E6F008A3E6F022E0FAA3E0FB8B
:10210300A3E0FCA3E0FD22EAF0A3EBF0A3ECF0A331
:10211300EDF022CAC0E0E6F0A308DAFAD0E0FA2232
:10212300CAC0E0E0A3C582CCC582C583CDC583F018
:10213300A3C582CCC582C583CDC583DAE6D0E0CA08
:1021430022C3E498F8E499F91221858026C3E49A1E
:10215300FAE49BFBE920E7E9122185E498F8E49986
:10216300F922C3E498F8E499F9122185E498F8E494
:1021730099F9C3E49AFAE49BFB22EB20E7CFE92029
:10218300E7E0B90010BB0008E88AF084F8AAF0225F
:10219300E4FBC8FA22EB70227B10C833C8C933C9E9
:1021A300335007C39AC3DBF280069A50012ADBEA55
:1021B300C833F4C8C933F4C9FA2275F008E4C83344
:1021C300C8C933C933C99AC99B5004C92AC93BD565
:1021D300F0ECFBC833F4C8E4C9FA22600D08C6A2C8
:1021E300E713C618C613C6D5E0F322600C08C6C3AE
:1021F30013C618C613C6D5E0F422700422600D1866
:10220300C6C333C608C633C6D5E0F4182225181052
:10221300AF08F518400215198008F5184002151982
:10222300D2AF22C0D0251810AF08F51850020519F7
:102233008008F51850020519D2AFD0D0222518F521
:102243008210AF08F518400215198008F5184002EE
:102253001519D2AF851983222518F582E43519F5AE
:102263008322E4732518C582C0E0E51934FFC583D2
:10227300C0E0E518C3958224F810AF08858319855B
:1022830082188008858319858218D2AFCEF0A3E522
:1022930020F0A37808E608F0A3DEFAEFF0A3E581C7
:1022A30024FAF8E608F0A3E608F0A3E608F0A3088A
:1022B30008E608F0A3E608F0A315811581D0E0FE37
:1022C300D0E0F8158115811581E8C0E0EEC0E02269
:1022D3002518C582C0E0E51934FFC583C0E0E518C1
:1022E300C3958224F910AF08858319858218800865
:1022F300858319858218D2AFCEF0A3E520F0A378A9
:1023030008E608F0A3DEFAEFF0A3E58124FBF8E684
:1023130008F0A3E608F0A30808E608F0A3E608F02F
:10232300A315811581D0E0FED0E0F815811581E871
:10233300C0E0EEC0E022851983851882E0A3FEE0A9
:10234300A3F5207808E0A3F608DFFAE0A3FFE0A3F3
:10235300C0E0E0A3C0E0E0A3C0E0E0A3C0E0E0A3EE
:10236300C0E010AF0885821885831980088582181C
:10237300858319D2AFD083D0820201228519838548
:102383001882E0A3FEE0A3F5207808E0A3F608DFB7
:10239300FAE0A3FFE0A3C0E0E0A3C0E0E0A3C0E055
:1023A300E0A3C0E010AF08858218858319800885F3
:1023B3008218858319D2AFD083D08222C0D025184A
:1023C300C582C0E0E51934FFC583C0E0E518C395B5
:1023D3008224F310AF0885831985821880088583CA
:1023E30019858218D2AFC8F0A3E9F0A3EAF0A3EBF2
:1023F300F0A37908E709F0A3D8FAECF0A3EDF0A372
:10240300EEF0A3EFF0A3D0E0F0A3D0E0F0A3D0E090
:10241300F0A3E520F0A3E5F0F0A322851983851846
:1024230082E0C0E0A3E0F9A3E0FAA3E0FBA378080D
:10243300E0F608A3DFFAE0FCA3E0FDA3E0FEA3E0DF
:10244300FFA3E0C0E0A3E0C0E0A3E0F5D0A3E0F584
:1024530020A3E0A3F5F010AF0885831985821880C7
:1024630008858319858218D2AFD082D083D0E0F853
:10247300D0E03274048006740280027401C0E0F478
:1024830004122240D0E01221162274048004740244
:102493008000CCC0E0EDC0E0E518C39CCCAD195082
:1024A300011D10AF068C188D1980068C188D19D25A
:1024B300AF122123D0E0FDD0E0FC22D083D082E90B
:1024C300C0E0E493A3C386F0C5F095F0F908E49364
:1024D300A386F0C5F095F0700BE493A3C399400570
:1024E300E9048002A3E475F002A42582F582E5F0F5
:1024F3003583F583D0E0F9E493A3C0E0E493C0E02F
:1025030022D083D082ECC0E0EDC0E0E493A3FCE4EE
:1025130093A3FDED4C600D122550EC24FFFCED342C
:10252300FFFD80EFE493A3FCE493A3FDED4C600D6A
:1025330012258FEC24FFFCED34FFFD80EFD0E0FD8E
:10254300D0E0FCE493A3C0E0E493C0E022C0E0C386
:10255300E49396087401939618400FE49366700809
:1025630008740193661870007019A3A3C3E49396CB
:10257300087401939618A3A3400DD0E0D0E0D0E0F7
:10258300022540A3A3A3A3A3A3D0E022C0E0C0F0ED
:1025930088F0E4936670080874019366187000A8C5
:1025A300F0A3A3700BD0F0D0E0D0E0D0E002254040
:0725B300A3A3D0F0D0E02249
:1025BC00C0E074F21223BFA2AFE433FED2AFE589C0
:1025CC00A2E15003120987758900C2C5EEA2E09200
:1025DC00AF7F0102241EC0E0C0D0E8C0E0A2AFE48F
:1025EC0033F8D2AFC2C7A2E092AFD0E0F8D0D0D0CF
:1025FC00E03274F51222D3EAFEEBFFEE2434F8EF4E
:10260C003400F988088909EE2435F582EF3400F599
:10261C0083E0F8EE2437F582EF3400F583E0F50A19
:10262C00EC850AF0A4FCAAF0850AF0EDA42AFDE8DA
:10263C002CF8E43DF97A257B00122185EA85088285
:10264C00850983F05407F87401B800028004C33381
:10265C00D8FCC0E0E0131313541FF8EE28F8EF3445
:10266C0000F9E8245DF582E93400F583D0E0F8E068
:10267C00586008EE2434F582EF801EEE2436F58285
:10268C00EF3400F583E0F5F0EA84A8F0EE28F8EFDB
:10269C003400F9E82438F582E93400F583E0F97F59
:1026AC000402237F74F51222D3EAFEEBFFEE2434EE
:1026BC00F582EF3400F583E0C0E0EE2435F582EFCF
:1026CC003400F583D0E0F08E828F83A3A3A3A3A361
:1026DC00A3A3C082C0838E828F83A3A3A3A3A3E0F2
:1026EC00F8A3E0F9D083D082E0C398F508A3E09971
:1026FC00F509EE2480F582EF3400F583E064017077
:10270C0069EE2481F582EF3400F583E0F8A3E0F95B
:10271C008E828F83A3A3A3A3A3A3A3E0FCA3E0FDBA
:10272C008E828F83A3A3A3A3A3E0FAA3E0FBC3EA47
:10273C009CEB9D5027C3EC98ED99402EC3EA98EB87
:10274C009950277C6A7D07EEFAEFFB121275EE2486
:10275C0080F582EF3400F583E4F0800EC3EA98EB49
:10276C009940E0C3EC98ED9950D9EE2434F8EF344D
:10277C0000F9E8FCE9FDEE2435F582EF3400F58331
:10278C00E0F8EE2437F582EF3400F583E0F50AE546
:10279C0008850AF0A4F508AAF0850AF0E509A42A30
:1027AC00F509E82508F8E43509F97A257B001221AA
:1027BC0085EA8C828D83F05407F87401B80002808E
:1027CC0004C333D8FCC0E0E0131313541FF8EE28F5
:1027DC00F8EF3400F9E8245DF582E93400F583D094
:1027EC00E0F8E0586008EE2434F582EF801EEE2409
:1027FC0036F582EF3400F583E0F5F0EA84A8F0EECC
:10280C0028F8EF3400F9E82438F582E93400F58330
:10281C00E0F9122DC80226ABC082C08385188285D0
:10282C001983E0F8A3E0F9C3EA9CEB9D5012C3ECCA
:10283C0098ED994019C3EA98EB99501279018010E0
:10284C00C3EA98EB9940F5C3EC98ED9950EE7900FA
:10285C00D083D08222EAC39CFAEB9DFB22000000BD
:10286C008521878522C622C0E0C0D0E8C0E0E9C03F
:10287C00E0EAC0E0EBC0E0ECC0E0EDC0E0C008C0B6
:10288C0009C00AC00BC082C083C0F0759B00906168
:10289C0082E0A2E64003022951E591A2E640030240
:1028AC0029517591BF90062FE0640570081213A191
:1028BC001213AD80031213A7752100121401E990B5
:1028CC000630F079001213F51211E57A017B0090B5
:1028DC00062EE0F91205B5907803E064426003021D
:1028EC00299A9007CCE014F0600302299AC2AF1227
:1028FC0028FE00782AD0E0F618D0E0F6E59F5407C1
:10290C00F97005909052800390905678081220E050
:10291C00E9C4C0E07829E65508F50808E65509F53C
:10292C0009740B78081221EED0E02508F89062703B
:10293C00E0A2E740F8E8C333906272F0906270E076
:10294C00D2E0F08049E0A2E55024E591A2E5501ECA
:10295C007591DF90062FE0640D7013900651E00422
:10296C00F064287002E4F07A00E0F91214739061BC
:10297C0081E0A2E35009E5E9A2E3500375E9F7A36E
:10298C00E0A2E75009E591A2E7500375917FD0F0E2
:10299C00D083D082D00BD00AD009D008D0E0FDD0A3
:1029AC00E0FCD0E0FBD0E0FAD0E0F9D0E0F8D0D0F9
:1029BC00D0E032C0E0C0D0C082C083906183E0A27E
:1029CC00E05009E5BFA2E0500375BFFEE0A2E15064
:1029DC0009E5BFA2E1500375BFFDE0A2E25009E595
:1029EC00BFA2E2500375BFFBE0A2E35009E5BFA212
:1029FC00E3500375BFF7E0A2E45009E5BFA2E45031
:102A0C000375BFEFE0A2E55009E5BFA2E5500375E1
:102A1C00BFDFE0A2E65009E5BFA2E6500375BFBFD9
:102A2C00D083D0828088C0E0C0D0E8C0E0E9C0E0AC
:102A3C00EAC0E0EBC0E0ECC0E0EDC0E0C0F0E5A720
:102A4C00A2E6500FE5A1A2E6500953A7BF75A1BF9E
:102A5C00122A97E5A7A2E5500CE5A1A2E550065372
:102A6C00A7DF75A1DFE5A7A2E15009E5A1A2E1501E
:102A7C000375A1FDE5A7A2E2500CE5A1A2E2500668
:102A8C0053A7FB75A1FBD0F00229A874F81222D32E
:102A9C0075210190062FE0640670151213418A828D
:102AAC008B83A3A3A3A3A3A3E0FAA3E0FB12138F2E
:102ABC00A2AFE433FED2AF900635E0640170187A11
:102ACC00207B0090062EE0F912063F7A207B0090C6
:102ADC00062EE0F91205BB906182E0D2E6F0900779
:102AEC00CBE0602185C6228016900634E06401702C
:102AFC0008E5C654F84405F5C653BEFC12286C74A0
:102B0C0001652160E4EEA2E092AF7F0102237F0019
:102B1C008E238F24858228858327851882851983A7
:102B2C00E0CEA3E0CF852882852783EBC9EAC8EDE8
:102B3C00CBECCA75F010C3E833C8E933C9EA33CA21
:102B4C00EB33CBC3EA9EF526EB9FF525B35004ABD4
:102B5C0025AA26EC33CCED33CDD5F0DAAE23AF2459
:102B6C002274F11222D38A088B098C0A8D0B740FF4
:102B7C0012225B780C1220E090901A78081220A791
:102B8C0090901A780C1220A77808790C1216D9504C
:102B9C00157808790C122067908F9A78081216F91C
:102BAC00401579018013780C7908122067908F9A60
:102BBC00780C1216F940EB79007F0802237F74ED34
:102BCC001222D38A088B098C0A8D0B741312225B88
:102BDC00780C1220E090901A78081220A790901A86
:102BEC00780C1220A7780C79081216D940117808A5
:102BFC00790C122067AA08AB09AC0AAD0B802275C0
:102C0C0010007511007512007513017810790C12F3
:102C1C0020677810790812202EAA10AB11AC12ADD7
:102C2C00137F0C02237F90901A78081220E08A827E
:102C3C008B8378081220BA7F0402237F74F512224A
:102C4C00D38C828D8378081220E08A828B8378085B
:102C5C00122093EA2404F8EB3400F98C828D83A3C0
:102C6C00A3A3A3E0FCA3E0FD88828983C3E09CF0CE
:102C7C00A3E09DF088828983C3E09420A3E0944E66
:102C8C00402290904A78081220E08A828B83780840
:102C9C001220548A828B83A3A3A3A3E02420F0A345
:102CAC00E0344EF0808074F51222D3E9FE90078157
:102CBC00E0FAA3E0FBEEC333F8E433F9747F28F5B4
:102CCC0082748E39F583E02AF508A3E03BF5097888
:102CDC000812247A90905E1220FE122B1C740212A1
:102CEC0022268A088B098C0A8D0B74107808121F07
:102CFC00F6AA08AB097F0402237F74F11222D38A4F
:102D0C000C8B0D8C0E8D0F740F12225BE0FAA3E06E
:102D1C00FB741112225BE0F508A3E0F509741312A1
:102D2C00225BE0FEA3E0FF780812247AEA2401F586
:102D3C0008EB3400F509E4F50AF50B780C79081268
:102D4C001E7090906A78081220E0780C7908121E98
:102D5C0070AA0CAB0DAC0EAD0F122B1C7402122210
:102D6C00268B09EA450960047A0180027A00EC2A74
:102D7C00FCED3400FDECF8EDF97A717B0212218543
:102D8C0088088909E4F50AF50B8E828F837808127E
:102D9C0020EFECF8EDF97A717B021221858A088B11
:102DAC0009740578081221FD8E828F83A3A3A3A337
:102DBC00E508F0A3E509F07F0802237FC082C083F9
:0A2DCC00E9906000F0D083D082226D
:102DD800FFFFFFFFFFFFFFFF02012202012274F63F
:102DE80012226774FF122210EAFEEBFF900AFFE03E
:102DF80070077AFF7BFF022EB88E088F09780812B9
:102E0800250400000400FA00202EF4012B2EE8030C
:102E1800362ED007412E4C2E8518828519837400D2
:102E2800F080278518828519837408F0801C85181E
:102E3800828519837410F08011851882851983742E
:102E480018F080067AFF7BFF8066900AFDE0F8851F
:102E58001882851983E0131313541F6870067A00CB
:102E68007B00804C851882851983AC82AD837B01F9
:102E7800900AF9E0F8A3E0F5838882A3A3A3A3A3AB
:102E8800A3E0FA900AFBE0F8A3E0F5838882E0F972
:102E98001207EFE960067AFF7BFF801485188285A8
:102EA8001983E0131313541F900AFDF07A007B0076
:102EB80074011222267F0202233974F712226774E2
:102EC800FF122210E9FE900AFFE070077AFF7BFFED
:102ED800022F87EE24FE600E24FE601524FC601C81
:102EE80024F86023802C8518828519837400F0806B
:102EF800278518828519837408F0801C85188285B7
:102F080019837410F080118518828519837418F05C
:102F180080067AFF7BFF8067900AFEE0F8851882BA
:102F2800851983E0131313541F6870067A007B0019
:102F3800804D851882851983AC82AD837B01900A08
:102F4800F9E0F8A3E0F5838882A3A3A3A3A3A3A32E
:102F5800E0FA900AFBE0F8A3E0F5838882E0F91232
:102F680007EFE960067AFF7BFF80148518828519D0
:102F780083E0131313541F900AFEF07A007B007449
:102F8800011222267F0102233974F712226774FF87
:102F9800122210EAFEEBFF900AFFE070077AFF7B2F
:102FA800FF023071C3EE94BCEF9400400B85188289
:102FB8008519837401F08059C3EE9462EF94004040
:102FC8000B8518828519837402F08045C3EE942A14
:102FD800EF9400400B8518828519837403F08031C3
:102FE800C3EE9414EF9400400B85188285198374FE
:102FF80004F0801DC3EE940AEF9400400B851882FC
:103008008519837405F080098518828519837406EB
:10301800F0900B00E0F8851882851983E068700647
:103028007A007B008043851882851983AC82AD8342
:103038007B01900AF9E0F8A3E0F5838882A3A3E076
:10304800FA900AFBE0F8A3E0F5838882E0F912071A
:10305800EFE960067AFF7BFF800F85188285198368
:10306800E0900B00F07A007B0074011222267F01A9
:1030780002233974F712226774FF122210E9FE90B6
:103088000B15E06E70067A007B008077EE600B858A
:1030980018828519837430F0800985188285198310
:1030A8007400F0900B06E0600A851882851983E0A9
:1030B800D2E1F0900B14E0600A851882851983E04C
:1030C800D2E7F0851882851983AC82AD837B0190A5
:1030D8000AF9E02414F8A3E03400F988828983E02F
:1030E800FA900AFBE0F8A3E0F5838882E0F912077A
:1030F800EFE960067AFF7BFF8009EE900B15F07A06
:10310800007B0074011222267F0102233974F71212
:10311800226774FF122210E9FE900B16E0605CEE45
:10312800600B8518828519837402F08009851882DE
:103138008519837400F0851882851983AC82AD8364
:103148007B01900AF9E0240FF8A3E03400F98882A3
:103158008983E0FA900AFBE0F8A3E0F5838882E02F
:10316800F91207EFE960077AFF7BFF0231FB851848
:1031780082851983E0900B05F08074900AFFE07057
:10318800067AFF7BFF806CEE600C900B05E0600612
:103198007A007B00805DEE600B8518828519837448
:1031A80001F080098518828519837400F0851882DA
:1031B800851983AC82AD837B01900AF9E0240FF86E
:1031C800A3E03400F988828983E0FA900AFBE0F8EA
:1031D800A3E0F5838882E0F91207EFE960067AFF39
:1031E8007BFF800F851882851983E0900B05F07AA4
:1031F800007B0074011222267F01022339C082C09D
:103208008374FF122210900AFFE070077AFF7BFF99
:1032180002352D8518828519837400F085188285FA
:103228001983AC82AD837B01900AF9E0240FF8A3DF
:10323800E03400F988828983E0FA900AFBE0F8A379
:10324800E0F5838882E0F91207EFE960077AFF7BEF
:10325800FF02352D851882851983AC82AD837B01E9
:10326800900AF9E0F8A3E0F5838882A3A3A3A3A3B7
:10327800E0FA900AFBE0F8A3E0F5838882E0F9120F
:1032880007EFE960077AFF7BFF02352D85188285F5
:103298001983AC82AD837B01900AF9E0F8A3E0F5CD
:1032A800838882A3A3A3A3E0FA900AFBE0F8A3E033
:1032B800F5838882E0F91207EFE960077AFF7BFF60
:1032C80002352D900B16E0700302340585188285AF
:1032D8001983740CF0851882851983AC82AD837BC1
:1032E80001900AF9E0F8A3E0F5838882A3A3A3A3D9
:1032F800E0FA900AFBE0F8A3E0F5838882E0F9128F
:1033080007EFE960077AFF7BFF02352D908FB61231
:1033180020FE1207E985188285198374C0F0900A87
:10332800FFE0A2E0500A851882851983E0D2E5F013
:10333800851882851983AC82AD837B01900AF9E0F8
:10334800F8A3E0F5838882A3A3A3A3E0FA900AFB7D
:10335800E0F8A3E0F5838882E0F91207EFE9600757
:103368007AFF7BFF02352D900B05E0600B851882F4
:103378008519837402F08009851882851983740081
:10338800F0851882851983AC82AD837B01900AF998
:10339800E0240FF8A3E03400F988828983E0FA90EA
:1033A8000AFBE0F8A3E0F5838882E0F91207EFE969
:1033B80060077AFF7BFF02352D8518828519837493
:1033C80000F0851882851983AC82AD837B01900A51
:1033D800F9E0F8A3E0F5838882A3A3A3A3A3E0FA06
:1033E800900AFBE0F8A3E0F5838882E0F91207EF82
:1033F800E970030235297AFF7BFF02352D85188293
:103408008519837404F0851882851983AC82AD838D
:103418007B01900AF9E0F8A3E0F5838882A3A3A3CF
:10342800A3E0FA900AFBE0F8A3E0F5838882E0F9CC
:103438001207EFE960077AFF7BFF02352D900B0634
:10344800E07008900AFFE0A2E0400B851882851919
:10345800837440F080098518828519837460F0852B
:103468001882851983AC82AD837B01900AF9E0F854
:10347800A3E0F5838882A3A3A3A3E0FA900AFBE064
:10348800F8A3E0F5838882E0F91207EFE960077A8C
:10349800FF7BFF02352D908FB61220FE1207E990B0
:1034A8000B05E0600B8518828519837401F080098B
:1034B8008518828519837400F0851882851983AC74
:1034C80082AD837B01900AF9E0240FF8A3E0340071
:1034D800F988828983E0FA900AFBE0F8A3E0F58393
:1034E8008882E0F91207EFE960067AFF7BFF8035F2
:1034F8007C047D0B7B01900AF9E0F8A3E0F5838852
:1035080082A3A3A3A3A3E0FA900AFBE0F8A3E0F543
:10351800838882E0F91207EFE960067AFF7BFF8073
:10352800047A007B007401122226D083D082020123
:103538002274F412226789087E007F00C3E508928E
:10354800E0F508900B16E060067A007B0080659035
:103558000AFFE070067AFF7BFF8059900B04E0F5C4
:1035680009900AFFE05508900B04F0900B04E06501
:103578000860067EFF7FFF80047E007F00E50870FC
:1035880006900B08E060077901120735800579007D
:10359800120735E508601912073B8A0A8B0BE50A02
:1035A800450B600CE509900B04F07AFF7BFF800463
:1035B800EEFAEFFB7F0402233974F712226774FED8
:1035C800122210E9FEEEC3942940077AFF7BFF021E
:1035D8003702EE705B790012072F851882851983F0
:1035E8007400F0740112225B7407F0851882851943
:1035F80083AC82AD837B02900AF9E02412F8A3E041
:103608003400F988828983E0FA900AFBE0F8A3E0A5
:10361800F5838882E0F91207EFE960077AFF7BFFFC
:10362800023702900B087400F07A007B0002370220
:10363800790112072F8518828519837420F0740187
:103648006E7011740112225B7400F07A057B00120F
:103658000729803DEEC394065011740112225B7451
:1036680001F07A057B001207298026EEC3941550D5
:1036780011740112225B7402F07A0A7B0012072986
:10368800800F740112225B7403F07A147B00120716
:1036980029740112225BE0C4333354C04407C0E0EC
:1036A800740112225BD0E0F0851882851983AC8200
:1036B800AD837B02900AF9E02412F8A3E03400F904
:1036C80088828983E0FA900AFBE0F8A3E0F5838812
:1036D80082E0F91207EFE960067AFF7BFF801B9012
:1036E8000AFF7408F0900B017400F0900B08740145
:1036F800F079001207417A007B0074021222267FBB
:103708000102233974F712226774FF122210EAFEAD
:10371800EBFF900AFFE070077AFF7BFF0237F1901A
:103728000B16E060077AFF7BFF0237F1900B08E089
:10373800601EEE4F6015C3EE9429EF9400500CEE16
:10374800F91207477A007B000237F1790012074720
:10375800C3EE9404EF940050067E047F00800DC3EE
:10376800EE94E9EF940340047EE87F0378E8790358
:10377800EEFAEFFB122185E824FF8518828519836C
:10378800F0851882851983AC82AD837B01900AF994
:10379800E0F8A3E0F5838882A3E0FA900AFBE0F85A
:1037A800A3E0F5838882E0F91207EFE960067AFF63
:1037B8007BFF803578E87903851882851983E0FADC
:1037C8007B002401FAEB3400FB12217D900B02E808
:1037D800F0A3E9F0900B02E0FAA3E0FBC313FBEAC5
:1037E80013FA1207297A007B0074011222267F013E
:1037F80002233974F712226774FF122210E9FE902F
:103808000B06E06E70077A007B000239FEEE70034B
:10381800023900851882851983AC82AD837B0190BB
:103828000AF9E0F8A3E0F5838882A3A3A3A3E0FA4A
:10383800900AFBE0F8A3E0F5838882E0F91207F527
:10384800E960077AFF7BFF0239FE851882851983B4
:10385800E0C2E5F0851882851983AC82AD837B01CF
:10386800900AF9E0F8A3E0F5838882A3A3A3A3E074
:10387800FA900AFBE0F8A3E0F5838882E0F91207E2
:10388800EFE960077AFF7BFF0239FE908FBA1220BA
:10389800FE1207E98518828519837402F0900B14CB
:1038A800E0600A851882851983E0D2E7F0900B154D
:1038B800E0600A851882851983E04430F085188213
:1038C800851983AC82AD837B01900AF9E02414F852
:1038D800A3E03400F988828983E0FA900AFBE0F8D3
:1038E800A3E0F5838882E0F91207EFE97003023953
:1038F800F57AFF7BFF0239FE851882851983AC8231
:10390800AD837B01900AF9E0F8A3E0F5838882A3F0
:10391800A3A3A3E0FA900AFBE0F8A3E0F58388826A
:10392800E0F91207F5E960077AFF7BFF0239FE909C
:103938000AFFE0A2E0500C851882851983E0D2E5E1
:10394800F0800A851882851983E0C2E5F08518821F
:10395800851983AC82AD837B01900AF9E0F8A3E076
:10396800F5838882A3A3A3A3E0FA900AFBE0F8A357
:10397800E0F5838882E0F91207EFE960067AFF7BB9
:10398800FF8073908FBA1220FE1207E9900B14E0A3
:10399800600B8518828519837480F08009851882E8
:1039A8008519837400F0900B15E0600A85188285EC
:1039B8001983E04430F0851882851983AC82AD8381
:1039C8007B01900AF9E02414F8A3E03400F9888216
:1039D8008983E0FA900AFBE0F8A3E0F5838882E0A7
:1039E800F91207EFE960067AFF7BFF8009EE900B7A
:1039F80006F07A007B0074011222267F0102233927
:103A080074F712226774FF122210E9FE74705E6068
:103A18000B8518828519837401F08017EE600B8579
:103A280018828519837400F08009851882851983A6
:103A38007440F0851882851983AC82AD837B019030
:103A48000AF9E02412F8A3E03400F988828983E0B7
:103A5800FA900AFBE0F8A3E0F5838882E0F9120700
:103A6800EFE9600D900AFF7400F07AFF7BFF023BDC
:103A78002D851882851983E054BF900B01F08518B5
:103A8800828519837400F0EEA2E6400A85188285C3
:103A98001983E0D2E2F0EEA2E5400A851882851982
:103AA80083E0D2E1F0EEA2E4400A8518828519830A
:103AB800E0D2E0F0EEA2E3400A851882851983E09F
:103AC8004438F0851882851983AC82AD837B0190D8
:103AD8000AF9E02413F8A3E03400F988828983E026
:103AE800FA900AFBE0F8A3E0F5838882E0F9120770
:103AF800EFE9600C900AFF7400F07AFF7BFF8025E5
:103B0800EE600A74086E6005790012072FEE900ABD
:103B1800FFF0900B087400F0908FB61220FE120789
:103B2800E97A007B0074011222267F01022339748E
:103B3800F712226774FF122210E9FE900B16E06E4E
:103B480070077A007B00023BEAEE605A900B17E0A0
:103B580070077AFF7BFF023BEA790012073579008C
:103B6800120753900B18E0FAA3E0FB12074D8518D3
:103B7800828519837400F0851882851983AC82AD1B
:103B8800837B017A23900AFBE0F8A3E0F58388821F
:103B9800E0F91207EFE9900B167401F079011207AA
:103BA8003512073B80387900120735900B04E08501
:103BB8001882851983F0851882851983AC82AD83B4
:103BC8007B017A23900AFBE0F8A3E0F5838882E082
:103BD800F91207EFE9900B167400F012073B7A0010
:103BE8007B0074011222267F01022339C082C08320
:103BF800EAF8EBF9900AFDE0600B14601514601FF9
:103C080014602980348882898374FAF0A37400F0E0
:103C180080328882898374F4F0A37401F080258847
:103C280082898374E8F0A37403F0801888828983FA
:103C380074D0F0A37407F0800B888289837400F035
:103C4800A37400F07A007B00D083D082020122C0E6
:103C580082C083EAF8EBF9900AFEE0600B14601169
:103C680014601714601D8024888289837402F08090
:103C780021888289837404F0801888828983740873
:103C8800F0800F888289837410F080067AFF7BFFAA
:103C98008016900B07E0600C88828983E0C3338824
:103CA800828983F07A007B00D083D082020122C00F
:103CB80082C083EAF8EBF9900B00E01460111460FD
:103CC8001B14602514602F146039146043804E88DB
:103CD80082898374BCF0A37400F0804C8882898345
:103CE8007462F0A37400F0803F88828983742AF09C
:103CF800A37400F08032888289837414F0A374005E
:103D0800F0802588828983740AF0A37400F08018F3
:103D1800888289837405F0A37400F0800B888289F7
:103D2800837400F0A37400F07A007B00D083D08203
:103D3800020122C082C083EAF8EBF9900B16E0601A
:103D4800067AFF7BFF8015900B02E0FAA3E0FB8860
:103D5800828983EAF0A3EBF07A007B00D083D082DB
:103D6800020122C082C083EAF8EBF9900B04E088D4
:103D7800828983F07A007B00D083D082020122748A
:103D8800E912226774E81222108A088B09ECFEED0A
:103D9800FF89168518828519837401F0740112222F
:103DA8005B7400F0851882851983AC82AD837B0231
:103DB800900AF9E02412F8A3E03400F98882898394
:103DC800E0FA900AFBE0F8A3E0F5838882E0F912B4
:103DD80007EFE960077AFF7BFF0246DC908FBE128F
:103DE80020FE1207E98518828519837400F085186A
:103DF80082851983AC82AD837B01900AF9E0240F98
:103E0800F8A3E03400F988828983E0FA900AFBE09D
:103E1800F8A3E0F5838882E0F91207EFE960077AF2
:103E2800FF7BFF0246DC851882851983AC82AD834F
:103E38007B01900AF9E0F8A3E0F5838882A3A3A3A5
:103E4800A3A3E0FA900AFBE0F8A3E0F5838882E0F8
:103E5800F91207EFE960077AFF7BFF0246DC851855
:103E680082851983AC82AD837B01900AF9E0241224
:103E7800F8A3E03400F988828983E0FA900AFBE02D
:103E8800F8A3E0F5838882E0F91207EFE960077A82
:103E9800FF7BFF0246DC851882851983AC82AD83DF
:103EA8007B01900AF9E02417F8A3E03400F988822E
:103EB8008983E0FA900AFBE0F8A3E0F5838882E0C2
:103EC800F91207EFE960077AFF7BFF0246DC8518E5
:103ED80082851983AC82AD837B01900AF9E0F8A34F
:103EE800E0F5838882A3A3A3A3E0FA900AFBE0F895
:103EF800A3E0F5838882E0F91207EFE960077AFF0B
:103F08007BFF0246DC851882851983740CF08518BE
:103F180082851983AC82AD837B01900AF9E0F8A30E
:103F2800E0F5838882A3A3A3A3E0FA900AFBE0F854
:103F3800A3E0F5838882E0F91207EFE960077AFFCA
:103F48007BFF0246DC908FC21220FE1207E9900B1D
:103F58001AE0F8A3E0F5838882A3A3A3A3A3A3A3ED
:103F6800A3A3E0851882851983F0851882851983B3
:103F7800AC82AD837B01900AF9E0F8A3E0F5838871
:103F880082A3A3E0FA900AFBE0F8A3E0F583888215
:103F9800E0F91207EFE960077AFF7BFF0246DC9041
:103FA8000B1AE0F8A3E0F5838882A3A3A3A3A3A335
:103FB800A3A3E0851882851983F085188285198363
:103FC800AC82AD837B01900AF9E0F8A3E0F5838821
:103FD80082A3E0FA900AFBE0F8A3E0F5838882E088
:103FE800F91207EFE960077AFF7BFF0246DCE51666
:103FF8006021900B1AE0F8A3E0F5838882A3A3A3BD
:10400800A3A3A3A3A3A3A3E044E0851882851983EF
:10401800F0801D900B1AE0F8A3E0F5838882A3A333
:10402800A3A3A3A3A3A3A3A3E0851882851983F060
:10403800851882851983AC82AD837B01900AF9E0EB
:10404800F8A3E0F5838882A3A3A3A3A3A3E0FA902F
:104058000AFBE0F8A3E0F5838882E0F91207EFE9AC
:1040680060077AFF7BFF0246DCE516601C900B1A9E
:10407800E0240BF8A3E03400F988828983E044E067
:10408800851882851983F0800B908C31E085188221
:10409800851983F0851882851983AC82AD837B01ED
:1040A800900AF9E0F8A3E0F5838882A3A3A3A3A369
:1040B800A3A3E0FA900AFBE0F8A3E0F5838882E086
:1040C800F91207EFE960077AFF7BFF0246DCE51685
:1040D8006009908FBE1220FE1207E98518828519A3
:1040E800837440F0851882851983AC82AD837B0187
:1040F800900AF9E0F8A3E0F5838882A3A3A3A3E0DC
:10410800FA900AFBE0F8A3E0F5838882E0F9120749
:10411800EFE960077AFF7BFF0246DC851882851984
:10412800837478F0851882851983AC82AD837B010E
:10413800900AF9E0F8A3E0F5838882A3A3A3A3A3D8
:10414800E0FA900AFBE0F8A3E0F5838882E0F91230
:1041580007EFE960077AFF7BFF0246DC908C32E0CC
:10416800F50CA3E0F50DAA0CAB0DE4FCFD1207E974
:104178008518828519837400F0851882851983ACA7
:1041880082AD837B01900AF9E0F8A3E0F583888289
:10419800A3A3A3A3A3E0FA900AFBE0F8A3E0F583A6
:1041A8008882E0F91207EFE960077AFF7BFF024691
:1041B800DC851882851983AC82AD837B02900AF96D
:1041C800E0F8A3E0F5838882A3A3A3A3A3A3A3A3F2
:1041D800A3A3E0FA900AFBE0F8A3E0F5838882E065
:1041E800F91207F5E960077AFF7BFF0246DC8518BC
:1041F80082851983E0F87900E4C8F9740112225B1A
:10420800E0FA7B00E84AF8E94BF988148915A81404
:10421800A9157A0C7B00122185E8F50A908F96780B
:104228000C1220E0850882850983A3A3A3A3A3A376
:10423800A3A3780C1220EF850882850983A3A3A382
:10424800A3780C1220EF850882850983780C122048
:10425800EF908F96780C1220E08E828F83A3A3A311
:10426800A3A3A3A3A3780C1220EF8E828F83A3A30A
:10427800A3A3780C1220EF8E828F83780C1220EF84
:10428800750B00E50BC3950A400302448385188229
:10429800851983AC82AD837B0C900AF9E0240BF876
:1042A800A3E03400F988828983E0FA900AFBE0F8F9
:1042B800A3E0F5838882E0F91207F5E960077AFF41
:1042C8007BFF0246DC851882851983E0F87900E4D3
:1042D800C8F9740112225BE0FA7B00E84AF8E94B5E
:1042E800F9741212225BE8F0A3E9F0740212225B5F
:1042F800E0F87900E4C8F9740312225BE0FA7B0065
:10430800E84AF8E94BF9741412225BE8F0A3E9F0E3
:10431800740412225BE0F87900E4C8F974051222EB
:104328005BE0FA7B00E84AF8E94BF9741612225B65
:10433800E8F0A3E9F0741212225BE0F50CA3E0F5B3
:104348000DE50D3395E0F50EF50F8E828F83780C11
:10435800122054741412225BE0F50CA3E0F50DE56D
:104368000D3395E0F50EF50F8E828F83A3A3A3A3DB
:10437800780C122054741612225BE0F50CA3E0F5B9
:104388000DE50D3395E0F50EF50F8E828F83A3A30F
:10439800A3A3A3A3A3A3780C122054740612225B30
:1043A800E0F87900E4C8F9740712225BE0FA7B00B0
:1043B800E84AF8E94BF9740C12225BE8F0A3E9F03B
:1043C800740812225BE0F87900E4C8F97409122233
:1043D8005BE0FA7B00E84AF8E94BF9740E12225BBD
:1043E800E8F0A3E9F0740A12225BE0F87900E4C867
:1043F800F9740B12225BE0FA7B00E84AF8E94BF902
:10440800741012225BE8F0A3E9F0740C12225BE04E
:10441800F50CA3E0F50DE50D3395E0F50EF50F85E8
:104428000882850983780C122054740E12225BE0EE
:10443800F50CA3E0F50DE50D3395E0F50EF50F85C8
:104448000882850983A3A3A3A3780C1220547410AF
:1044580012225BE0F50CA3E0F50DE50D3395E0F5D0
:104468000EF50F850882850983A3A3A3A3A3A3A39D
:10447800A3780C122054050B02428B85088285090B
:1044880083780C1220E07410780C12200F908C2680
:1044980078101220E0780C7910121EF0850A10E4CA
:1044A800F511F512F513780C7910121EF0AA0CAB61
:1044B8000DAC0EAD0F850882850983E50CF0A3E5E8
:1044C8000DF0A3E50EF0A3E50FF0850882850983BA
:1044D800A3A3A3A3780C1220E07410780C12200F69
:1044E800908C2678101220E0780C7910121EF08536
:1044F8000A10E4F511F512F513780C7910121EF074
:10450800AA0CAB0DAC0EAD0F850882850983A3A359
:10451800A3A3E50CF0A3E50DF0A3E50EF0A3E50FCA
:10452800F0850882850983A3A3A3A3A3A3A3A378E3
:104538000C1220E07410780C12200F908C26781042
:104548001220E0780C7910121EF0850A10E4F5119B
:10455800F512F513780C7910121EF0AA0CAB0DACFD
:104568000EAD0F850882850983A3A3A3A3A3A3A3E4
:10457800A3E50CF0A3E50DF0A3E50EF0A3E50FF01D
:104588008E828F83780C1220E07410780C12200F22
:10459800908C2A78101220E0780C7910121EF08581
:1045A8000A10E4F511F512F513780C7910121EF0C3
:1045B800AA0CAB0DAC0EAD0F8E828F83E50CF0A369
:1045C800E50DF0A3E50EF0A3E50FF08E828F83A32F
:1045D800A3A3A3780C1220E07410780C12200F907B
:1045E8008C2A78101220E0780C7910121EF0850AB7
:1045F80010E4F511F512F513780C7910121EF0AAD3
:104608000CAB0DAC0EAD0F8E828F83A3A3A3A3E5D5
:104618000CF0A3E50DF0A3E50EF0A3E50FF08E82F4
:104628008F83A3A3A3A3A3A3A3A3780C1220E0744E
:1046380010780C12200F908C2A78101220E0780C39
:104648007910121EF0850A10E4F511F512F51378A9
:104658000C7910121EF0AA0CAB0DAC0EAD0F8E82A9
:104668008F83A3A3A3A3A3A3A3A3E50CF0A3E50DA2
:10467800F0A3E50EF0A3E50FF08E828F83A3A3A32A
:10468800A3A3A3A3A3C082C083908FC6780C1220D3
:10469800E0D083D082780C12169E401B908FCA7887
:1046A8000C1220E08E828F83A3A3A3A3A3A3A3A3AA
:1046B800780C1220548019908FCE780C1220E08E3E
:1046C800828F83A3A3A3A3A3A3A3A3780C1220542C
:1046D8007A007B0074181222267F0F02233974ECAB
:1046E80012226774F9122210EAFEEBFF74031222F9
:1046F8005BAC82AD837B047A0D900AFBE0F8A3E003
:10470800F5838882E0F91207F5E960077A077B00EC
:104718000248B5740612225BE0C4540F5403F874BF
:104728000312225BE0131313541F541C488518828C
:10473800851983F0740612225BE01313543F540367
:10474800F8740412225BE0131313541F541C48C05E
:10475800E0740112225BD0E0F0740612225BE05490
:1047680003F8740512225BE0131313541F541C48FA
:10477800C0E0740212225BD0E0F0750800E508C3BF
:10478800940340030248B185080A750B0085188216
:10479800851983E582250AF582E583350BF583E0E3
:1047A8007033908F961220FEE508A8087900E87506
:1047B800F004A4C885F00975F000A42509F5097569
:1047C800F004E9A42509F9EE28F582EF39F58312FA
:1047D800210A0248AC908FD21220FEE508A8087979
:1047E80000E875F004A4C885F00975F000A425094F
:1047F800F50975F004E9A42509F9EE28F582EF39E1
:10480800F58312210A85080A750B00851882851917
:1048180083E582250AF582E583350BF583E024FFDD
:10482800F8E8C0E085080A750B00851882851983A9
:10483800E582250AF582E583350BF583D0E0F0E8BB
:104848006062E508A8087900E875F004A4C8AAF031
:1048580075F000A42AFA75F004E9A42AF9EE28F5FF
:1048680082EF39F583780C1220E0908FD6781012F9
:1048780020E0780C79101218F3E508A8087900E808
:1048880075F004A4C8AAF075F000A42AFA75F0041B
:10489800E9A42AF9EE28F582EF39F583780C12207D
:1048A800EF02480D05080247857A007B007407125D
:1048B80022267F0C02233974F7122267EAF8EBF9F3
:1048C800900AFDE0600B14601714602314602F80B9
:1048D8003C908FDA1220FE8882898312210A803365
:1048E800908FDE1220FE8882898312210A8024900C
:1048F8008FE21220FE8882898312210A8015908F08
:10490800E61220FE8882898312210A80067AFF7BBC
:10491800FF80047A007B007F01022339C082C083B4
:10492800EAF8EBF9900AFEE0600B14601514601FBA
:104938001460298034888289837400F0A37440F05D
:10494800802D88828983749CF0A3741FF08020884E
:104958008289837400F0A37410F08013888289839D
:104968007400F0A37408F080067AFF7BFF80219022
:104978000B07E0601788828983E0FAA3E0FBC31382
:10498800FBEA13FA88828983F0A3EBF07A007B00B4
:10499800D083D08202012274E812226774EE1222B8
:1049A80010851882851983EAF0A3EBF08C168D1711
:1049B800751400751500740612225BAA82AB831267
:1049C80007897E007F00C3EE9403EF9400A2D265AE
:1049D800D0334003024B82EEF8EFF9E875F004A4F7
:1049E800C8AAF075F000A42AFA75F004E9A42AF917
:1049F800851882851983E028FAA3E0398A82F5832D
:104A080078081220E0EEF8EFF9E875F004A4C8AAD7
:104A1800F075F000A42AFA75F004E9A42AF9E5165D
:104A280028F582E51739F583780812207BAA08ABA8
:104A380009AC0AAD0B12166B8A088B098C0A8D0B10
:104A48007808121718908FEA78101220E078087901
:104A580010121C8A85080C85090D850A0E850B0F16
:104A6800EEF8EFF9E875F004A4C8AAF075F000A410
:104A78002AFA75F004E9A42AF9740612225BE58281
:104A880028F582E58339F58378101220E0908F9617
:104A980078081220E07810790812187B7003024B0E
:104AA8003D850C08850D09850E0A850F0BEEF8EF7C
:104AB800F9E875F004A4C8AAF075F000A42AFA75FC
:104AC800F004E9A42AF9740612225BE58228F5822B
:104AD800E58339F58378101220E078087910121CE4
:104AE8008A908FEE78101220E078087910121A73E5
:104AF800740212225B78081220EF908C4978101209
:104B080020E0740212225B78081220E0C50BC2E78D
:104B1800F50B781079081218A75054750801750913
:104B280000EE78081221FDE5084514F514E509455D
:104B380015F515803A908C4178081220E0780C79A8
:104B4800081218A74011908C4578081220E07808C0
:104B5800790C1218A75018750801750900EE780825
:104B68001221FDE5084514F514E5094515F515EE7E
:104B78002401FEEF3400FF0249CEAA14AB157412CB
:104B88001222267F1002233974E812226774F31266
:104B98002210740712225BEAF0A3EBF074051222CC
:104BA8005BECF0A3EDF0740312225B7400F0A374C5
:104BB80000F0851882851983AC82AD837B037A0D5A
:104BC800900AFBE0F8A3E0F5838882E0F91207F584
:104BD800E960077A077B00024DDA85188285198318
:104BE800E0541FF0740112225BE0541FF0740212AB
:104BF800225BE0541FF07E007F00C3EE9403EF9425
:104C080000A2D265D0334003024DD0EEF8EFF9E8A8
:104C180075F004A4C8AAF075F000A42AFA75F00487
:104C2800E9A42AF9740712225BE028FAA3E0398A7A
:104C380082F58378101220E0EEF8EFF9E875F004B9
:104C4800A4C8AAF075F000A42AFA75F004E9A42A09
:104C5800F9740512225BE028FAA3E0398A82F58309
:104C6800781012207BAA10AB11AC12AD1312166B80
:104C78008A148B158C168D177814121718908FEAD2
:104C880078101220E078147910121C8A85140C858B
:104C9800150D85160E85170F851882851983E582EF
:104CA8002EF582E5833FF583E07003024D89751484
:104CB800007515B075164C751745908C267810122E
:104CC80020E0781012173378147910121C8A851492
:104CD8000885150985160A85170B85188285198395
:104CE800E5822EF582E5833FF583E024FFF8E8C0EE
:104CF800E0851882851983E5822EF582E5833FF5E4
:104D080083D0E0F0E86011908FF278101220E078FC
:104D18000879101218F380C2850C14850D15850EBC
:104D280016850F1778147908121C8A908FEE781060
:104D38001220E078147910121A73740912225B7821
:104D4800141220EF908C3D78141220E0740912227E
:104D58005B78101220E0C513C2E7F51378147910B8
:104D68001218A75058751001751100EE781012210D
:104D7800FD740312225BE04510F0A3E04511F080BA
:104D88003C908C3578101220E0780C79101218A716
:104D98004011908C3978101220E07810790C121894
:104DA800A7501A751001751100EE78101221FD74C4
:104DB8000312225BE04510F0A3E04511F0EE240158
:104DC800FEEF3400FF024C02740312225BE0FAA3E8
:104DD800E0FB740D1222267F1002233974EA122296
:104DE8006774E01222108A148B158C128D13750BC0
:104DF80002900B16E0600A790012075F750A0180BD
:104E080003750A00740612225BAA82AB8312076537
:104E1800740112225BAA82AB8312076B74021222FE
:104E28005BAA82AB83120771740412225BAA82AB5D
:104E380083120777900AFFE0F50C8518828519839D
:104E4800AA82AB8312077D7E007F00850B10751147
:104E580000C3EE9510EF9511A2D265D03350217999
:104E680000AC12AD13AA14AB151207838A108B116C
:104E7800E5104511600AEE2401FEEF3400FF80CBF7
:104E8800850B10751100E5106E7003E5116F700940
:104E9800750800750900024F487E007F00850B10D9
:104EA800751100C3EE9510EF9511A2D265D033505D
:104EB8002B7901740812225BAC82AD837414122220
:104EC8005BAA82AB831207838A108B11E510451108
:104ED800600AEE2401FEEF3400FF80C1850B1075D7
:104EE8001100E5106E7003E5116F70087508007504
:104EF8000900804C740812225BAC82AD83AA12AB05
:104F08001312079BEAF50E741412225BAC82AD8370
:104F1800AA14AB151207A1EAF50D7508007509006A
:104F2800E50D700C74014508F50874004509F5098C
:104F3800E50E700C74024508F50874004509F5097A
:104F4800900AFD74FFF0900AFE74FFF0900B007455
:104F5800FFF0900B0274FFF0A374FFF0900AFF7447
:104F6800FFF0900B0474FFF0900B017401F07406CD
:104F780012225BE0FAA3E0FB12071D740112225B08
:104F8800E0F9120723740212225BE0FAA3E0FB1295
:104F98000729740412225BE0FAA3E0FB12074DA96B
:104FA8000C120759851882851983E0F9120741E523
:104FB8000A6005790112075FAA08AB09742012225A
:104FC800267F0E02233974F012226774E21222102F
:104FD800740612225BAC82AD83741212225BAA8221
:104FE800AB831207A78A088B09AE08AF0974036E52
:104FF800700374006F6003025147740212225BAAA7
:1050080082AB8312078F741212225B78081220E099
:105018007808121718740212225B780C1220E078B4
:1050280008790C1218F37808121790741212225B80
:1050380078081220EF741612225B78081220E078A4
:1050480008121718740212225B780C1220E07808F4
:10505800790C1218F37808121790741612225B78DC
:10506800081220EF741A12225B78081220E07808E0
:10507800121718740212225B780C1220E078087953
:105088000C1218F37808121790741A12225B780819
:105098001220EF741212225BAA82AB831206AB8530
:1050A8001882851983AA82AB831207957406122287
:1050B8005B780C1220E0851882851983E0F508A337
:1050C800E0F509E4F50AF50B780C7908121E7074FE
:1050D8000612225B780C1220EF740A12225B780CFD
:1050E8001220E0851882851983E0F508A3E0F50908
:1050F800E4F50AF50B780C7908121E70740A12226E
:105108005B780C1220EF740E12225B780C1220E0F0
:10511800851882851983E0F508A3E0F509E4F50A06
:10512800F50B780C7908121E70740E12225B780C3D
:105138001220EF740612225BAA82AB831206B174A6
:105148001E1222267F0802233974F412226774FE85
:105158001222108A088B09ECFEEDFF740E12225BF6
:10516800E0F50AA3E0F50BE50A450B70077AFF7B2B
:10517800FF02524A900AFFE070077AFF7BFF025253
:105188004AA808A909E4E509A809E5098518828556
:105198001983E509F0E508740112225BE508F0902F
:1051A8000AFBE0F8A3E0F5838882A3A3A3A3A3A343
:1051B800A3A3C082C083740112225BE0F879002E99
:1051C800F8E93FF9D083D082C3E098A3E09950066C
:1051D8007AFF7BFF806C851882851983AC82AD834A
:1051E8007B02900AF9E02418F8A3E03400F98882D9
:1051F8008983E0FA900AFBE0F8A3E0F5838882E06F
:10520800F91207EFE960067AFF7BFF8035AC0AAD3B
:105218000BEEFB900AF9E02415F8A3E03400F988B6
:10522800828983E0FA900AFBE0F8A3E0F58388829C
:10523800E0F91207EFE960067AFF7BFF80047A0045
:105248007B0074021222267F0402233974F412228E
:105258006774FE1222108A088B09ECFEEDFF740EAB
:1052680012225BE0F50AA3E0F50BE50A450B70078F
:105278007AFF7BFF02534D900AFFE070077AFF7BAD
:10528800FF02534DA808A909E4E509A809E509851D
:105298001882851983E509F0E508740112225BE597
:1052A80008F0900AFBE0F8A3E0F5838882A3A3A3A3
:1052B800A3A3A3A3A3C082C083740112225BE0F856
:1052C80079002EF8E93FF9D083D082C3E098A3E0B3
:1052D8009950067AFF7BFF806C851882851983AC0C
:1052E80082AD837B02900AF9E02418F8A3E0340029
:1052F800F988828983E0FA900AFBE0F8A3E0F58355
:105308008882E0F91207EFE960067AFF7BFF8035B3
:10531800AC0AAD0BEEFB900AF9E02415F8A3E034D3
:1053280000F988828983E0FA900AFBE0F8A3E0F5A7
:10533800838882E0F91207F5E960067AFF7BFF802F
:10534800047A007B0074021222267F040223397437
:10535800F212226774FE1222108A088B098C0C8DB7
:105368000D741012225BE0F50AA3E0F50B900B1602
:10537800E070077AFF7BFF0254B7900AFFE07007DE
:105388007AFF7BFF0254B7851882851983AC82ADFA
:10539800837B02900AF9E0F8A3E0F5838882A3A34F
:1053A800A3A3A3A3A3A3A3A3E0FA900AFBE0F8A3F3
:1053B800E0F5838882E0F91207F5E960077AFF7B58
:1053C800FF0254B7851882851983E0F87900E4C88C
:1053D800F9740112225BE0FA7B00E84AF8E94BF91C
:1053E800E8FEE9FFC3EE9508EF95095010850A829B
:1053F800850B837400F07AFF7BFF0254B7900AFB99
:10540800E0F8A3E0F5838882A3E0F8A3E0F9C313EA
:10541800F9E813F8C39EE99F504B851882851983D4
:10542800AC82AD837B01900AF9E02411F8A3E03443
:1054380000F988828983E0FA900AFBE0F8A3E0F596
:10544800838882E0F91207F5E960067AFF7BFF801E
:105458005E851882851983E0A2E4500912073B7A19
:10546800FE7BFF804AAC0CAD0DAB08900AF9E02436
:105478000BF8A3E03400F988828983E0FA900AFBEC
:10548800E0F8A3E0F5838882E0F91207F5E9600601
:105498007AFF7BFF8019EEF8EFF9AA08AB09122111
:1054A80085E824FF850A82850B83F07A007B0074E7
:1054B800021222267F0602233974EC12226774EE48
:1054C8001222108A0A8B0B8C0C8D0D742612225B0B
:1054D800E0FEA3E0FF742812225BE0F50EA3E0F5DE
:1054E8000F900B17E060077AFF7BFF025646E50C2A
:1054F800450D70077AFF7BFF02564675080075094F
:1055080000C3E508950AE509950B40030255E2E555
:105518000AC39508F8E50B9509F9C3E89411E994CD
:10552800004008751010751100800DE50AC3950834
:10553800F510E50B9509F511E50C2508F512E50DB3
:105548003509F513781212247AAC10AD11AA08ABFC
:10555800091207B374021222268A128B13E5124528
:105568001360077AFF7BFF025646740212225B859E
:105578008212858313781212247AAC10AD11AA080E
:10558800AB091207B974021222268A128B13E5128C
:10559800451360077AFF7BFF025646781012247A7B
:1055A800740412225BAC82AD83E50C2508FAE50D84
:1055B8003509FB12167174021222268A128B13E522
:1055C80012451360067AFE7BFF8073E5082510F507
:1055D80008E5093511F509025509EEF8EFF9E4E98E
:1055E800F8851882851983F0EEC0E0740112225BF9
:1055F800D0E0F0851882851983AC82AD837B029058
:105608000AF9E0241AF8A3E03400F988828983E0D3
:10561800FA900AFBE0F8A3E0F5838882E0F9120724
:10562800EFE960067AFF7BFF8014900B177401F096
:10563800900B18E50EF0A3E50FF07A007B007412CA
:105648001222267F0C022339C082C083EAF8EBF9C4
:1056580088828983E0C39401A2D265D03340067A58
:10566800007B00807388828983E0C39400A2D2659E
:10567800D03350067A047B00805E88828983A3E059
:10568800C39401A2D265D03340067A017B008048DA
:1056980088828983A3E0C39400A2D265D0335006E0
:1056A8007A057B00803288828983A3A3E0C39401B2
:1056B800A2D265D03340067A027B00801B8882899B
:1056C80083A3A3E0C39400A2D265D03350067A0620
:1056D8007B0080047A077B00D083D0820201227489
:1056E800F4122267EAFEEBFFEEFAEFFB1207CB8A11
:1056F8000A8B0B850A08850B09EE2403FAEF3400A0
:10570800FB1207CB8A0A8B0B7403780A1221FDE57A
:105718000A4508F508E50B4509F509EE2406FAEFF0
:105728003400FB1207CB8A0A8B0B7406780A122105
:10573800FDE50A4508F508E50B4509F509AA08AB92
:10574800097F0402233974F612226774FA122210B0
:10575800851882851983AC82AD837B01900AF9E0B4
:10576800F8A3E0F5838882E0FA900AFBE0F8A3E06A
:10577800F5838882E0F91207F5E960057901025A94
:105788002A851882851983E06468601D79247A4D1A
:105798007B8C1207117901851882851983AA82AB3F
:1057A800831207177902025A2A8518828519837489
:1057B80080F0851882851983AC82AD837B01900ABD
:1057C800F9E02412F8A3E03400F988828983E0FA2A
:1057D800900AFBE0F8A3E0F5838882E0F91207EF6E
:1057E800E960057903025A2A908FF61220FE120703
:1057F800E98518828519837400F0851882851983D4
:10580800AC82AD837B01900AF9E02412F8A3E0345E
:1058180000F988828983E0FA900AFBE0F8A3E0F5B2
:10582800838882E0F91207EFE960057904025A2AB1
:10583800851882851983AC82AD837B06900AF9E0CE
:105848002416F8A3E03400F988828983E0FA900AE4
:10585800FBE0F8A3E0F5838882E0F91207F5E96038
:10586800057905025A2A740112225BE0A2E0E433AA
:10587800F9740312225BE0A2E0E433C333F8740541
:1058880012225BE0A2E0E433333354FC4849FEEED5
:10589800602974016E7009900B077401F002592E8B
:1058A80074026E7008900B077400F0807979177A8B
:1058B800507B8D1207117906025A2A85188285199C
:1058C80083AC82AD837B01900AF9E0F8A3E0F5830D
:1058D8008882A3A3A3E0FA900AFBE0F8A3E0F5838B
:1058E8008882E0F91207F5E960057907025A2A85E6
:1058F8001882851983E0540FFEEE700E79107A6EC7
:105908007B8E1207117905025A2A74046E70117978
:10591800157A807B8D120711900B077401F08006B1
:10592800900B077400F0900AFF74FFF0900AFD7462
:10593800FFF0900AFE74FFF0900B0074FFF0900BDC
:105948000274FFF0A374FFF0900B0474FFF0900B47
:105958000674FFF0900B017401F0900B147401F0C1
:10596800900B157400F0900B097400F0900B0874FC
:1059780000F075080A750900780812247A7C007D01
:10598800007A0A7B0B12167D7402122226900B16DF
:105998007400F0900B177400F0900B187400F0A3CB
:1059A8007400F07AD07B0712071D8A088B09E50876
:1059B800450960047910806A79021207238A088BE6
:1059C80009E50845096004791180577A2A7B001295
:1059D80007298A088B09E50845096004791280427D
:1059E8007A327B0012074D8A088B09E50845096061
:1059F800047913802D79001207418A088B09E5087C
:105A0800450960047914801A79001207538A088BB3
:105A180009E50845096004791580077900120759D6
:105A2800790074061222267F0202233974F61222A4
:105A3800677E011207E3E97017908FFA1220FE12B1
:105A480007E979197A037B8D1207117900025B96B1
:105A5800908FFA1220FE1207E91207D7E979137A14
:105A6800127B8E12071179781207598A088B09E57B
:105A7800084509700B79137AD67B8D1207118009B6
:105A880079137AFE7B8D12071179781207418A08FB
:105A98008B09E5084509700B790E7AAF7B8E1207E2
:105AA800118009790E7ABE7B8E1207117A647B0009
:105AB80012074D8A088B09E5084509700B79137A96
:105AC800C27B8D120711800979137AEA7B8D120740
:105AD8001112069F8A088B09E5084509700B791988
:105AE8007A1D7B8D120711800979197AE97B8C124E
:105AF80007117AF07B0A1207D11206A58A088B09CA
:105B0800E5084509700B791D7AB07B8C1207118066
:105B180009791D7A927B8C1207117A737B01120620
:105B2800ED8A088B09E5084509700B790D7A137B16
:105B38008F1207118009790D7A057B8F1207117A68
